:020000040000FA
:10000000831617308500003086008430810083120B
:10001000883084002130890000140808AD00860073
:10002000AE00AF0131238B01AB01A901AA018D0103
:100030009D012720051D2028A91FA90A2A211A2869
:10004000272005191928A91FA90A2A212128AA0A47
:100050002908031971286400A9010D10FD3E031C35
:100060000D140318AA01E7302B070318AB012B0866
:1000700082078D289F28A828B928C028B928C02819
:10008000B928C028B928C028B928C028B928C0284C
:10009000B928C028B928C928D528EB280C2918293F
:1000A0002429AB010D1C8E2A0C0803198129130881
:1000B0001406150616061706031D912A0C1A922A15
:1000C0008C19B42AAA018D110D121408E0390319F4
:1000D000222B941F6F2814080F399D009D170800CC
:1000E0000800AB01AA01842A8E0A07300E05820798
:1000F00058298629AA29CE29F229162A3A2A5E2ABF
:1001000014089500073013058207FB2AFB2AFB2AF7
:10011000FB2AF82A082B08000800EC302A07031CE9
:100120008129AB0A950196018C0198010130890063
:1001300000140808910000000000000008000D1CD9
:10014000AB0A00308900001408088F008F17832A3B
:10015000AB0A0D18AB0108308900001408089000A4
:10016000900D900D900D900D90097030900500004D
:100170000800AB0A03100D180314970D17298529E1
:10018000AB0A0D1CC628171CAB0117291718AB01A9
:10019000902A0D1CCE28171CAB09D1281718AB09C3
:1001A0000000980A1808AB0783290230AB00170833
:1001B00093000D18AB01130803198C14BF3A0319EF
:1001C0000C151308FF3A03198C1613087F39903E5B
:1001D00003188C1508000230AB00170894000D18A6
:1001E000AB0114088C390C3A03190C168C1EFB2831
:1001F0001408031D8C1214087039031D0C110C1403
:1002000014087039100603190C1413080F0603198B
:1002100008000C100C1208000D1813290230AB0056
:1002200017089500902A1830AB008D100D11822A06
:100230000D181F290230AB0017089600902A1830BD
:10024000AB008D140D11822AAB0A0D1CAB018D146D
:100250000D1517293F300102031C74289E0A8101E5
:1002600000000A301E02031C862A40299E01A00AB3
:10027000A10AA20AA30AA40AA50AA60AA70A8F2A03
:100280002D082E02031953282D08AE00AF0A2F089F
:1002900086008800213089008316081555308900B2
:1002A000AA308900881488185329081183128529D7
:1002B0009D1F6F291D080739003A031D7429111C61
:1002C00076299D1D6A2906149E01A0019D132D14F7
:1002D0000000832906109D132D100000912A0000B4
:1002E0000000000000000000000000000230890053
:1002F0000014080803198229200203180610842913
:100300008129172983298429000008009D1F992924
:100310001D080739013A031D9E29911CA0299D1D26
:10032000962986149E01A1019D13822986109D1392
:10033000832A000000000000000000000000000010
:1003400002308900001408080319822921020318C9
:100350008610BF289D1FBD291D080739023A031DBD
:10036000C229111DC4299D1DBA2906159E01A2018D
:100370009D13822906119D13832A000000000000AE
:10038000000000000000000003308900001408088D
:1003900003198229220203180611BF289D1FE12993
:1003A0001D080739033A031DE629911DE8299D1D03
:1003B000DE2986159E01A3019D13822986119D13B6
:1003C000832A000000000000000000000000000080
:1003D0000330890000140808031982292302031836
:1003E0008611BF289D1F052A1D080739043A031DE1
:1003F0000A2A111E0C2A9D1D022A06169E01A4011E
:100400009D13822906129D13832A0000000000001C
:1004100000000000000000000430890000140808FB
:1004200003198229240203180612BF289D1F292AB6
:100430001D080739053A031D2E2A911E302A9D1DDD
:10044000262A86169E01A5019D13822986129D13D8
:10045000832A0000000000000000000000000000EF
:1004600004308900001408080319822925020318A2
:100470008612BF289D1F4D2A1D080739063A031D05
:10048000522A111F542A9D1D4A2A06179E01A601B1
:100490009D13822906139D13832A0000000000008B
:1004A000000000000000000005308900001408086A
:1004B00003198229260203180613BF289D1F712ADB
:1004C0001D080739073A031D762A911F782A9D1DBA
:1004D0006E2A86179E01A7019D13822986139D13FC
:1004E000832A00000000000000000000000000005F
:1004F000053089000014080803198229270203180F
:100500008613BF288329912A852A872A892A882A3F
:100510008A2A8B2A8C2A53288D2A80298F2AC82838
:10052000832ABF280C1E0800AA01DF220038031905
:10053000080014080339023A031D08001508063A9A
:1005400003190800013A031908001B3A03190800AF
:1005500015081F3C031C08001508890016088800B0
:1005600048230C12312308000D1D8D1D0800AA011F
:100570000000DF220038031908008D1C80281308B2
:10058000763A0319132B083A031D0800C82A94036E
:10059000150888001408063A03190800013A0319DF
:1005A00008001B3A0319D82A09301402031808005E
:1005B000140889006400831608153E23312B1308A4
:1005C0001906031DEF2A14081A06031DEF2A150841
:1005D0001B06031DEF2A16081C060319FF34130817
:1005E000990014089A0015089B0016089C00003416
:1005F0001C309400052B280394000310940D031C59
:100600000800940D033013059407931D122BC72A7D
:10061000931D0D2B1508A800080028081506031DBA
:100620000800312B94031C30140603191B2B0930CE
:100630001402031808001408890051231506031D2D
:100640000800312B0D1D8D180800140803192C2BE0
:100650000E3A0319312B08009D018C1C08008D15E2
:100660007028640085158101FA30AC00011F362B1B
:1006700001136400AC0B362B85110800553089003E
:10068000AA30890088148818432B081183120800A7
:100690008316081555308900AA3089008814831202
:0806A00008000014080808001E
:02400E00F63F7B
:104200000200FF00000000000000000000000000AD
:10421000000000000000000000000000000000009E
:10422000000000000000000000000000000000008E
:1042300000000000000000008000000000000000FE
:04424000000000007A
:00000001FF
