MPASM  5.20           DCCDECOMANOLO_V5_61.ASM   5-5-2008  20:13:29         PAGE  1


LOC  OBJECT CODE     LINE SOURCE TEXT
  VALUE

                      00001 ;Dbacc4:  Accessory decoder based on original loco decoder program by D Probst
                      00002 ;       Modifications by M. Bolton (2DEC98) and G.Ising (16OCT00)
                      00003 ;               MERG-DCC http://home.freeuk.net/merg/resources/dcc.htm 
                      00004 ;       Modified by Stefano Curtarolo (1NOV01)
                      00005 ;               Accessory decoder configuration variable access istruction
                      00006 ;               http://www.tttrains.com/nmradcc/rp921.html#accessory_packets
                      00007 ;               was added. NCE and SYS1 systems uses that protocol in accessory
                      00008 ;               OPS mode (prog-7-enter). 
                      00009 ;               For other DCC projects of Stefano Curtarolo pleas look @ MIT
                      00010 ;               web:  http://nietzsche.mems.duke.edu/auro/trains/tech/DCC/
                      00011 ;       Program is intended to be used with the accessory decoder design        
                      00012 ;       by M Bolton. The decoder is opto isolated so the ack function is a LED 
                      00013 ;       on the decoder board itself. No power booster is required but the signals
                      00014 ;       can be taken from the track if desired. 
                      00015 ;       A separate 20v AC power supply is needed.
                      00016 ;       Decoder includes circuitry to drive solenoid
                      00017 ;       point motors using a capacitor discharge technique. 
                      00018 ;
                      00019 ;       Tested with one set of four switches, with all addresses.
                      00020 ;       Seems OK so far.
                      00021 ;
                      00022 ;       Schematic, PCB layout and source listing (+ HEX file) available. Contact
                      00023 ;       Mike Bolton at bolton@fs1.with.man.ac.uk.
                      00024 ;
                      00025 ;       Details of a matching accessory encoder are also available.
                      00026 ;
                      00027 ;
                      00028 ;This is code for a PIC16F84 (or 16C84). This
                      00029 ;program will read three, four, and five byte packets and supports paged
                      00030 ;and direct CV servTRK mode access of CV data. 
                      00031 ;
                      00032 ;The decoder follows the NMRA standard for an Accessory Decoder. It controls
                      00033 ;four pairs of outputs with on times set by the CVs in increments of 
                      00034 ;10 millisecs. Range is 10 ms to 2.54 sec.or continuous.
                      00035 ;
                      00036 ;Supports 9 bit addressing.(3 byte packets) at present.
                      00037 
                      00038 ;The processor is ured to operate at 8MHz. 
                      00039 ;When programming,the fuses should be set with HS clock, WDT on.
                      00040 ;
                      00041 
                      00042 ;The following NMRA defined CV's and ranges are supported...
                      00043 
                      00044 ;CV513  Lower 6 address bits    00h - 3Fh  
                      00045 ;CV514  Auxiliary activation    00h - FFh  Bits 0 to 7.Each bit sets an output.
                      00046 ;                                          1 is active, 0 is inactive   
                      00047 ;CV515  F1 function 'on' time   00h - FFh  Time in 10ms steps. 0 is continuous.
                      00048 ;CV516  F2  
                      00049 ;CV517  F3                                        
                      00050 ;CV518  F4
                      00051 ;CV519  Version Number          00h -FFh   Cannot be changed (same as CV8)
                      00052 ;CV520  Manufacturers ID        00h -FFh   Cannot be changed (same as CV9)
                      00053 ;                
MPASM  5.20           DCCDECOMANOLO_V5_61.ASM   5-5-2008  20:13:29         PAGE  2


LOC  OBJECT CODE     LINE SOURCE TEXT
  VALUE

                      00054 ;CV521  Upper 3 bits of         00h -07h
                      00055 ;       address     
                      00056 ;CV541  Configuration           Bit 7 = 1  Cannot be changed (same as CV29)
                      00057 
                      00058 ;       No other CVs are supported.
                      00059 
                      00060         processor       16F84
2007   3FF6           00061         __CONFIG        h'3FF6' ; PUTimer on, WDT on, HS clock
                      00062 ;Variable definition - PIC16F84 control registers.
                      00063 
  00000000            00064 f0      equ     00
  00000001            00065 rtcc    equ     01
  00000081            00066 optreg  equ             81      ;page 1
  00000002            00067 pc      equ     02
  00000003            00068 STATUS  equ     03
  00000000            00069 Carry   equ     0
  00000002            00070 Zbit    equ     2
  00000005            00071 RP0     equ     5
  00000006            00072 rp1     equ     6
  00000004            00073 fsr     equ     04
  00000005            00074 PORTA   equ     05
  00000005            00075 F1              equ             05
  00000005            00076 F2              equ             05
  00000085            00077 ddra    equ             85      ;page 1
  00000006            00078 PORTB   equ     06
  00000006            00079 F3              equ             06
  00000006            00080 F4              equ             06
  00000086            00081 ddrb    equ             86      ;page 1
  00000008            00082 EEDATA  equ     08
  00000009            00083 EEARD   equ     09
  00000088            00084 EECON1  equ     88 ;08
  00000000            00085 rd      equ     0
  00000001            00086 WR      equ     1
  00000002            00087 WREN    equ     2
  00000089            00088 EECON2  equ     89; 09
  0000000A            00089 pclath  equ     0A
  0000000B            00090 intcon  equ     0B
  00000007            00091 GIE             equ             7
  00000001            00092 f       equ     1
  00000000            00093 w       equ     0
                      00094 
                      00095 ;Varible definition - User RAM.
                      00096 
  0000000C            00097 addcfg  equ     0C      ;address configuration
  00000000            00098 primary equ     0       ;accessory address match
  00000001            00099 reset   equ     1       ;reset packet
  00000002            00100 brdcst  equ             2       ;accessory broadcast
  00000003            00101 servTRK equ     3
  00000004            00102 servOPS equ     4
  00000005            00103 idle    equ             5       
  0000000D            00104 configu equ     0D
  00000000            00105 value   equ     0
  00000001            00106 byte4   equ     1       ;not used yet
MPASM  5.20           DCCDECOMANOLO_V5_61.ASM   5-5-2008  20:13:29         PAGE  3


LOC  OBJECT CODE     LINE SOURCE TEXT
  VALUE

  00000002            00107 byte5   equ     2       ;not used yet
                      00108 
                      00109 ;registers
                      00110 
  0000000E            00111 count   equ     0E      ;counts which output
  0000000F            00112 CV513a  equ     0F      ;holds CV513 low address bits
  00000010            00113 CV521a  equ     10      ;holds CV521 high address bits
  00000011            00114 CV514a  equ             11      ;which outputs to activate
  00000012            00115 CV541a  equ     12      ;configu CV
  00000013            00116 data1   equ     13      ;first packet byte
  00000014            00117 data2   equ     14      ;second packet byte
  00000015            00118 data3   equ     15
  00000016            00119 data4   equ     16
  00000017            00120 data5   equ     17
  00000018            00121 endval  equ     18
  00000019            00122 lastd1  equ     19
  0000001A            00123 lastd2  equ     1A
  0000001B            00124 lastd3  equ     1B
  0000001C            00125 lastd4  equ     1C
  0000001D            00126 action  equ     1D      ;4 bits of accessory command
  0000001E            00127 tick1   equ     1E      ;counts 10 millisec intervals
  00000020            00128 time1   equ     20      ;on time for output 1 etc.
  00000021            00129 time2   equ             21
  00000022            00130 time3   equ             22
  00000023            00131 time4   equ             23
  00000024            00132 time5   equ             24
  00000025            00133 time6   equ             25
  00000026            00134 time7   equ             26
  00000027            00135 time8   equ             27
                      00136 
  00000028            00137 pagereg equ     28
  00000029            00138 m       equ     29      ;as in Dean Probst's decode
  0000002A            00139 n       equ     2A
  0000002B            00140 state   equ     2B
  0000002C            00141 temp    equ     2C
  0000002D            00142 memo    equ             2D 
  0000002E            00143 change  equ             2E 
                      00144 
                      00145 
                      00146 
                      00147 ;Init sets as all outputs, pin b7 as input and the rest of PORTB as
                      00148 ;outputs and sets the rtcc counter to divide by 32 (16us at 8MHz clock).
                      00149 ;FSR is set to 88h for indirect access to EECON register from page 00.
                      00150 
0000   1683           00151 Init bsf        STATUS,RP0      ;set to page 1
                      00152 
0001   3017           00153         movlw   B'00010111'     ;port a data in and ack out A3
Message[302]: Register in operand not in bank 0.  Ensure that bank bits are correct.
0002   0085           00154         movwf   ddra
0003   3000           00155         movlw   B'00000000'     ;port b 7outputs
Message[302]: Register in operand not in bank 0.  Ensure that bank bits are correct.
0004   0086           00156         movwf   ddrb
0005   3084           00157         movlw   B'10000100'     ;set option reg RTCC /32
MPASM  5.20           DCCDECOMANOLO_V5_61.ASM   5-5-2008  20:13:29         PAGE  4


LOC  OBJECT CODE     LINE SOURCE TEXT
  VALUE

Message[302]: Register in operand not in bank 0.  Ensure that bank bits are correct.
0006   0081           00158         movwf   optreg
0007   1283           00159         bcf     STATUS,RP0
                      00160 
                      00161 
0008   3088           00162         movlw   0x88                    ;fSR is set to 88h for indirect access to EECON register from pa
                            ge 00
0009   0084           00163         movwf   fsr
                      00164 
000A   3021           00165                 movlw   0x21            ;     EE=21   MEMO
000B   0089           00166         movwf   EEARD           ;
000C   1400           00167                 bsf     f0,rd
000D   0808           00168                 movf    EEDATA,w   
000E   00AD           00169                 movwf   memo                    ;Status of port B is stored in MEMO
000F   0086           00170                 movwf   PORTB
0010   00AE           00171                 movwf   change
                      00172 
0011   018B           00173             clrf    intcon
0012   01AB           00174         clrf    state
0013   01A9           00175         clrf    m
0014   01AA           00176         clrf    n
0015   018D           00177         clrf    configu
0016   019D           00178         clrf    action
                      00179         
                      00180 
                      00181 ;The following routine loops between Starthi and Startlo in a precisely 
                      00182 ;timed sequence that samples track voltage at 22us intervals, decodes the
                      00183 ;incoming packet, and updates the decoder outputs. When a change in 
                      00184 ;voltage is detected, a half-bit is defined and the subroutine 
                      00185 ;Getstat is called to check the value of the half-bit and decode the 
                      00186 ;sequence. Subsequent delays between samplings call the update subroutine 
                      00187 ;to update the outputs and timing registers of the microcontoller. At 22us, 
                      00188 ;the values of the half-bits are determined as follows:
                      00189 ;
                      00190 ;       Delays          Possible Duration
                      00191 ;       1               1us  - 43us
                      00192 ;       2               23us - 65us
                      00193 ;       3               45us - 87us
                      00194 ;       4               67us - up
                      00195 ;
                      00196 ;With these values, one delay will be 43us or less and will reset 
                      00197 ;the packet decode sequence. Two or three delays will be 23us to 87us and 
                      00198 ;will be recognized as a hi (1) half-bit. This completely encompasses the 
                      00199 ;duration required by the NMRA DCC standards of 52us to 64us. Four or more 
                      00200 ;delays will be 67us or greater and are recognized as a low (0) half-bit.
                      00201 ;Again, this meets the NMRA DCC requirements of 90us to 10000us.
                      00202 
                      00203 ; Durations of
                      00204 ;~18ms in length, such as DC or when the signal is lost, will cause the
                      00205 ;watch dog timer to reset, reseting the decoder. 
                      00206 
                      00207 ;                               timing
                      00208 
MPASM  5.20           DCCDECOMANOLO_V5_61.ASM   5-5-2008  20:13:29         PAGE  5


LOC  OBJECT CODE     LINE SOURCE TEXT
  VALUE

0017   2025           00209 Starthi call    Getval          ;3
0018   1D05           00210 Conthi  btfss   PORTA,2         ;44/0/88        Manolo
0019   281E           00211         goto    Startlo         ;45/1
001A   1FA9           00212         btfss   m,7             ;46
001B   0AA9           00213         incf    m,f             ;47        
001C   2128           00214         call    Update          ;48
001D   2818           00215         goto    Conthi          ;86
                      00216 
001E   2025           00217 Startlo call    Getval          ;3
001F   1905           00218 Contlo  btfsc   PORTA,2         ;44/0/88        Manolo
0020   2817           00219         goto    Starthi         ;45/1
0021   1FA9           00220         btfss   m,7             ;46
0022   0AA9           00221         incf    m,f             ;47       
0023   2128           00222         call    Update          ;48
0024   281F           00223         goto    Contlo          ;86
                      00224 
                      00225 ;Getval checks m for a value of 0 (reset), 1 or 2 (hi) or greater (low).
                      00226 ;It then checks state for a value less than or equal to 24 (18h) and then
                      00227 ;adds state to pc register (program counter) to offset execution to a 
                      00228 ;specific subroutine.
                      00229 
0025   0AAA           00230 Getval  incf    n,f             ;5
0026   0829           00231         movf    m,w             ;6
0027   1903           00232         btfsc   STATUS,Zbit     ;7
0028   286F           00233         goto    Resetv          ;8
0029   0064           00234         clrwdt                  ;9
002A   01A9           00235         clrf    m               ;10
002B   100D           00236         bcf     configu,value    ;11
002C   3EFD           00237         addlw   0xFD            ;12
002D   1C03           00238         btfss   STATUS,Carry    ;13
002E   140D           00239         bsf     configu,value    ;14
002F   1803           00240         btfsc   STATUS,Carry    ;15
0030   01AA           00241         clrf    n               ;16
0031   30E7           00242         movlw   0xE7            ;17
0032   072B           00243         addwf   state,w         ;18
0033   1803           00244         btfsc   STATUS,Carry    ;19
0034   01AB           00245         clrf    state           ;20
0035   082B           00246         movf    state,w         ;21
0036   0782           00247         addwf   pc,f            ;22
                      00248                                               ;state
0037   288B           00249         goto    Waitn           ;24             ;0     
0038   289D           00250         goto    Waitlo                          ;1
0039   28A6           00251         goto    Testlo                          ;2
                      00252 
003A   28B7           00253         goto    Bitset                          ;3
003B   28BE           00254         goto    Lastv                           ;4
003C   28B7           00255         goto    Bitset                          ;5
003D   28BE           00256         goto    Lastv                           ;6
003E   28B7           00257         goto    Bitset                          ;7
003F   28BE           00258         goto    Lastv                           ;8
0040   28B7           00259         goto    Bitset                          ;9
0041   28BE           00260         goto    Lastv                           ;10
0042   28B7           00261         goto    Bitset                          ;11
MPASM  5.20           DCCDECOMANOLO_V5_61.ASM   5-5-2008  20:13:29         PAGE  6


LOC  OBJECT CODE     LINE SOURCE TEXT
  VALUE

0043   28BE           00262         goto    Lastv                           ;12
0044   28B7           00263         goto    Bitset                          ;13
0045   28BE           00264         goto    Lastv                           ;14
0046   28B7           00265         goto    Bitset                          ;15
0047   28BE           00266         goto    Lastv                           ;16
0048   28B7           00267         goto    Bitset                          ;17
0049   28C7           00268         goto    Endx                            ;18
                      00269 
004A   28D3           00270         goto    End1                            ;19
004B   28E9           00271         goto    End2                            ;20
004C   290A           00272         goto    End3                            ;21
004D   2916           00273         goto    End4                            ;22
004E   2922           00274         goto    End5                            ;23
                      00275         
                      00276 ;This is the last state of the packet decode sequence. It first checks for
                      00277 ;a high half-bit. It then XORs the five data bytes to check packet parity. 
                      00278 ;It then checks addcfg register flags to determine instruction address 
                      00279 ;and branches to CVserv or Decode.
                      00280 
004F   01AB           00281         clrf    state           ;24        state = 24
0050   1C0D           00282         btfss   configu,value   ;25
0051   2ABC           00283 ret16   goto    ret14           ;26     68
0052   080C           00284         movf    addcfg,w        ;27
0053   1903           00285         btfsc   STATUS,Zbit     ;28
0054   297E           00286         goto    ret11           ;29
0055   0813           00287         movf    data1,w         ;30
0056   0614           00288         xorwf   data2,w         ;31
0057   0615           00289         xorwf   data3,w         ;32
0058   0616           00290         xorwf   data4,w         ;33
0059   0617           00291         xorwf   data5,w         ;34
005A   1D03           00292         btfss   STATUS,Zbit     ;35
005B   2ABF           00293         goto    ret4            ;36
005C   1A0C           00294         btfsc   addcfg,servOPS
005D   2AC0           00295         goto    CVservOPS       ;       if(SERVOPS_MODE) goto CVservOPS
005E   198C           00296         btfsc   addcfg,servTRK  ;37
005F   2AE2           00297         goto    CVserv          ;38
0060   01AA           00298         clrf    n               ;39     
0061   118D           00299         bcf     configu,servTRK ;40
0062   120D           00300         bcf     configu,servOPS ;40
                      00301                 
                      00302 
0063                  00303 Decode  ;btfsc  addcfg,primary
                      00304         ;nop
0063   0814           00305         movf    data2,w         ;Dcontrl        action
0064   39E0           00306         andlw   0xE0            ;000
0065   1903           00307         btfsc   STATUS,Zbit     ;reset packet
0066   2B50           00308         goto    Dcontrl 
0067   1F94           00309         btfss   data2,7         ;accessory instruction?
0068   286D           00310         goto    noacc
0069   0814           00311         movf    data2,w         ;recover byte           
006A   390F           00312         andlw   B'00001111'     ;mask
006B   009D           00313         movwf   action          ;decoder instruction (four bits)
006C   179D           00314         bsf     action,7        ;set new action
MPASM  5.20           DCCDECOMANOLO_V5_61.ASM   5-5-2008  20:13:29         PAGE  7


LOC  OBJECT CODE     LINE SOURCE TEXT
  VALUE

006D   0008           00315 noacc   return  
                      00316 
006E   0008           00317 Nextbyt return
                      00318        
                      00319 
006F   01AB           00320 Resetv  clrf    state           ;11
0070   01AA           00321         clrf    n               ;12
0071   2AB2           00322         goto    ret27           ;13
                      00323 
                      00324 ;Counter jumps to alternating output update routines. It is called from the
                      00325 ;Update routine.
                      00326 
0072   0A8E           00327 Counter incf    count,f         ;55
0073   3007           00328         movlw   B'00000111'     ;56
0074   050E           00329         andwf   count,w         ;57
0075   0782           00330         addwf   pc,f            ;58
0076   2952           00331         goto    count1          ;60
0077   2983           00332         goto    count2  
0078   29AE           00333         goto    count3
0079   29D9           00334         goto    count4
007A   2A04           00335                 goto    count5
007B   2A2F           00336         goto    count6
007C   2A5A           00337                 goto    count7
007D   2A85           00338                 goto    count8
                      00339 
                      00340 ;CVpage is for three byte servTRK mode addressing (page addressing). It 
                      00341 ;uses the page register and the offset in data1 to calculate the CV number. 
                      00342 ;The data in data2 is moved to data3 and the calculated CV is stored in
                      00343 ;data2.
                      00344 
007E   0814           00345 CVpage  movf    data2,w                
007F   0095           00346         movwf   data3
0080   3007           00347         movlw   0x07
0081   0513           00348         andwf   data1,w
0082   0782           00349         addwf   pc,f
                      00350 
0083   2B29           00351         goto    CVfind
0084   2B29           00352         goto    CVfind
0085   2B29           00353         goto    CVfind
0086   2B29           00354         goto    CVfind
0087   2B26           00355         goto    CV541s
0088   2B36           00356         goto    CVpgreg
0089   0008           00357         return
008A   0008           00358         return                                 
                      00359         
                      00360 ;
                      00361 
                      00362 ;Waitn waits for 20 hi half-bits (ten hi bits of the pre-amble) to start
                      00363 ;the decode sequence. Also reads CV514
                      00364 
008B   30EC           00365 Waitn   movlw   0xEC            ;26
008C   072A           00366         addwf   n,w             ;27
008D   1C03           00367         btfss   STATUS,Carry    ;28
MPASM  5.20           DCCDECOMANOLO_V5_61.ASM   5-5-2008  20:13:29         PAGE  8


LOC  OBJECT CODE     LINE SOURCE TEXT
  VALUE

008E   297E           00368         goto    ret11           ;29
008F   0AAB           00369         incf    state,f         ;30
0090   0195           00370         clrf    data3           ;31
0091   0196           00371         clrf    data4           ;32
0092   018C           00372         clrf    addcfg          ;33
0093   0198           00373         clrf    endval          ;34
0094   3001           00374                 movlw   0x01            ;35     EE=1    CV514
0095   0089           00375         movwf   EEARD           ;36
0096   1400           00376         bsf     f0,rd           ;37
0097   0808           00377         movf    EEDATA,w        ;38
0098   0091           00378                 movwf   CV514a          ;39
0099   0000           00379         nop                     ;40
009A   0000           00380                 nop                     ;41
009B   0000           00381                 nop                     ;42
009C   0008           00382                 return     
                      00383         
                      00384 
                      00385 ;Waitlo waits for a low bit to signal the end of the pre-amble. Also reads
                      00386 ;CV513 
                      00387 
009D   1C0D           00388 Waitlo  btfss   configu,value    ;26
009E   0AAB           00389         incf    state,f         ;27
009F   3000           00390         movlw   0x00            ;28     EE=0    CV513
00A0   0089           00391         movwf   EEARD           ;29
00A1   1400           00392         bsf     f0,rd           ;30
00A2   0808           00393         movf    EEDATA,w        ;31
00A3   008F           00394         movwf   CV513a          ;32     lower 6 address bits
00A4   178F           00395         bsf             CV513a,7        ;33     10AAAAAA to match 1st byte
00A5   2AB1           00396         goto    ret6                    ;34
                      00397         
                      00398 
                      00399 ;Testlo must have a low half-bit. Also reads CV521.
                      00400 
00A6   0AAB           00401 Testlo  incf    state,f         ;26
00A7   180D           00402         btfsc   configu,value    ;27
00A8   01AB           00403         clrf    state           ;28
00A9   3008           00404         movlw   0x08            ;29     get CV521 (00000AAA)              
00AA   0089           00405         movwf   EEARD           ;30                  
00AB   1400           00406         bsf     f0,rd           ;31
00AC   0808           00407         movf    EEDATA,w        ;32
00AD   0090           00408         movwf   CV521a          ;33     upper 3 address bits
00AE   0D90           00409         rlf             CV521a,f                ;34
00AF   0D90           00410         rlf     CV521a,f        ;35
00B0   0D90           00411         rlf     CV521a,f        ;36
00B1   0D90           00412         rlf     CV521a,f        ;37     now 0AAA0000
00B2   0990           00413         comf    CV521a,f                ;38     top address is complemeted
00B3   3070           00414         movlw   B'01110000'     ;39     mask other bits             
00B4   0590           00415         andwf   CV521a,f        ;40
00B5   0000           00416         nop                                     ;41
00B6   0008           00417         return                  ;42
                      00418         
                      00419 ;Bitset reads the value of the just finished half-bit and rotates it
                      00420 ;into the LSB of data5. Eight cycles through Bitset will read a 
MPASM  5.20           DCCDECOMANOLO_V5_61.ASM   5-5-2008  20:13:29         PAGE  9


LOC  OBJECT CODE     LINE SOURCE TEXT
  VALUE

                      00421 ;complete byte of data. 
                      00422         
00B7   0AAB           00423 Bitset  incf    state,f         ;26
00B8   1003           00424         bcf     STATUS,Carry    ;27
00B9   180D           00425         btfsc   configu,value    ;28
00BA   1403           00426         bsf     STATUS,Carry    ;29
00BB   0D97           00427         rlf     data5,f         ;30
00BC   2915           00428         goto    ret9            ;31
00BD   2982           00429 ret2    goto    ret0        ;82    
                      00430 
                      00431 ;Lastv checks for the current half-bit to be the same as the previous
                      00432 ;half-bit. 
                      00433 
00BE   0AAB           00434 Lastv   incf    state,f         ;26
00BF   1C0D           00435         btfss   configu,value    ;27
00C0   28C4           00436         goto    lastv1          ;28
00C1   1C17           00437         btfss   data5,0         ;29
00C2   01AB           00438         clrf    state           ;30
00C3   2915           00439                 goto    ret9
00C4   1817           00440 lastv1  btfsc   data5,0         ;30
00C5   01AB           00441         clrf    state           ;31
00C6   2ABE           00442 ret10   goto    ret8            ;32     74
                      00443        
                      00444 
                      00445 ;Endx compares the present half-bit to the previous half-bit (same as
                      00446 ;lastv) and then determines the offset for the intermediate bits.
                      00447 
00C7   1C0D           00448 Endx    btfss   configu,value    ;26
00C8   28CC           00449         goto    endx1           ;27
00C9   1C17           00450         btfss   data5,0         ;28
00CA   09AB           00451         comf    state,f         ;29           
00CB   28CF           00452         goto    endx2           ;30
00CC   1817           00453 endx1   btfsc   data5,0         ;29
00CD   09AB           00454         comf    state,f         ;30
00CE   0000           00455         nop                     ;31
00CF   0A98           00456 endx2   incf    endval,f        ;32
00D0   0818           00457         movf    endval,w        ;33
00D1   07AB           00458         addwf   state,f         ;34
00D2   2980           00459         goto    ret3            ;35
                      00460 
                      00461 ;Intermediate bit after first byte - must be low. End1 also checks for
                      00462 ;broadcast and servTRK mode address.
                      00463 
00D3   3002           00464 End1    movlw   0x02            ;26
00D4   00AB           00465         movwf   state           ;27
00D5   0817           00466         movf    data5,w         ;28
00D6   0093           00467         movwf   data1           ;29
00D7   180D           00468         btfsc   configu,value    ;30
00D8   01AB           00469         clrf    state           ;31
00D9   0813           00470         movf    data1,w         ;32     get first byte
                      00471 ; RESET PACKET CHECK
00DA   1903           00472         btfsc   STATUS,Zbit     ;33
00DB   148C           00473         bsf     addcfg,reset    ;34     yes so set bit 
MPASM  5.20           DCCDECOMANOLO_V5_61.ASM   5-5-2008  20:13:29         PAGE 10


LOC  OBJECT CODE     LINE SOURCE TEXT
  VALUE

                      00474 ; BROADCAST PACKET CHECK
00DC   3ABF           00475         xorlw   B'10111111'     ;35     accessory broadcast low bits?
00DD   1903           00476         btfsc   STATUS,Zbit     ;36
00DE   150C           00477         bsf     addcfg,brdcst   ;37     set broadcast bit
                      00478 ; IDLE PACKET CHECK
00DF   0813           00479         movf    data1,W         ;32     GET 1st byte in W
00E0   3AFF           00480         xorlw   B'11111111'     ;35     IDLE ?
00E1   1903           00481         btfsc   STATUS,Zbit     ;36
00E2   168C           00482         bsf     addcfg,idle     ;37     if B'11111111' set IDLE bit
                      00483 ; OUT OF CYCLE
00E3   0813           00484         movf    data1,w         ;38 
00E4   397F           00485         andlw   B'01111111'     ;39     ;acc address has top bit set
00E5   3E90           00486         addlw   0x90            ;40
00E6   1803           00487         btfsc   STATUS,Carry    ;41
00E7   158C           00488         bsf     addcfg,servTRK  ;42     servTRK so set bit
00E8   0008           00489         return                  ;43
                      00490 
                      00491 ;Intermediate bit after second byte - must be low. End2 also checks for
                      00492 ;primary address (9 bits)and rest of broadcast.
                      00493 
00E9   3002           00494 End2    movlw   0x02            ;26
00EA   00AB           00495         movwf   state           ;27
00EB   0817           00496         movf    data5,w         ;28
00EC   0094           00497         movwf   data2           ;29
00ED   180D           00498         btfsc   configu,value    ;30
00EE   01AB           00499         clrf    state           ;31
                      00500 ; SERVICE-OPS CHECK
                      00501 ; 0 10AAAAAA 0 0AAACCaa 0 aaaaaaaa 0 DDDDDDDD 0 EEEEEEEE 1
00EF   0814           00502         movf    data2,W         ;32     2nd byte
00F0   398C           00503         andlw   B'10001100'     ;33     mask about  0AAA11aa
00F1   3A0C           00504         xorlw   B'00001100'     ;34     mask to get 0xxx11xx
00F2   1903           00505         btfsc   STATUS,Zbit     ;36
00F3   160C           00506         bsf     addcfg,servOPS  ;37
                      00507 ; IDLE CHECK
00F4   1E8C           00508         btfss   addcfg,idle
00F5   28F9           00509         goto    End2b
00F6   0814           00510         movf    data2,W         ;38     2nd byte
00F7   1D03           00511         btfss   STATUS,Zbit     ;40     all zeros?
00F8   128C           00512         bcf     addcfg,idle     ;41     IDLE only if we had idle before
                      00513 ; BROADCAST CHECK
00F9   0814           00514 End2b   movf    data2,W         ;38     2nd byte
00FA   3970           00515         andlw   B'01110000'     ;33     mask except hi address bits
00FB   1D03           00516         btfss   STATUS,Zbit     ;34     all zeros?
00FC   110C           00517         bcf     addcfg,brdcst   ;35     not broadcast   
                      00518 ; ADDRESSES CHECK BANK0 513a 512a
00FD   140C           00519         bsf     addcfg,primary  ;43   
00FE   0814           00520         movf    data2,W         ;       2nd byte             
00FF   3970           00521         andlw   B'01110000'     ;       mask except hi addr     
0100   0610           00522         xorwf   CV521a,w        ;36     hi bits match?
0101   1903           00523         btfsc   STATUS,Zbit     ;37
0102   140C           00524         bsf     addcfg,primary  ;38     yes
0103   0813           00525         movf    data1,w         ;39     get first byte
0104   060F           00526         xorwf   CV513a,w        ;40     match?
MPASM  5.20           DCCDECOMANOLO_V5_61.ASM   5-5-2008  20:13:29         PAGE 11


LOC  OBJECT CODE     LINE SOURCE TEXT
  VALUE

0105   1903           00527         btfsc   STATUS,Zbit     ;41
0106   0008           00528                 return
0107   100C           00529 End2c   bcf     addcfg,primary  ;42     n
0108   120C           00530         bcf     addcfg,servOPS  ;59     if dont match clear SERVICE-OPS
0109   0008           00531         return                  ;43
                      00532 
                      00533 ;Intermediate bit after third byte - hi signals end of packet.
                      00534 
010A   180D           00535 End3    btfsc   configu,value    ;26
010B   2911           00536         goto    end3hi          ;27
010C   3002           00537         movlw   0x02            ;28
010D   00AB           00538         movwf   state           ;29
010E   0817           00539         movf    data5,w         ;30
010F   0095           00540         movwf   data3           ;31
0110   2ABE           00541         goto    ret8            ;32
                      00542 
0111   3018           00543 end3hi  movlw   0x18            ;29
0112   00AB           00544         movwf   state           ;30
0113   108D           00545         bcf     configu,byte4    ;31
0114   110D           00546         bcf     configu,byte5    ;32
0115   2AB0           00547 ret9    goto    ret7            ;33
                      00548 
                      00549 ;Intermediate bit after fourth byte - hi signals end of packet.
                      00550 
0116   180D           00551 End4    btfsc   configu,value    ;26
0117   291D           00552         goto    end4hi          ;27
0118   3002           00553         movlw   0x02            ;28
0119   00AB           00554         movwf   state           ;29
011A   0817           00555         movf    data5,w         ;30
011B   0096           00556         movwf   data4           ;31
011C   2ABE           00557         goto    ret8            ;32
                      00558 
011D   3018           00559 end4hi  movlw   0x18            ;29
011E   00AB           00560         movwf   state           ;30
011F   148D           00561         bsf     configu,byte4    ;31
0120   110D           00562         bcf     configu,byte5    ;32
0121   2AB0           00563         goto    ret7            ;33
                      00564 
                      00565 ;End bit after fifth byte - must be hi.
                      00566 
0122   0AAB           00567 End5    incf    state,f         ;26
0123   1C0D           00568         btfss   configu,value    ;27
0124   01AB           00569         clrf    state           ;28
0125   148D           00570         bsf     configu,byte4    ;29
0126   150D           00571         bsf     configu,byte5    ;30
0127   2915           00572         goto    ret9            ;31
                      00573 
                      00574 ;This subroutine is used to update the outputs of the microcontroller. 
                      00575 ;The rtcc is compared with the value 63. As rtcc increments every 16
                      00576 ;microsecs, count will match at about 1 millisec.A match condition (=>)
                      00577 ;will increment tick1 and reset the rtcc. Tick1 is compared with 10 and
                      00578 ;if => then all channel timers, (time1 to time8) are incremented.This
                      00579 ;sets the fundamental time interval at 10 millisec.
MPASM  5.20           DCCDECOMANOLO_V5_61.ASM   5-5-2008  20:13:29         PAGE 12


LOC  OBJECT CODE     LINE SOURCE TEXT
  VALUE

                      00580 ;Between tick1 updates, routine switches to 'Counter' which accesses each
                      00581 ;output routine in turn to see if the outputs should be on or off.
                      00582 
0128   303F           00583 Update  movlw   .63             ;50             one millisec approx
0129   0201           00584         subwf   rtcc,w          ;51
012A   1C03           00585         btfss   STATUS,Carry    ;52
012B   2872           00586         goto    Counter         ;53
012C   0A9E           00587         incf    tick1,f         ;54
012D   0181           00588         clrf    rtcc            ;55             reset rtcc
012E   0000           00589         nop                     ;56
012F   300A           00590         movlw   .10             ;57
0130   021E           00591         subwf   tick1,w         ;58             
0131   1C03           00592         btfss   STATUS,Carry    ;59             10ms
0132   293D           00593             goto        strmemo         ;60
0133   019E           00594         clrf    tick1           ;61             
0134   0AA0           00595         incf    time1,f         ;62             increment channel timers           
0135   0AA1           00596         incf    time2,f         ;63             
0136   0AA2           00597         incf    time3,f         ;64             
0137   0AA3           00598         incf    time4,f         ;65
0138   0AA4           00599         incf    time5,f         ;66
0139   0AA5           00600         incf    time6,f         ;67
013A   0AA6           00601         incf    time7,f         ;68
013B   0AA7           00602         incf    time8,f         ;69                     
013C   2ABD           00603         goto    ret12           ;70             
                      00604                                                                 ;TEST each time all the output have been
                             tested we strore memo
                      00605                 ;Prueba esxritura
                      00606                 
013D   082D           00607 strmemo movf    memo, w                 ;62     
013E   022E           00608                 subwf   change,w                ;63     Sub in f does not work
013F   1903           00609                 btfsc   STATUS,Zbit     ;64     
0140   2ABA           00610                 goto    ret17                   ;65
0141   082D           00611                 movf    memo, w                 ;66
0142   00AE           00612                 movwf   change                  ;67 out of loop until next change 
0143   0088           00613                 movwf   EEDATA                  ;68
0144   3021           00614                 movlw   0x21            ;69    EE=21   MEMO
                      00615 
0145   0089           00616                 movwf   EEARD           ;70
0146   1683           00617                 bsf             STATUS,RP0              ;71
                      00618         
Message[302]: Register in operand not in bank 0.  Ensure that bank bits are correct.
0147   1508           00619                 bsf     EECON1,WREN             ;72
0148   3055           00620             movlw   0x55                        ;73
Message[302]: Register in operand not in bank 0.  Ensure that bank bits are correct.
0149   0089           00621         movwf   EECON2                  ;74
014A   30AA           00622         movlw   0xAA                    ;75
Message[302]: Register in operand not in bank 0.  Ensure that bank bits are correct.
014B   0089           00623         movwf   EECON2                  ;76
Message[302]: Register in operand not in bank 0.  Ensure that bank bits are correct.
014C   1488           00624         bsf     EECON1,WR               ;77
Message[302]: Register in operand not in bank 0.  Ensure that bank bits are correct.
014D   1888           00625 busy    btfsc   EECON1,WR               ;78
014E   294D           00626         goto    busy                    ;79
MPASM  5.20           DCCDECOMANOLO_V5_61.ASM   5-5-2008  20:13:29         PAGE 13


LOC  OBJECT CODE     LINE SOURCE TEXT
  VALUE

Message[302]: Register in operand not in bank 0.  Ensure that bank bits are correct.
014F   1108           00627         bcf     EECON1,WREN             ;80
0150   1283           00628         bcf     STATUS,RP0              ;81
                      00629 
0151   2982           00630                 goto    ret0                    ;82  
                      00631           
                      00632                      
                      00633 ;Count1 controls output1 
                      00634 
0152   1F9D           00635 count1  btfss   action,7        ;62     new action
0153   2969           00636         goto    t1a             ;63     no
0154   081D           00637         movf    action,w        ;64
0155   3907           00638         andlw   B'00000111'     ;65     mask
0156   3A00           00639         xorlw   B'00000000'     ;66     is it output 1?
0157   1D03           00640         btfss   STATUS,Zbit     ;67     yes
0158   296E           00641         goto    t1b             ;68
0159   1C11           00642         btfss   CV514a,0        ;69     is this bit enabled?
015A   2970           00643         goto    t1c             ;70     no
015B   1D9D           00644         btfss   action,3        ;71     on or off
015C   2964           00645         goto    off1            ;72
015D   1406           00646         bsf     PORTB,0         ;73     F1a on
015E   019E           00647                 clrf    tick1           ;74
015F   01A0           00648                 clrf    time1           ;75     start timer   
0160   139D           00649         bcf     action,7        ;76     action done
0161   142D           00650                 bsf memo, 0                     ;77             store last output on
0162   0000           00651                 nop;                            ;78
0163   2980           00652                 goto    ret3            ;79
0164   1006           00653 off1    bcf     PORTB,0         ;74     F1a off
0165   139D           00654         bcf     action,7        ;75
0166   102D           00655         bcf memo,0                      ;76             store last output off
0167   0000           00656         nop;                            ;77
0168   2ABF           00657         goto    ret4            ;78
0169   0000           00658 t1a     nop                     ;65
016A   0000           00659         nop                     ;66
016B   0000           00660         nop                     ;67
016C   0000           00661         nop                     ;68
016D   0000           00662         nop                     ;69
016E   0000           00663 t1b     nop                     ;70
016F   0000           00664         nop                     ;71
0170   3002           00665 t1c     movlw   2       ;72     get CV515 time on
0171   0089           00666         movwf   EEARD           ;73
0172   1400           00667         bsf     f0,rd           ;74
0173   0808           00668         movf    EEDATA,w        ;75
0174   1903           00669         btfsc   STATUS,Zbit     ;76     if zero then always on
0175   297F           00670         goto    ret5            ;77
0176   1806           00671         btfsc   PORTB,0         ;78
0177   10AD           00672         bcf             memo,1          ;79 if time is not zero and the port is active we just want to k
                            eep in memo the last output of the couple swithed on
0178   0220           00673         subwf   time1,w         ;80     compare time
0179   1803           00674         btfsc   STATUS,Carry    ;81
017A   1006           00675         bcf     PORTB,0         ;82     time out so put off
017B   0000           00676         nop     ;83
017C   0008           00677         return  ;84
MPASM  5.20           DCCDECOMANOLO_V5_61.ASM   5-5-2008  20:13:29         PAGE 14


LOC  OBJECT CODE     LINE SOURCE TEXT
  VALUE

                      00678 
017D   297E           00679 ret13   goto    ret11                   ;71 29
017E   2915           00680 ret11   goto    ret9                    ;73 31
017F   2980           00681 ret5    goto    ret3                    ;79     37
0180   2981           00682 ret3    goto    ret1                    ;81     39
0181   0000           00683 ret1    nop                     ;83
0182   0008           00684 ret0    return                  ;84
                      00685 
                      00686 
                      00687 ;Count2 controls F1b
                      00688  
0183   1F9D           00689 count2  btfss   action,7        ;62     new action
0184   299A           00690         goto    t2a             ;63     no
0185   081D           00691         movf    action,w        ;64
0186   3907           00692         andlw   B'00000111'     ;65     mask
0187   3A01           00693         xorlw   B'00000001'     ;66     is it output 1b?
0188   1D03           00694         btfss   STATUS,Zbit     ;67     yes
0189   299F           00695         goto    t2b             ;68
018A   1C91           00696         btfss   CV514a,1        ;69     is this bit enabled?
018B   29A1           00697         goto    t2c             ;70     no
018C   1D9D           00698         btfss   action,3        ;71     on or off
018D   2995           00699         goto    off2            ;72
018E   1486           00700         bsf     PORTB,1         ;73     F1b on
018F   019E           00701         clrf    tick1           ;74
0190   01A1           00702         clrf    time2           ;75     start timer   
0191   139D           00703         bcf     action,7        ;76     action done
0192   14AD           00704                 bsf memo, 1                     ;77             store last output on
0193   0000           00705                 nop;                            ;78
0194   2980           00706                 goto    ret3            ;79
0195   1086           00707 off2    bcf     PORTB,1         ;74     F1b off
0196   139D           00708         bcf     action,7        ;75
0197   10AD           00709         bcf memo,1                      ;76             store last output off
0198   0000           00710         nop;                            ;77
0199   2ABF           00711         goto    ret4            ;78
019A   0000           00712 t2a     nop                     ;65
019B   0000           00713         nop                     ;66
019C   0000           00714         nop                     ;67
019D   0000           00715         nop                     ;68
019E   0000           00716         nop                     ;69
019F   0000           00717 t2b     nop                     ;70
01A0   0000           00718         nop                     ;71
01A1   3002           00719 t2c     movlw   2               ;72     get CV515 time on
01A2   0089           00720         movwf   EEARD           ;73
01A3   1400           00721         bsf     f0,rd           ;74
01A4   0808           00722         movf    EEDATA,w        ;75
01A5   1903           00723         btfsc   STATUS,Zbit     ;76     if zero then always on
01A6   297F           00724         goto    ret5            ;77
01A7   1886           00725         btfsc   PORTB,1         ;78
01A8   102D           00726         bcf             memo,0          ;79 if time is not zero we just ant to keep i n memo the last ou
                            tput of the couple swithed on
01A9   0221           00727         subwf   time2,w         ;80     compare time
01AA   1803           00728         btfsc   STATUS,Carry    ;81
01AB   1086           00729         bcf     PORTB,1         ;82     time out so put off
MPASM  5.20           DCCDECOMANOLO_V5_61.ASM   5-5-2008  20:13:29         PAGE 15


LOC  OBJECT CODE     LINE SOURCE TEXT
  VALUE

01AC   0000           00730         nop     ;83
01AD   0008           00731         return ;84
                      00732 
                      00733 ;Count3 controls F2a
                      00734 
01AE   1F9D           00735 count3  btfss   action,7        ;62     new action
01AF   29C5           00736         goto    t3a             ;63     no
01B0   081D           00737         movf    action,w        ;64
01B1   3907           00738         andlw   B'00000111'     ;65     mask
01B2   3A02           00739         xorlw   B'00000010'    ;66      is it output 2a?
01B3   1D03           00740         btfss   STATUS,Zbit     ;67     yes
01B4   29CA           00741         goto    t3b             ;68
01B5   1D11           00742         btfss   CV514a,2        ;69     is this bit enabled?
01B6   29CC           00743         goto    t3c             ;70     no
01B7   1D9D           00744         btfss   action,3        ;71     on or off
01B8   29C0           00745         goto    off3            ;72
                      00746 ;        bsf    PORTA,2         ;73     F2a on
01B9   1506           00747         bsf     PORTB,2         ;73     F2a on
01BA   019E           00748         clrf    tick1           ;74
01BB   01A2           00749         clrf    time3           ;75     start timer   
01BC   139D           00750         bcf     action,7        ;76     action done
01BD   152D           00751                 bsf memo, 2                     ;77             store last output on
01BE   0000           00752                 nop;                            ;78
01BF   2980           00753                 goto    ret3            ;79
                      00754 ;off3   bcf     PORTA,2         ;74     F2a off
01C0   1106           00755 off3    bcf     PORTB,2         ;74     F2a off
01C1   139D           00756         bcf     action,7        ;75
01C2   112D           00757         bcf memo,2                      ;76             store last output off
01C3   0000           00758         nop;                            ;77
01C4   2ABF           00759         goto    ret4            ;78
01C5   0000           00760 t3a     nop                     ;65
01C6   0000           00761         nop                     ;66
01C7   0000           00762         nop                     ;67
01C8   0000           00763         nop                     ;68
01C9   0000           00764         nop                     ;69
01CA   0000           00765 t3b     nop                     ;70
01CB   0000           00766         nop                     ;71
01CC   3003           00767 t3c     movlw   3               ;72     get CV516 time on
01CD   0089           00768         movwf   EEARD           ;73
01CE   1400           00769         bsf     f0,rd           ;74
01CF   0808           00770         movf    EEDATA,w        ;75
01D0   1903           00771         btfsc   STATUS,Zbit     ;76     if zero then always on
01D1   297F           00772         goto    ret5            ;77
01D2   1906           00773         btfsc   PORTB,2         ;78
01D3   11AD           00774         bcf             memo,3          ;79 if time is not zero we just ant to keep i n memo the last ou
                            tput of the couple swithed on
01D4   0222           00775         subwf   time3,w         ;80     compare time
01D5   1803           00776         btfsc   STATUS,Carry    ;81
01D6   1106           00777         bcf     PORTB,2         ;82     time out so put off
01D7   0000           00778         nop     ;83
01D8   0008           00779         return ;84
                      00780 ;Count4 controls F2b
                      00781 
MPASM  5.20           DCCDECOMANOLO_V5_61.ASM   5-5-2008  20:13:29         PAGE 16


LOC  OBJECT CODE     LINE SOURCE TEXT
  VALUE

01D9   1F9D           00782 count4  btfss   action,7        ;62     new action
01DA   29F0           00783         goto    t4a             ;63     no
01DB   081D           00784         movf    action,w        ;64
01DC   3907           00785         andlw   B'00000111'     ;65     mask
01DD   3A03           00786         xorlw   B'00000011'     ;66     is it output F2b?
01DE   1D03           00787         btfss   STATUS,Zbit     ;67     yes
01DF   29F5           00788         goto    t4b             ;68
01E0   1D91           00789         btfss   CV514a,3        ;69     is this bit enabled?
01E1   29F7           00790         goto    t4c             ;70     no
01E2   1D9D           00791         btfss   action,3        ;71     on or off
01E3   29EB           00792         goto    off4            ;72
01E4   1586           00793         bsf     PORTB,3         ;73     F2b on
01E5   019E           00794         clrf    tick1           ;74
01E6   01A3           00795         clrf    time4           ;75     start timer   
01E7   139D           00796         bcf     action,7        ;76     action done
01E8   15AD           00797                 bsf memo, 3                     ;77             store last output on
01E9   0000           00798                 nop;                            ;78
01EA   2980           00799                 goto    ret3            ;79
01EB   1186           00800 off4    bcf     PORTB,3         ;74     F2b off
01EC   139D           00801         bcf     action,7        ;75
01ED   11AD           00802         bcf memo,3                      ;76             store last output off
01EE   0000           00803         nop;                            ;77
01EF   2ABF           00804         goto    ret4            ;78
01F0   0000           00805 t4a     nop                     ;65
01F1   0000           00806         nop                     ;66
01F2   0000           00807         nop                     ;67
01F3   0000           00808         nop                     ;68
01F4   0000           00809         nop                     ;69
01F5   0000           00810 t4b     nop                     ;70
01F6   0000           00811         nop                     ;71
01F7   3003           00812 t4c     movlw   3               ;72     get CV516 time on
01F8   0089           00813         movwf   EEARD           ;73
01F9   1400           00814         bsf     f0,rd           ;74
01FA   0808           00815         movf    EEDATA,w        ;75
01FB   1903           00816         btfsc   STATUS,Zbit     ;76     if zero then always on
01FC   297F           00817         goto    ret5            ;77
01FD   1986           00818         btfsc   PORTB,3         ;78
01FE   112D           00819         bcf             memo,2          ;79 if time is not zero we just ant to keep i n memo the last ou
                            tput of the couple swithed on
01FF   0223           00820         subwf   time4,w         ;80     compare time
0200   1803           00821         btfsc   STATUS,Carry    ;81
0201   1186           00822         bcf     PORTB,3         ;82     time out so put off
0202   0000           00823         nop     ;83
0203   0008           00824         return ;84
                      00825 
                      00826 ;Count5 controls output F3a
                      00827 
0204   1F9D           00828 count5  btfss   action,7        ;62     new action
0205   2A1B           00829         goto    t5a             ;63     no
0206   081D           00830         movf    action,w        ;64
0207   3907           00831         andlw   B'00000111'     ;65     mask
0208   3A04           00832         xorlw   B'00000100'     ;66     is it output F3a?
0209   1D03           00833         btfss   STATUS,Zbit     ;67     yes
MPASM  5.20           DCCDECOMANOLO_V5_61.ASM   5-5-2008  20:13:29         PAGE 17


LOC  OBJECT CODE     LINE SOURCE TEXT
  VALUE

020A   2A20           00834         goto    t5b             ;68
020B   1E11           00835         btfss   CV514a,4        ;69     is this bit enabled?
020C   2A22           00836         goto    t5c             ;70     no
020D   1D9D           00837         btfss   action,3        ;71     on or off
020E   2A16           00838         goto    off5            ;72
020F   1606           00839         bsf     PORTB,4         ;73     F3a on
0210   019E           00840         clrf    tick1           ;74
0211   01A4           00841         clrf    time5           ;75     start timer   
0212   139D           00842         bcf     action,7        ;76     action done
0213   162D           00843                 bsf memo, 4                     ;77             store last output on
0214   0000           00844                 nop;                            ;78
0215   2980           00845                 goto    ret3            ;79
0216   1206           00846 off5    bcf     PORTB,4         ;74     F3a off
0217   139D           00847         bcf     action,7        ;75
0218   122D           00848         bcf memo,4                      ;76             store last output off
0219   0000           00849         nop;                            ;77
021A   2ABF           00850         goto    ret4            ;78
021B   0000           00851 t5a     nop                     ;65
021C   0000           00852         nop                     ;66
021D   0000           00853         nop                     ;67
021E   0000           00854         nop                     ;68
021F   0000           00855         nop                     ;69
0220   0000           00856 t5b     nop                     ;70
0221   0000           00857         nop                     ;71
0222   3004           00858 t5c     movlw   4               ;72     get CV517 time on
0223   0089           00859         movwf   EEARD           ;73
0224   1400           00860         bsf     f0,rd           ;74
0225   0808           00861         movf    EEDATA,w        ;75
0226   1903           00862         btfsc   STATUS,Zbit     ;76     if zero then always on
0227   297F           00863         goto    ret5            ;77
0228   1A06           00864         btfsc   PORTB,4         ;78
0229   12AD           00865         bcf             memo,5          ;79 if time is not zero we just ant to keep i n memo the last ou
                            tput of the couple swithed on
022A   0224           00866         subwf   time5,w         ;80     compare time
022B   1803           00867         btfsc   STATUS,Carry    ;81
022C   1206           00868         bcf     PORTB,4         ;82     time out so put off
022D   0000           00869         nop;83
022E   0008           00870         return;84
                      00871 
                      00872 
                      00873 ;Count6 controls the output F3b
                      00874 
022F   1F9D           00875 count6  btfss   action,7        ;62     new action
0230   2A46           00876         goto    t6a             ;63     no
0231   081D           00877         movf    action,w        ;64
0232   3907           00878         andlw   B'00000111'     ;65     mask
0233   3A05           00879         xorlw   B'00000101'     ;66     is it output F3b?
0234   1D03           00880         btfss   STATUS,Zbit     ;67     yes
0235   2A4B           00881         goto    t6b             ;68
0236   1E91           00882         btfss   CV514a,5        ;69     is this bit enabled?
0237   2A4D           00883         goto    t6c             ;70     no
0238   1D9D           00884         btfss   action,3        ;71     on or off
0239   2A41           00885         goto    off6            ;72
MPASM  5.20           DCCDECOMANOLO_V5_61.ASM   5-5-2008  20:13:29         PAGE 18


LOC  OBJECT CODE     LINE SOURCE TEXT
  VALUE

023A   1686           00886         bsf     PORTB,5         ;73     F3b on
023B   019E           00887         clrf    tick1           ;74
023C   01A5           00888         clrf    time6           ;75     start timer   
023D   139D           00889         bcf     action,7        ;76     action done
023E   16AD           00890                 bsf memo, 5                     ;77             store last output on
023F   0000           00891                 nop;                            ;78
0240   2980           00892                 goto    ret3            ;79
0241   1286           00893 off6    bcf     PORTB,5         ;74     F3b off
0242   139D           00894         bcf     action,7        ;75
0243   12AD           00895         bcf memo,5                      ;76             store last output off
0244   0000           00896         nop;                            ;77
0245   2ABF           00897         goto    ret4            ;78
0246   0000           00898 t6a     nop                     ;65
0247   0000           00899         nop                     ;66
0248   0000           00900         nop                     ;67
0249   0000           00901         nop                     ;68
024A   0000           00902         nop                     ;69
024B   0000           00903 t6b     nop                     ;70
024C   0000           00904         nop                     ;71
024D   3004           00905 t6c     movlw   4               ;72     get CV517 time on
024E   0089           00906         movwf   EEARD           ;73
024F   1400           00907         bsf     f0,rd           ;74
0250   0808           00908         movf    EEDATA,w        ;75
0251   1903           00909         btfsc   STATUS,Zbit     ;76     if zero then always on
0252   297F           00910         goto    ret5            ;77
0253   1A86           00911         btfsc   PORTB,5         ;78
0254   122D           00912         bcf             memo,4          ;79 if time is not zero we just ant to keep i n memo the last ou
                            tput of the couple swithed on
0255   0225           00913         subwf   time6,w         ;80     compare time
0256   1803           00914         btfsc   STATUS,Carry    ;81
0257   1286           00915         bcf     PORTB,5         ;82     time out so put off
0258   0000           00916         nop;83
0259   0008           00917         return;84
                      00918 
                      00919 ;Count7 controls output F4a
                      00920 
025A   1F9D           00921 count7  btfss   action,7        ;62     new action
025B   2A71           00922         goto    t7a             ;63     no
025C   081D           00923         movf    action,w        ;64
025D   3907           00924         andlw   B'00000111'     ;65     mask
025E   3A06           00925         xorlw   B'00000110'     ;66     is it output F4a?
025F   1D03           00926         btfss   STATUS,Zbit     ;67     yes
0260   2A76           00927         goto    t7b             ;68
0261   1F11           00928         btfss   CV514a,6        ;69     is this bit enabled?
0262   2A78           00929         goto    t7c             ;70     no
0263   1D9D           00930         btfss   action,3        ;71     on or off
0264   2A6C           00931         goto    off7            ;72
0265   1706           00932         bsf     PORTB,6         ;73     F4a on
0266   019E           00933                 clrf    tick1           ;74
0267   01A6           00934                 clrf    time7           ;75     start timer   
0268   139D           00935         bcf     action,7        ;76     action done
0269   172D           00936                 bsf memo, 6                     ;77             store last output on
026A   0000           00937                 nop;                            ;78
MPASM  5.20           DCCDECOMANOLO_V5_61.ASM   5-5-2008  20:13:29         PAGE 19


LOC  OBJECT CODE     LINE SOURCE TEXT
  VALUE

026B   2980           00938                 goto    ret3            ;79
026C   1306           00939 off7    bcf     PORTB,6         ;74     F4a off
026D   139D           00940         bcf     action,7        ;75
026E   132D           00941         bcf memo,6                      ;76             store last output off
026F   0000           00942         nop;                            ;77
0270   2ABF           00943         goto    ret4            ;78
0271   0000           00944 t7a     nop                     ;65
0272   0000           00945         nop                     ;66
0273   0000           00946         nop                     ;67
0274   0000           00947         nop                     ;68
0275   0000           00948         nop                     ;69
0276   0000           00949 t7b     nop                     ;70
0277   0000           00950         nop                     ;71
0278   3005           00951 t7c     movlw   5               ;72     get CV518 time on
0279   0089           00952         movwf   EEARD           ;73
027A   1400           00953         bsf     f0,rd           ;74
027B   0808           00954         movf    EEDATA,w        ;75
027C   1903           00955         btfsc   STATUS,Zbit     ;76     if zero then always on
027D   297F           00956         goto    ret5            ;77
027E   1B06           00957         btfsc   PORTB,6         ;78
027F   13AD           00958         bcf             memo,7          ;79 if time is not zero we just ant to keep i n memo the last ou
                            tput of the couple swithed on
0280   0226           00959         subwf   time7,w         ;80     compare time
0281   1803           00960         btfsc   STATUS,Carry    ;81
0282   1306           00961         bcf     PORTB,6         ;82     time out so put off
0283   0000           00962         nop;83
0284   0008           00963         return;84
                      00964 
                      00965 ;Count8 controls output F4b
                      00966 
0285   1F9D           00967 count8  btfss   action,7        ;62     new action
0286   2A9C           00968         goto    t8a             ;63     no
0287   081D           00969         movf    action,w        ;64
0288   3907           00970         andlw   B'00000111'     ;65     mask
0289   3A07           00971         xorlw   B'00000111'     ;66     is it output F4b?
028A   1D03           00972         btfss   STATUS,Zbit     ;67     yes
028B   2AA1           00973         goto    t8b             ;68
028C   1F91           00974         btfss   CV514a,7        ;69     is this bit enabled?
028D   2AA3           00975         goto    t8c             ;70     no
028E   1D9D           00976         btfss   action,3        ;71     on or off
028F   2A97           00977         goto    off8            ;72
0290   1786           00978         bsf     PORTB,7         ;73     F4b on
0291   019E           00979         clrf    tick1           ;74
0292   01A7           00980         clrf    time8           ;75     start timer   
0293   139D           00981         bcf     action,7        ;76     action done
0294   17AD           00982                 bsf memo, 7                     ;77             store last output on
0295   0000           00983                 nop;                            ;78
0296   2980           00984                 goto    ret3            ;79
0297   1386           00985 off8    bcf     PORTB,7         ;74     F4b off
0298   139D           00986         bcf     action,7        ;75
0299   13AD           00987         bcf memo,7                      ;76             store last output off
029A   0000           00988         nop;                            ;77
029B   2ABF           00989         goto    ret4            ;78
MPASM  5.20           DCCDECOMANOLO_V5_61.ASM   5-5-2008  20:13:29         PAGE 20


LOC  OBJECT CODE     LINE SOURCE TEXT
  VALUE

029C   0000           00990 t8a     nop                     ;65
029D   0000           00991         nop                     ;66
029E   0000           00992         nop                     ;67
029F   0000           00993         nop                     ;68
02A0   0000           00994         nop                     ;69
02A1   0000           00995 t8b     nop                     ;70
02A2   0000           00996         nop                     ;71
02A3   3005           00997 t8c     movlw   5               ;72     get CV518 time on
02A4   0089           00998         movwf   EEARD           ;73
02A5   1400           00999         bsf     f0,rd           ;74
02A6   0808           01000         movf    EEDATA,w        ;75
02A7   1903           01001         btfsc   STATUS,Zbit     ;76     if zero then always on
02A8   297F           01002         goto    ret5            ;77
02A9   1B86           01003         btfsc   PORTB,7         ;78
02AA   132D           01004         bcf             memo,6          ;79 if time is not zero we just ant to keep i n memo the last ou
                            tput of the couple swithed on
02AB   0227           01005         subwf   time8,w         ;80     compare time
02AC   1803           01006         btfsc   STATUS,Carry    ;81
02AD   1386           01007         bcf     PORTB,7         ;82     time out so put off
02AE   0000           01008         nop     ;83
02AF   0008           01009         return ;84
                      01010 
                      01011     
02B0   2980           01012 ret7    goto    ret3                            ;77     35
02B1   2ABF           01013 ret6    goto    ret4            ;78
                      01014 
                      01015 
                      01016 ;Additional goto sequences.
                      01017 
02B2   2AB3           01018 ret27   goto    ret25           ;15 
02B3   2AB5           01019 ret25   goto    ret23           ;17
                      01020 ;ret24   goto    ret22                          ;58
02B4   2AB7           01021 ret22   goto    ret20                   ;62
02B5   2AB6           01022 ret23   goto    ret21           ;19
                      01023                                 ;20 62          NO ENTIENDO
02B6   2AB8           01024 ret21   goto    ret19           ;21 63
02B7   2AB9           01025 ret20   goto    ret18           ;22 64
02B8   2ABA           01026 ret19   goto    ret17           ;23 65
02B9   2851           01027 ret18   goto    ret16           ;24 66
02BA   2ABB           01028 ret17   goto    ret15           ;25 67
02BB   297D           01029 ret15   goto    ret13           ;27 69
02BC   2ABD           01030 ret14   goto    ret12           ;28 70
02BD   28C6           01031 ret12   goto    ret10           ;30 72
02BE   2AB1           01032 ret8    goto    ret6            ;34 76
02BF   28BD           01033 ret4    goto    ret2                    ;80
                      01034 
                      01035 
                      01036 ; ********************************************************************************
                      01037 ; ********************************************************************************
                      01038 ; ********************************************************************************
                      01039 ; ********************************************************************************
                      01040 
                      01041 ;CVservOPS checks/WRites for servOPS mode instructions with the decoder in 
MPASM  5.20           DCCDECOMANOLO_V5_61.ASM   5-5-2008  20:13:29         PAGE 21


LOC  OBJECT CODE     LINE SOURCE TEXT
  VALUE

                      01042 ;servOPS mode. If the CV number in data2 is 06h (CV519), 07h (CV520)or 
                      01043 ;1Ch (CV541), then the WRite does not take place.
                      01044 
02C0                  01045 CVservOPS
                      01046         ;        btfss   configu,byte5
                      01047         ;        return
02C0   1E0C           01048         btfss   addcfg,servOPS  ;
02C1   0008           01049         return                  ;
02C2   01AA           01050         clrf    n
02C3   230D           01051         call    Twonrow         ; check two identical packets
02C4   3800           01052         iorlw   0x00            ; check two identical packets
02C5   1903           01053         btfsc   STATUS,Zbit     ; check two identical packets
02C6   0008           01054         return                  ; check two identical packets
02C7   0814           01055         movf    data2,W
02C8   3903           01056         andlw   B'00000011'     ; at least CV513 !
02C9   3A02           01057         xorlw   B'00000010'     ; at least CV513 !
02CA   1D03           01058         btfss   STATUS,Zbit     ; at least CV513 !
02CB   0008           01059         return                  ; nothing done
02CC   0815           01060         movf    data3,W         ;addresses start at 0
02CD   3A06           01061         xorlw   0x06            ; CV519    CV520   CV541
02CE   1903           01062         btfsc   STATUS,Zbit     ;00000110 00000111 00011100
02CF   0008           01063         return  ; got 519       ;00000110 00000110 00000110 XOR 0x06=00000110  
02D0   3A01           01064         xorlw   0x01            ;00000000 00000001 00011010
02D1   1903           01065         btfsc   STATUS,Zbit     ;         00000001 00000001 XOR 0x01=00000010
02D2   0008           01066         return  ; got 520       ;         00000000 00011011 
02D3   3A1B           01067         xorlw   0x1B            ;                  00011011 XOR 0x1B=00011011
02D4   1903           01068         btfsc   STATUS,Zbit     ;                  00000000
02D5   0008           01069         return  ; got 541       ;
02D6   0815           01070         movf    data3,W         ;addresses start at 0   
02D7   3C1F           01071         sublw   0x1F            ;only CVs 513(0x00) to 542(0x1D)
02D8   1C03           01072         btfss   STATUS,Carry
02D9   0008           01073         return
                      01074 ; all ok, now WRite EEARD as data3  EEDATA as data4
02DA   0815           01075         movfw   data3           ;
02DB   0089           01076         movwf   EEARD           ;
02DC   0816           01077         movfw   data4           ; 
02DD   0088           01078         movwf   EEDATA          ;
02DE   2376           01079         call    EEWRit2         ;
02DF   120C           01080         bcf     addcfg,servOPS  ;
02E0   235F           01081         call    Ackn            ;
02E1   0008           01082         return                  ; WRITTEN OPS !!!!
                      01083 
                      01084 ;CVserv checks for servTRK mode instructions with the decoder in servTRK
                      01085 ;mode. It then checks values of data1, data2, data3 and data4 with previous
                      01086 ;values to ensure a duplicate packet has been sent. It then checks for
                      01087 ;three or four byte packet to determine paged or direct CV access. 
                      01088 
02E2   1D0D           01089 CVserv  btfss   configu,byte5    ;40
02E3   1D8D           01090         btfss   configu,servTRK  ;41
02E4   0008           01091         return                  ;42
02E5   01AA           01092         clrf    n
02E6   0000           01093         nop
02E7   230D           01094         call    Twonrow
MPASM  5.20           DCCDECOMANOLO_V5_61.ASM   5-5-2008  20:13:29         PAGE 22


LOC  OBJECT CODE     LINE SOURCE TEXT
  VALUE

02E8   3800           01095         iorlw   0x00
02E9   1903           01096         btfsc   STATUS,Zbit
02EA   0008           01097         return
02EB   1C8D           01098         btfss   configu,byte4
02EC   287E           01099         goto    CVpage
02ED   0813           01100         movf    data1,w
02EE   3A76           01101         xorlw   0x76    ; [gi] DIR Mode cmd: 0111CCAA where AA=10 for CV >512
02EF   1903           01102         btfsc   STATUS,Zbit
02F0   2B41           01103         goto    Ver1dir ; [gi] data2 contains offset in EEDATA
02F1   3A08           01104         xorlw   0x08
02F2   1D03           01105         btfss   STATUS,Zbit
02F3   0008           01106         return
02F4   2AF6           01107         goto    WR1dir  ; [gi] data2 contains offset in EEDATA
                      01108         
                      01109 ;WR1 WRites the data in data3 into the CV listed in data2. If the CV
                      01110 ;number in data2 is 06h (CV519), 07h (CV520)or 1Ch (CV541), then the WRite
                      01111 ;does not take place.
                      01112 
02F5   0394           01113 WR1     decf    data2,f                 ; [gi] Jump Target for PageMode (data2=CV#)
02F6   0815           01114 WR1dir  movf    data3,w                 ; [gi] data2 now contains offset in EEDATA. 
02F7   0088           01115         movwf   EEDATA      
02F8   0814           01116         movf    data2,w                                  ;addresses start at 0       
02F9   3A06           01117         xorlw   0x06                    ;  CV519   CV520        CV521     CV541
02FA   1903           01118         btfsc   STATUS,Zbit             ;00000110 00000111 00001000     00011100
02FB   0008           01119         return                          ;00000110 00000110 00000110     00000110
02FC   3A01           01120         xorlw   0x01                    ;00000000 00000001 00001111     00011010
02FD   1903           01121         btfsc   STATUS,Zbit             ;         00000001 00000001     00000001
02FE   0008           01122         return                          ;         00000000 00001110     00011011
02FF   3A1B           01123         xorlw   0x1B                    ;                                       00011011
0300   1903           01124         btfsc   STATUS,Zbit             ;                                       00000000
0301   2B06           01125         goto    WRcon1
0302   3009           01126 WRcont  movlw   09h                     ;only CVs 513(1) to 521(9)
0303   0214           01127         subwf   data2,w
0304   1803           01128         btfsc   STATUS,Carry
0305   0008           01129         return
0306   0814           01130 WRcon1  movf    data2,w
0307   0089           01131         movwf   EEARD
0308   0064           01132         clrwdt
0309   1683           01133         bsf     STATUS,RP0
Message[302]: Register in operand not in bank 0.  Ensure that bank bits are correct.
030A   1508           01134         bsf     EECON1,WREN
030B   236C           01135         call    EEWRite
030C   2B5F           01136         goto    Ackn
                      01137 
                      01138 ;Two in a row checks that the current packet is the second identical packet
                      01139 ;before performing a servTRK mode instruction or Advanced programming
                      01140 ;function.
                      01141 
030D   0813           01142 Twonrow movf    data1,w        
030E   0619           01143         xorwf   lastd1,w
030F   1D03           01144         btfss   STATUS,Zbit
0310   2B1D           01145         goto    Lastpak
0311   0814           01146         movf    data2,w
MPASM  5.20           DCCDECOMANOLO_V5_61.ASM   5-5-2008  20:13:29         PAGE 23


LOC  OBJECT CODE     LINE SOURCE TEXT
  VALUE

0312   061A           01147         xorwf   lastd2,w
0313   1D03           01148         btfss   STATUS,Zbit
0314   2B1D           01149         goto    Lastpak
0315   0815           01150         movf    data3,w
0316   061B           01151         xorwf   lastd3,w
0317   1D03           01152         btfss   STATUS,Zbit
0318   2B1D           01153         goto    Lastpak
0319   0816           01154         movf    data4,w
031A   061C           01155         xorwf   lastd4,w
031B   1903           01156         btfsc   STATUS,Zbit
031C   34FF           01157         retlw   0xFF
                      01158 
                      01159 ;Lastpak saves the packet byte values to check for a repeated packet,
                      01160 ;necessary to execute a servTRK mode instruction.
                      01161 
031D   0813           01162 Lastpak movf    data1,w
031E   0099           01163         movwf   lastd1
031F   0814           01164         movf    data2,w
0320   009A           01165         movwf   lastd2
0321   0815           01166         movf    data3,w
0322   009B           01167         movwf   lastd3
0323   0816           01168         movf    data4,w
0324   009C           01169         movwf   lastd4
0325   3400           01170         retlw   0x00                 
                      01171 
                      01172 ;CV541s sets data2 to 1Ch (28).    
                      01173 
0326   301C           01174 CV541s  movlw   0x1C
0327   0094           01175         movwf   data2
0328   2B33           01176         goto    CVcont
                      01177 
                      01178 ;CVfind determines the CV using the page register and the offset in the
                      01179 ;instruction. If the page is less than 128 then no action is taken as it
                      01180 ;is not an accessory CV. 
                      01181 
0329   0328           01182 CVfind  decf    pagereg,w
032A   0094           01183         movwf   data2
032B   1003           01184         bcf     STATUS,Carry
032C   0D94           01185         rlf     data2,f
032D   1C03           01186         btfss   STATUS,Carry            ;page must be 80h or more
032E   0008           01187         return
032F   0D94           01188         rlf     data2,f
                      01189         
0330   3003           01190         movlw   0x03
0331   0513           01191         andwf   data1,w
0332   0794           01192         addwf   data2,f
0333   1D93           01193 CVcont  btfss   data1,3
0334   2B40           01194         goto    Ver1
0335   2AF5           01195         goto    WR1
                      01196 
                      01197 ;CVpgreg verifies or WRites the page register with data3 (data2).
                      01198 
0336   1D93           01199 CVpgreg btfss   data1,3
MPASM  5.20           DCCDECOMANOLO_V5_61.ASM   5-5-2008  20:13:29         PAGE 24


LOC  OBJECT CODE     LINE SOURCE TEXT
  VALUE

0337   2B3B           01200         goto    Pagever
0338   0815           01201         movf    data3,w
0339   00A8           01202         movwf   pagereg
033A   0008           01203         return
                      01204 
033B   0828           01205 Pagever movf    pagereg,w                        
033C   0615           01206         xorwf   data3,w                            
033D   1D03           01207         btfss   STATUS,Zbit
033E   0008           01208         return
033F   2B5F           01209         goto    Ackn
                      01210         
                      01211 ;CVverfy XORs the EE value at data2 with the value in data3.
                      01212 ;only CV 513 to 521 and 541 will verify. 
                      01213 
0340   0394           01214 Ver1    decf    data2,f         ; [gi] Jump Target for PageMode (data2=CV#)
                      01215                                 ; [gi] data2 now contains offset in EEDATA
                      01216 
0341   301C           01217 Ver1dir movlw   1Ch             ;is it CV541
0342   0614           01218         xorwf   data2,w
0343   1903           01219         btfsc   STATUS,Zbit
0344   2B49           01220         goto    ver2
0345   3009           01221         movlw   09h             ;only CVs 513(1) to 521(9)
0346   0214           01222         subwf   data2,w
0347   1803           01223         btfsc   STATUS,Carry
0348   0008           01224         return
0349   0814           01225 ver2    movf    data2,w         ;CVs address directly        
034A   0089           01226         movwf   EEARD
034B   237F           01227         call    EEread
034C   0615           01228         xorwf   data3,w
034D   1D03           01229         btfss   STATUS,Zbit
034E   0008           01230         return
034F   2B5F           01231         goto    Ackn
                      01232 
0350   1D0D           01233 Dcontrl btfss   configu,byte5
0351   188D           01234         btfsc   configu,byte4
0352   0008           01235         return
0353   0814           01236         movf    data2,w
0354   1903           01237         btfsc   STATUS,Zbit
0355   2B5A           01238         goto    Dreset
0356   3A0E           01239         xorlw   0x0E
0357   1903           01240         btfsc   STATUS,Zbit
0358   2B5F           01241         goto    Ackn
0359   0008           01242         return
                      01243 
035A   019D           01244 Dreset  clrf    action          ;clear action
035B   1C8C           01245         btfss   addcfg,reset
035C   0008           01246         return
035D   158D           01247         bsf     configu,servTRK
035E   286E           01248         goto    Nextbyt
                      01249 
                      01250 
                      01251 
                      01252 ;Ackn sets ack output for 250ms (1024us X 250). 1024us is counted by
MPASM  5.20           DCCDECOMANOLO_V5_61.ASM   5-5-2008  20:13:29         PAGE 25


LOC  OBJECT CODE     LINE SOURCE TEXT
  VALUE

                      01253 ;bit 6 of rtcc register.Ack is used to flash the ack LED
                      01254 
035F   0064           01255 Ackn    clrwdt
                      01256  ;              bsf     PORTB,6         ;set ack line high
0360   1585           01257         bsf     PORTA, 3 ;set ack line high
0361   0181           01258         clrf    rtcc
0362   30FA           01259         movlw   .250          
0363   00AC           01260         movwf   temp
0364   1F01           01261 aloop   btfss   rtcc,6  ;6
0365   2B64           01262         goto    aloop
0366   1301           01263         bcf     rtcc,6  ;6
0367   0064           01264         clrwdt                          ;since the WDG reset the device each 18ms, we have to resert it 
                            to alow a 250ms count (It is no possible to use the preescaler since it is assigned to rtcc
0368   0BAC           01265                 decfsz  temp,f
0369   2B64           01266         goto    aloop
                      01267  ;       bcf    PORTB,6         ;set ack line low
036A   1185           01268         bcf     PORTA,3         ;set ack line low
                      01269  
036B   0008           01270       return
                      01271 
                      01272         
                      01273 
                      01274 ;Generic EE WRite subroutine that WRites EEDATA into EEARD. If the processor
                      01275 ;is busy with a previous WRite operation, the subroutine returns without
                      01276 ;WRiting. Inputs are EEARD and eeread.
                      01277 
036C   3055           01278 EEWRite movlw   0x55
Message[302]: Register in operand not in bank 0.  Ensure that bank bits are correct.
036D   0089           01279         movwf   EECON2
036E   30AA           01280         movlw   0xAA
Message[302]: Register in operand not in bank 0.  Ensure that bank bits are correct.
036F   0089           01281         movwf   EECON2
Message[302]: Register in operand not in bank 0.  Ensure that bank bits are correct.
0370   1488           01282         bsf     EECON1,WR
Message[302]: Register in operand not in bank 0.  Ensure that bank bits are correct.
0371   1888           01283 eeWRcon btfsc   EECON1,WR
0372   2B71           01284         goto    eeWRcon
Message[302]: Register in operand not in bank 0.  Ensure that bank bits are correct.
0373   1108           01285         bcf     EECON1,WREN
0374   1283           01286         bcf     STATUS,RP0
0375   0008           01287         return
                      01288 
0376   1683           01289 EEWRit2 bsf     STATUS,RP0      ;67     bank1
Message[302]: Register in operand not in bank 0.  Ensure that bank bits are correct.
0377   1508           01290         bsf     EECON1,WREN     ;68     enable WRite
0378   3055           01291         movlw   0x55            ;69
Message[302]: Register in operand not in bank 0.  Ensure that bank bits are correct.
0379   0089           01292         movwf   EECON2          ;70     WRite 55h
037A   30AA           01293         movlw   0xAA            ;71
Message[302]: Register in operand not in bank 0.  Ensure that bank bits are correct.
037B   0089           01294         movwf   EECON2          ;72     WRite AAh
Message[302]: Register in operand not in bank 0.  Ensure that bank bits are correct.
037C   1488           01295         bsf     EECON1,WR       ;73     set WE bit enable WRite
MPASM  5.20           DCCDECOMANOLO_V5_61.ASM   5-5-2008  20:13:29         PAGE 26


LOC  OBJECT CODE     LINE SOURCE TEXT
  VALUE

037D   1283           01296         bcf     STATUS,RP0      ;74     bank0
037E   0008           01297         return                  ;
                      01298 
                      01299 ;EEread uses the file selct register to read the data stored in the EE
                      01300 ;memory location pointed to by EEARD.
                      01301 
037F   1400           01302 EEread  bsf     f0,rd
0380   0808           01303         movf    EEDATA,w
0381   0008           01304 asmend  return
                      01305 
2100                  01306         ORG     0x2100  ;The absolue address 2100h is
                      01307                           ;mapped to the 0000 location of
                      01308                           ;EE data memory in PIC16Fxxx.
                      01309                           ;You can create a data or
                      01310                           ;character table starting from
                      01311                           ;any address in EE data memory
                      01312 ;        DATA    0x00   ;Cv513    
2100   0002           01313         DATA    0x02    ;Cv513  en memoria 0                    
2101   00FF           01314         DATA    0xFF    ;Cv514  en memoria 1                            
2102   0000           01315         DATA    0x00    ;Cv515  en memoria 2
2103   000A           01316         DATA    0x0A    ;Cv516  en memoria 3
2104   000A           01317         DATA    0x0A    ;Cv517  en memoria 4
2105   0000           01318         DATA    0x00    ;Cv518  en memoria 5
2106   0000           01319         DATA    0x00    ;               en memoria 6
2107   0000           01320         DATA    0x00    ;               en memoria 7
2108   0000           01321         DATA    0x00    ;               en memoria 8
2109   0000           01322         DATA    0x00    ;               en memoria 9
210A   0000           01323         DATA    0x00    ;               en memoria A
210B   0000           01324         DATA    0x00    ;               en memoria B
210C   0000           01325         DATA    0x00    ;               en memoria C
210D   0000           01326         DATA    0x00    ;               en memoria D
210E   0000           01327         DATA    0x00    ;               en memoria E
210F   0000           01328         DATA    0x00    ;               en memoria F
2110   0000           01329         DATA    0x00    ;               en memoria 10
2111   0000           01330         DATA    0x00    ;               en memoria 11
2112   0000           01331         DATA    0x00    ;               en memoria 12
2113   0000           01332         DATA    0x00    ;               en memoria 13
2114   0000           01333         DATA    0x00    ;               en memoria 14
2115   0000           01334         DATA    0x00    ;               en memoria 15
2116   0000           01335         DATA    0x00    ;               en memoria 16
2117   0000           01336         DATA    0x00    ;               en memoria 17
2118   0000           01337         DATA    0x00    ;               en memoria 18
2119   0000           01338         DATA    0x00    ;               en memoria 19
211A   0000           01339         DATA    0x00    ;               en memoria 1A
211B   0000           01340         DATA    0x00    ;               en memoria 1B
211C   0080           01341         DATA    0x80    ;               en memoria 1C
211D   0000           01342         DATA    0x00    ;               en memoria 1D
211E   0000           01343         DATA    0x00    ;               en memoria 1E
211F   0000           01344         DATA    0x00    ;               en memoria 1F
2120   0000           01345         DATA    0x00    ;               en memoria 20   MANOLO
2121   0055           01346         DATA    0x55    ;               en memoria 21   MANOLO memo
                      01347       
                      01348   END
MPASM  5.20           DCCDECOMANOLO_V5_61.ASM   5-5-2008  20:13:29         PAGE 27


SYMBOL TABLE
  LABEL                             VALUE 

Ackn                              0000035F
Bitset                            000000B7
CV513a                            0000000F
CV514a                            00000011
CV521a                            00000010
CV541a                            00000012
CV541s                            00000326
CVcont                            00000333
CVfind                            00000329
CVpage                            0000007E
CVpgreg                           00000336
CVserv                            000002E2
CVservOPS                         000002C0
Carry                             00000000
Conthi                            00000018
Contlo                            0000001F
Counter                           00000072
Dcontrl                           00000350
Decode                            00000063
Dreset                            0000035A
EEARD                             00000009
EECON1                            00000088
EECON2                            00000089
EEDATA                            00000008
EEWRit2                           00000376
EEWRite                           0000036C
EEread                            0000037F
End1                              000000D3
End2                              000000E9
End2b                             000000F9
End2c                             00000107
End3                              0000010A
End4                              00000116
End5                              00000122
Endx                              000000C7
F1                                00000005
F2                                00000005
F3                                00000006
F4                                00000006
GIE                               00000007
Getval                            00000025
Init                              00000000
Lastpak                           0000031D
Lastv                             000000BE
Nextbyt                           0000006E
PORTA                             00000005
PORTB                             00000006
Pagever                           0000033B
RP0                               00000005
Resetv                            0000006F
STATUS                            00000003
Starthi                           00000017
Startlo                           0000001E
MPASM  5.20           DCCDECOMANOLO_V5_61.ASM   5-5-2008  20:13:29         PAGE 28


SYMBOL TABLE
  LABEL                             VALUE 

Testlo                            000000A6
Twonrow                           0000030D
Update                            00000128
Ver1                              00000340
Ver1dir                           00000341
WR                                00000001
WR1                               000002F5
WR1dir                            000002F6
WREN                              00000002
WRcon1                            00000306
WRcont                            00000302
Waitlo                            0000009D
Waitn                             0000008B
Zbit                              00000002
__16F84A                          00000001
__DEBUG                           1
action                            0000001D
addcfg                            0000000C
aloop                             00000364
asmend                            00000381
brdcst                            00000002
busy                              0000014D
byte4                             00000001
byte5                             00000002
change                            0000002E
configu                           0000000D
count                             0000000E
count1                            00000152
count2                            00000183
count3                            000001AE
count4                            000001D9
count5                            00000204
count6                            0000022F
count7                            0000025A
count8                            00000285
data1                             00000013
data2                             00000014
data3                             00000015
data4                             00000016
data5                             00000017
ddra                              00000085
ddrb                              00000086
eeWRcon                           00000371
end3hi                            00000111
end4hi                            0000011D
endval                            00000018
endx1                             000000CC
endx2                             000000CF
f                                 00000001
f0                                00000000
fsr                               00000004
idle                              00000005
intcon                            0000000B
MPASM  5.20           DCCDECOMANOLO_V5_61.ASM   5-5-2008  20:13:29         PAGE 29


SYMBOL TABLE
  LABEL                             VALUE 

lastd1                            00000019
lastd2                            0000001A
lastd3                            0000001B
lastd4                            0000001C
lastv1                            000000C4
m                                 00000029
memo                              0000002D
n                                 0000002A
noacc                             0000006D
off1                              00000164
off2                              00000195
off3                              000001C0
off4                              000001EB
off5                              00000216
off6                              00000241
off7                              0000026C
off8                              00000297
optreg                            00000081
pagereg                           00000028
pc                                00000002
pclath                            0000000A
primary                           00000000
rd                                00000000
reset                             00000001
ret0                              00000182
ret1                              00000181
ret10                             000000C6
ret11                             0000017E
ret12                             000002BD
ret13                             0000017D
ret14                             000002BC
ret15                             000002BB
ret16                             00000051
ret17                             000002BA
ret18                             000002B9
ret19                             000002B8
ret2                              000000BD
ret20                             000002B7
ret21                             000002B6
ret22                             000002B4
ret23                             000002B5
ret25                             000002B3
ret27                             000002B2
ret3                              00000180
ret4                              000002BF
ret5                              0000017F
ret6                              000002B1
ret7                              000002B0
ret8                              000002BE
ret9                              00000115
rp1                               00000006
rtcc                              00000001
servOPS                           00000004
MPASM  5.20           DCCDECOMANOLO_V5_61.ASM   5-5-2008  20:13:29         PAGE 30


SYMBOL TABLE
  LABEL                             VALUE 

servTRK                           00000003
state                             0000002B
strmemo                           0000013D
t1a                               00000169
t1b                               0000016E
t1c                               00000170
t2a                               0000019A
t2b                               0000019F
t2c                               000001A1
t3a                               000001C5
t3b                               000001CA
t3c                               000001CC
t4a                               000001F0
t4b                               000001F5
t4c                               000001F7
t5a                               0000021B
t5b                               00000220
t5c                               00000222
t6a                               00000246
t6b                               0000024B
t6c                               0000024D
t7a                               00000271
t7b                               00000276
t7c                               00000278
t8a                               0000029C
t8b                               000002A1
t8c                               000002A3
temp                              0000002C
tick1                             0000001E
time1                             00000020
time2                             00000021
time3                             00000022
time4                             00000023
time5                             00000024
time6                             00000025
time7                             00000026
time8                             00000027
value                             00000000
ver2                              00000349
w                                 00000000


MEMORY USAGE MAP ('X' = Used,  '-' = Unused)

0000 : XXXXXXXXXXXXXXXX XXXXXXXXXXXXXXXX XXXXXXXXXXXXXXXX XXXXXXXXXXXXXXXX
0040 : XXXXXXXXXXXXXXXX XXXXXXXXXXXXXXXX XXXXXXXXXXXXXXXX XXXXXXXXXXXXXXXX
MPASM  5.20           DCCDECOMANOLO_V5_61.ASM   5-5-2008  20:13:29         PAGE 31


MEMORY USAGE MAP ('X' = Used,  '-' = Unused)


0080 : XXXXXXXXXXXXXXXX XXXXXXXXXXXXXXXX XXXXXXXXXXXXXXXX XXXXXXXXXXXXXXXX
00C0 : XXXXXXXXXXXXXXXX XXXXXXXXXXXXXXXX XXXXXXXXXXXXXXXX XXXXXXXXXXXXXXXX
0100 : XXXXXXXXXXXXXXXX XXXXXXXXXXXXXXXX XXXXXXXXXXXXXXXX XXXXXXXXXXXXXXXX
0140 : XXXXXXXXXXXXXXXX XXXXXXXXXXXXXXXX XXXXXXXXXXXXXXXX XXXXXXXXXXXXXXXX
0180 : XXXXXXXXXXXXXXXX XXXXXXXXXXXXXXXX XXXXXXXXXXXXXXXX XXXXXXXXXXXXXXXX
01C0 : XXXXXXXXXXXXXXXX XXXXXXXXXXXXXXXX XXXXXXXXXXXXXXXX XXXXXXXXXXXXXXXX
0200 : XXXXXXXXXXXXXXXX XXXXXXXXXXXXXXXX XXXXXXXXXXXXXXXX XXXXXXXXXXXXXXXX
0240 : XXXXXXXXXXXXXXXX XXXXXXXXXXXXXXXX XXXXXXXXXXXXXXXX XXXXXXXXXXXXXXXX
0280 : XXXXXXXXXXXXXXXX XXXXXXXXXXXXXXXX XXXXXXXXXXXXXXXX XXXXXXXXXXXXXXXX
02C0 : XXXXXXXXXXXXXXXX XXXXXXXXXXXXXXXX XXXXXXXXXXXXXXXX XXXXXXXXXXXXXXXX
0300 : XXXXXXXXXXXXXXXX XXXXXXXXXXXXXXXX XXXXXXXXXXXXXXXX XXXXXXXXXXXXXXXX
0340 : XXXXXXXXXXXXXXXX XXXXXXXXXXXXXXXX XXXXXXXXXXXXXXXX XXXXXXXXXXXXXXXX
0380 : XX-------------- ---------------- ---------------- ----------------
2000 : -------X-------- ---------------- ---------------- ----------------
2100 : XXXXXXXXXXXXXXXX XXXXXXXXXXXXXXXX XX-------------- ----------------

All other memory blocks unused.

Program Memory Words Used:   898
Program Memory Words Free:   126


Errors   :     0
Warnings :     0 reported,     0 suppressed
Messages :    19 reported,     0 suppressed

