:020000040000FA
:10000000831617308500003086008430810083120B
:10001000883084002130890000140808AD00860073
:10002000AE008B01AB01A901AA018D019D01252024
:10003000051D1E28A91FA90A2821182825200519F1
:100040001728A91FA90A28211F28AA0A2908031965
:100050006F286400A9010D10FD3E031C0D14031848
:10006000AA01E7302B070318AB012B0882078B2866
:100070009D28A628B728BE28B728BE28B728BE289E
:10008000B728BE28B728BE28B728BE28B728BE285C
:10009000B728C728D328E9280A2916292229AB011D
:1000A0000D1CAB2A0C0803197B291308140615062E
:1000B00016061706031DAE2A0C1AAF2A8C19D12A70
:1000C000AA018D110D121408E03903193F2B941F5A
:1000D0006D2814080F399D009D1708000800AB011A
:1000E000AA01A12A8E0A07300E058207512980290C
:1000F000A929D229FB29242A4D2A762A14089500F9
:10010000073013058207182B182B182B182B152BCB
:10011000252B08000800EC302A07031C7B29AB0ABA
:10012000950196018C01980101308900001408089E
:10013000910000000000000008000D1CAB0A003018
:100140008900001408088F008F17A02AAB0A0D1829
:10015000AB0108308900001408089000900D900D44
:10016000900D900D90097030900500000800AB0ACA
:1001700003100D180314970D15297F29AB0A0D1CC8
:10018000C428171CAB0115291718AB01AD2A0D1C8B
:10019000CC28171CAB09CF281718AB090000980A08
:1001A0001808AB077D290230AB00170893000D1823
:1001B000AB01130803198C14BF3A03190C1513086B
:1001C000FF3A03198C1613087F39903E03188C15DB
:1001D00008000230AB00170894000D18AB0114089A
:1001E0008C390C3A03190C168C1EF9281408031DBF
:1001F0008C1214087039031D0C110C14140870397A
:10020000100603190C1413080F06031908000C102C
:100210000C1208000D1811290230AB0017089500C8
:10022000AD2A1830AB008D100D119F2A0D181D2915
:100230000230AB0017089600AD2A1830AB008D14C1
:100240000D119F2AAB0A0D1CAB018D140D1515293C
:100250003F300102031C72289E0A810100000A300F
:100260001E02031CA32A9E01A00AA10AA20AA30A35
:10027000A40AA50AA60AA70A2D082E020319152901
:100280002D08AE00880021308900831608155530EE
:100290008900AA308900881488184C290811831213
:1002A0007F299D1F68291D080739003A031D6D2904
:1002B000111C6F299D1D632906149E01A0019D1329
:1002C0002D1400007D2906109D132D100000AE2A6C
:1002D00000000000000000000000000000000230EC
:1002E00089000014080803197C29AD1020020318A6
:1002F00006107F297B2915297D297E290000080009
:100300009D1F97291D080739013A031D9C29911C3F
:100310009E299D1D922986149E01A1019D13AD1455
:1003200000007D2986109D13AD100000AE2A00004C
:100330000000000000000000000000000230890002
:100340000014080803197C292D10210203188610B7
:100350007F299D1FC0291D080739023A031DC529A1
:10036000111DC7299D1DBB2906159E01A2019D13C4
:100370002D1500007D2906119D132D110000AE2AB8
:10038000000000000000000000000000000003303A
:1003900089000014080803197C29AD1122020318F2
:1003A00006117F299D1FE9291D080739033A031DFE
:1003B000EE29911DF0299D1DE42986159E01A301BA
:1003C0009D13AD1500007D2986119D13AD11000010
:1003D000AE2A000000000000000000000000000045
:1003E000033089000014080803197C292D11230209
:1003F000031886117F299D1F122A1D080739043A08
:10040000031D172A111E192A9D1D0D2A06169E016D
:10041000A4019D132D1600007D2906129D132D1297
:100420000000AE2A000000000000000000000000F4
:100430000000043089000014080803197C29AD125B
:100440002402031806127F299D1F3B2A1D08073925
:10045000053A031D402A911E422A9D1D362A861602
:100460009E01A5019D13AD1600007D2986129D13E6
:10047000AD120000AE2A00000000000000000000E5
:1004800000000000043089000014080803197C29CA
:100490002D122502031886127F299D1F642A1D082C
:1004A0000739063A031D692A111F6B2A9D1D5F2A11
:1004B00006179E01A6019D132D1700007D29061326
:1004C0009D132D130000AE2A000000000000000064
:1004D000000000000000053089000014080803191E
:1004E0007C29AD132602031806137F299D1F8D2A30
:1004F0001D080739073A031D922A911F942A9D1D52
:10050000882A86179E01A7019D13AD1700007D293B
:1005100086139D13AD130000AE2A000000000000FA
:1005200000000000000000000530890000140808E9
:1005300003197C292D132702031886137F297D298F
:10054000AE2AA22AA42AA62AA52AA72AA82AA92A24
:100550005128AA2A7A29AC2AC628A02ABD280C1E0E
:100560000800AA01FC220038031908001408033906
:10057000023A031D08001508063A03190800013A5B
:10058000031908001B3A0319080015081F3C031C37
:100590000800150889001608880065230C124E23F0
:1005A00008000D1D8D1D0800AA010000FC22003866
:1005B000031908008D1C7E281308763A0319302B86
:1005C000083A031D0800E52A94031508880014085A
:1005D000063A03190800013A031908001B3A0319E7
:1005E000F52A093014020318080014088900640071
:1005F000831608155B234E2B13081906031D0C2BBD
:1006000014081A06031D0C2B15081B06031D0C2BC2
:1006100016081C060319FF341308990014089A00E1
:1006200015089B0016089C0000341C309400222BF7
:10063000280394000310940D031C0800940D03304C
:1006400013059407931D2F2BE42A931D2A2B1508BD
:10065000A800080028081506031D08004E2B940367
:100660001C3014060319382B093014020318080033
:10067000140889006E231506031D08004E2B0D1D5E
:100680008D18080014080319492B0E3A03194E2B34
:1006900008009D018C1C08008D156E2864008515CE
:1006A0008101FA30AC00011F532B01136400AC0B25
:1006B000532B8511080055308900AA308900881411
:1006C0008818602B0811831208008316081555300E
:1006D0008900AA30890088148312080000140808D1
:0206E000080010
:02400E00F63F7B
:104200000200FF00000000000000000000000000AD
:10421000000000000000000000000000000000009E
:10422000000000000000000000000000000000008E
:1042300000000000000000008000000000000000FE
:04424000000000007A
:00000001FF
