:020000040000FA
:10000000831617308500003086008430810083120B
:10001000883084002130890000140808AD00860073
:10002000AE008B01AB01A901AA018D019D01252024
:10003000051D1E28A91FA90A2821182825200519F1
:100040001728A91FA90A28211F28AA0A2908031965
:100050006F286400A9010D10FD3E031C0D14031848
:10006000AA01E7302B070318AB012B0882078B2866
:100070009D28A628B728BE28B728BE28B728BE289E
:10008000B728BE28B728BE28B728BE28B728BE285C
:10009000B728C728D328E9280A2916292229AB011D
:1000A0000D1CA32A0C0803197A2913081406150637
:1000B00016061706031DA62A0C1AA72A8C19C92A88
:1000C000AA018D110D121408E0390319372B941F62
:1000D0006D2814080F399D009D1708000800AB011A
:1000E000AA01992A8E0A07300E05820751297F2915
:1000F000A729CF29F7291F2A472A6F2A1408950014
:10010000073013058207102B102B102B102B0D2BF3
:100110001D2B08000800EC302A07031C7A29AB0AC3
:10012000950196018C01980101308900001408089E
:10013000910000000000000008000D1CAB0A003018
:100140008900001408088F008F17982AAB0A0D1831
:10015000AB0108308900001408089000900D900D44
:10016000900D900D90097030900500000800AB0ACA
:1001700003100D180314970D15297E29AB0A0D1CC9
:10018000C428171CAB0115291718AB01A52A0D1C93
:10019000CC28171CAB09CF281718AB090000980A08
:1001A0001808AB077C290230AB00170893000D1824
:1001B000AB01130803198C14BF3A03190C1513086B
:1001C000FF3A03198C1613087F39903E03188C15DB
:1001D00008000230AB00170894000D18AB0114089A
:1001E0008C390C3A03190C168C1EF9281408031DBF
:1001F0008C1214087039031D0C110C14140870397A
:10020000100603190C1413080F06031908000C102C
:100210000C1208000D1811290230AB0017089500C8
:10022000A52A1830AB008D100D11972A0D181D2925
:100230000230AB0017089600A52A1830AB008D14C9
:100240000D11972AAB0A0D1CAB018D140D15152944
:100250003F300102031C72289E0A810100000A300F
:100260001E02031C9B2A9E01A00AA10AA20AA30A3D
:10027000A40AA50AA60AA70A2D082E020319152901
:100280002D08AE00880021308900831608155530EE
:100290008900AA308900881488184C290811831213
:1002A0007E299D1F68291D080739003A031D6D2905
:1002B000111C6F299D1D632906149E01A0019D1329
:1002C0002D1400007C2906109D132D100000A62A75
:1002D00000000000000000000000000000000230EC
:1002E00089000014080803197B292002031806104E
:1002F0007D297A2915297C297D29000008009D1F68
:1003000096291D080739013A031D9B29911C9D2937
:100310009D1D912986149E01A1019D13AD1400001D
:100320007C2986109D13AD100000A62A0000000055
:1003300000000000000000000000023089000014EE
:10034000080803197B292102031886107D299D1FA7
:10035000BE291D080739023A031DC329111DC529ED
:100360009D1DB92906159E01A2019D132D150000A2
:100370007C2906119D132D110000A62A0000000003
:10038000000000000000000000000330890000149D
:10039000080803197B292202031806117D299D1FD5
:1003A000E6291D080739033A031DEB29911DED29A4
:1003B0009D1DE12986159E01A3019D13AD15000029
:1003C0007C2986119D13AD110000A62A00000000B3
:1003D000000000000000000000000330890000144D
:1003E000080803197B292302031886117D299D1F04
:1003F0000E2A1D080739043A031D132A111E152A57
:100400009D1D092A06169E01A4019D132D160000AC
:100410007C2906129D132D120000A62A0000000060
:1004200000000000000000000000043089000014FB
:10043000080803197B292402031806127D299D1F31
:10044000362A1D080739053A031D3B2A911E3D2A0D
:100450009D1D312A86169E01A5019D13AD16000033
:100460007C2986129D13AD120000A62A0000000010
:1004700000000000000000000000043089000014AB
:10048000080803197B292502031886127D299D1F60
:100490005E2A1D080739063A031D632A111F652AC3
:1004A0009D1D592A06179E01A6019D132D170000B8
:1004B0007C2906139D132D130000A62A00000000BE
:1004C000000000000000000000000530890000145A
:1004D000080803197B292602031806137D299D1F8E
:1004E000862A1D080739073A031D8B2A911F8D2A7A
:1004F0009D1D812A86179E01A7019D13AD1700003F
:100500007C2986139D13AD130000A62A000000006D
:100510000000000000000000000005308900001409
:10052000080803197B292702031886137D297C29D3
:10053000A62A9A2A9C2A9E2A9D2A9F2AA02AA12A74
:100540005128A22A7929A42AC628982ABD280C1E37
:100550000800AA01F422003803190800140803391E
:10056000023A031D08001508063A03190800013A6B
:10057000031908001B3A0319080015081F3C031C47
:10058000080015088900160888005D230C12462310
:1005900008000D1D8D1D0800AA010000F42200387E
:1005A000031908008D1C7E281308763A0319282B9E
:1005B000083A031D0800DD2A940315088800140872
:1005C000063A03190800013A031908001B3A0319F7
:1005D000ED2A093014020318080014088900640089
:1005E000831608155323462B13081906031D042BE5
:1005F00014081A06031D042B15081B06031D042BE3
:1006000016081C060319FF341308990014089A00F1
:1006100015089B0016089C0000341C3094001A2B0F
:10062000280394000310940D031C0800940D03305C
:1006300013059407931D272BDC2A931D222B1508E5
:10064000A800080028081506031D0800462B94037F
:100650001C3014060319302B09301402031808004B
:100660001408890066231506031D0800462B0D1D7E
:100670008D18080014080319412B0E3A0319462B54
:1006800008009D018C1C08008D156E2864008515DE
:100690008101FA30AC00011F4B2B01136400AC0B3D
:1006A0004B2B8511080055308900AA308900881429
:1006B0008818582B08118312080083160815553026
:1006C0008900AA30890088148312080000140808E1
:0206D000080020
:02400E00F63F7B
:104200000200FF00000000000000000000000000AD
:10421000000000000000000000000000000000009E
:10422000000000000000000000000000000000008E
:1042300000000000000000008000000000000000FE
:04424000000000007A
:00000001FF
