MPASM  5.20           DCCDECOMANOLO_V5_71.ASM   5-6-2008  18:27:42         PAGE  1


LOC  OBJECT CODE     LINE SOURCE TEXT
  VALUE

                      00001 ;Dbacc4:  Accessory decoder based on original loco decoder program by D Probst
                      00002 ;       Modifications by M. Bolton (2DEC98) and G.Ising (16OCT00)
                      00003 ;               MERG-DCC http://home.freeuk.net/merg/resources/dcc.htm 
                      00004 ;       Modified by Stefano Curtarolo (1NOV01)
                      00005 ;               Accessory decoder configuration variable access istruction
                      00006 ;               http://www.tttrains.com/nmradcc/rp921.html#accessory_packets
                      00007 ;               was added. NCE and SYS1 systems uses that protocol in accessory
                      00008 ;               OPS mode (prog-7-enter). 
                      00009 ;               For other DCC projects of Stefano Curtarolo pleas look @ MIT
                      00010 ;               web:  http://nietzsche.mems.duke.edu/auro/trains/tech/DCC/
                      00011 ;       Program is intended to be used with the accessory decoder design        
                      00012 ;       by M Bolton. The decoder is opto isolated so the ack function is a LED 
                      00013 ;       on the decoder board itself. No power booster is required but the signals
                      00014 ;       can be taken from the track if desired. 
                      00015 ;       A separate 20v AC power supply is needed.
                      00016 ;       Decoder includes circuitry to drive solenoid
                      00017 ;       point motors using a capacitor discharge technique. 
                      00018 ;
                      00019 ;       Tested with one set of four switches, with all addresses.
                      00020 ;       Seems OK so far.
                      00021 ;
                      00022 ;       Schematic, PCB layout and source listing (+ HEX file) available. Contact
                      00023 ;       Mike Bolton at bolton@fs1.with.man.ac.uk.
                      00024 ;
                      00025 ;       Details of a matching accessory encoder are also available.
                      00026 ;
                      00027 ;
                      00028 ;This is code for a PIC16F84 (or 16C84). This
                      00029 ;program will read three, four, and five byte packets and supports paged
                      00030 ;and direct CV servTRK mode access of CV data. 
                      00031 ;
                      00032 ;The decoder follows the NMRA standard for an Accessory Decoder. It controls
                      00033 ;four pairs of outputs with on times set by the CVs in increments of 
                      00034 ;10 millisecs. Range is 10 ms to 2.54 sec.or continuous.
                      00035 ;
                      00036 ;Supports 9 bit addressing.(3 byte packets) at present.
                      00037 
                      00038 ;The processor is ured to operate at 8MHz. 
                      00039 ;When programming,the fuses should be set with HS clock, WDT on.
                      00040 ;
                      00041 
                      00042 ;The following NMRA defined CV's and ranges are supported...
                      00043 
                      00044 ;CV513  Lower 6 address bits    00h - 3Fh  
                      00045 ;CV514  Auxiliary activation    00h - FFh  Bits 0 to 7.Each bit sets an output.
                      00046 ;                                          1 is active, 0 is inactive   
                      00047 ;CV515  F1 function 'on' time   00h - FFh  Time in 10ms steps. 0 is continuous.
                      00048 ;CV516  F2  
                      00049 ;CV517  F3                                        
                      00050 ;CV518  F4
                      00051 ;CV519  Version Number          00h -FFh   Cannot be changed (same as CV8)
                      00052 ;CV520  Manufacturers ID        00h -FFh   Cannot be changed (same as CV9)
                      00053 ;                
MPASM  5.20           DCCDECOMANOLO_V5_71.ASM   5-6-2008  18:27:42         PAGE  2


LOC  OBJECT CODE     LINE SOURCE TEXT
  VALUE

                      00054 ;CV521  Upper 3 bits of         00h -07h
                      00055 ;       address     
                      00056 ;CV541  Configuration           Bit 7 = 1  Cannot be changed (same as CV29)
                      00057 
                      00058 ;       No other CVs are supported.
                      00059 
                      00060         processor       16F84
                      00061 ;       __CONFIG        h'3FF6' ; PUTimer on, WDT on, HS clock
2007   3FF2           00062         __CONFIG        h'3FF2' ; PUTimer on, WDT off, HS clock
                      00063 ;Variable definition - PIC16F84 control registers.
                      00064 
  00000000            00065 f0      equ     00
  00000001            00066 rtcc    equ     01
  00000081            00067 optreg  equ             81      ;page 1
  00000002            00068 pc      equ     02
  00000003            00069 STATUS  equ     03
  00000000            00070 Carry   equ     0
  00000002            00071 Zbit    equ     2
  00000005            00072 RP0     equ     5
  00000006            00073 rp1     equ     6
  00000004            00074 fsr     equ     04
  00000005            00075 PORTA   equ     05
  00000005            00076 F1              equ             05
  00000005            00077 F2              equ             05
  00000085            00078 ddra    equ             85      ;page 1
  00000006            00079 PORTB   equ     06
  00000006            00080 F3              equ             06
  00000006            00081 F4              equ             06
  00000086            00082 ddrb    equ             86      ;page 1
  00000008            00083 EEDATA  equ     08
  00000009            00084 EEARD   equ     09
  00000088            00085 EECON1  equ     88 ;08
  00000000            00086 rd      equ     0
  00000001            00087 WR      equ     1
  00000002            00088 WREN    equ     2
  00000089            00089 EECON2  equ     89; 09
  0000000A            00090 pclath  equ     0A
  0000000B            00091 intcon  equ     0B
  00000007            00092 GIE             equ             7
  00000001            00093 f       equ     1
  00000000            00094 w       equ     0
                      00095 
                      00096 ;Varible definition - User RAM.
                      00097 
  0000000C            00098 addcfg  equ     0C      ;address configuration
  00000000            00099 primary equ     0       ;accessory address match
  00000001            00100 reset   equ     1       ;reset packet
  00000002            00101 brdcst  equ             2       ;accessory broadcast
  00000003            00102 servTRK equ     3
  00000004            00103 servOPS equ     4
  00000005            00104 idle    equ             5       
  0000000D            00105 configu equ     0D
  00000000            00106 value   equ     0
MPASM  5.20           DCCDECOMANOLO_V5_71.ASM   5-6-2008  18:27:42         PAGE  3


LOC  OBJECT CODE     LINE SOURCE TEXT
  VALUE

  00000001            00107 byte4   equ     1       ;not used yet
  00000002            00108 byte5   equ     2       ;not used yet
                      00109 
                      00110 ;registers
                      00111 
  0000000E            00112 count   equ     0E      ;counts which output
  0000000F            00113 CV513a  equ     0F      ;holds CV513 low address bits
  00000010            00114 CV521a  equ     10      ;holds CV521 high address bits
  00000011            00115 CV514a  equ             11      ;which outputs to activate
  00000012            00116 CV541a  equ     12      ;configu CV
  00000013            00117 data1   equ     13      ;first packet byte
  00000014            00118 data2   equ     14      ;second packet byte
  00000015            00119 data3   equ     15
  00000016            00120 data4   equ     16
  00000017            00121 data5   equ     17
  00000018            00122 endval  equ     18
  00000019            00123 lastd1  equ     19
  0000001A            00124 lastd2  equ     1A
  0000001B            00125 lastd3  equ     1B
  0000001C            00126 lastd4  equ     1C
  0000001D            00127 action  equ     1D      ;4 bits of accessory command
  0000001E            00128 tick1   equ     1E      ;counts 10 millisec intervals
  00000020            00129 time1   equ     20      ;on time for output 1 etc.
  00000021            00130 time2   equ             21
  00000022            00131 time3   equ             22
  00000023            00132 time4   equ             23
  00000024            00133 time5   equ             24
  00000025            00134 time6   equ             25
  00000026            00135 time7   equ             26
  00000027            00136 time8   equ             27
                      00137 
  00000028            00138 pagereg equ     28
  00000029            00139 m       equ     29      ;as in Dean Probst's decode
  0000002A            00140 n       equ     2A
  0000002B            00141 state   equ     2B
  0000002C            00142 temp    equ     2C
  0000002D            00143 memo    equ             2D 
  0000002E            00144 change  equ             2E 
                      00145 
                      00146 
                      00147 
                      00148 ;Init sets as all outputs, pin b7 as input and the rest of PORTB as
                      00149 ;outputs and sets the rtcc counter to divide by 32 (16us at 8MHz clock).
                      00150 ;FSR is set to 88h for indirect access to EECON register from page 00.
                      00151 
0000   1683           00152 Init bsf        STATUS,RP0      ;set to page 1
                      00153 
0001   3017           00154         movlw   B'00010111'     ;port a data in and ack out A3
Message[302]: Register in operand not in bank 0.  Ensure that bank bits are correct.
0002   0085           00155         movwf   ddra
0003   3000           00156         movlw   B'00000000'     ;port b 7outputs
Message[302]: Register in operand not in bank 0.  Ensure that bank bits are correct.
0004   0086           00157         movwf   ddrb
MPASM  5.20           DCCDECOMANOLO_V5_71.ASM   5-6-2008  18:27:42         PAGE  4


LOC  OBJECT CODE     LINE SOURCE TEXT
  VALUE

0005   3084           00158         movlw   B'10000100'     ;set option reg RTCC /32
Message[302]: Register in operand not in bank 0.  Ensure that bank bits are correct.
0006   0081           00159         movwf   optreg
0007   1283           00160         bcf     STATUS,RP0
                      00161 
                      00162 
0008   3088           00163         movlw   0x88                    ;fSR is set to 88h for indirect access to EECON register from pa
                            ge 00
0009   0084           00164         movwf   fsr
                      00165 
000A   3021           00166                 movlw   0x21            ;     EE=21   MEMO
000B   0089           00167         movwf   EEARD           ;
000C   1400           00168                 bsf     f0,rd
000D   0808           00169                 movf    EEDATA,w   
000E   00AD           00170                 movwf   memo                    ;Status of port B is stored in MEMO
000F   0086           00171                 movwf   PORTB
0010   00AE           00172                 movwf   change
                      00173 
0011   018B           00174             clrf    intcon
0012   01AB           00175         clrf    state
0013   01A9           00176         clrf    m
0014   01AA           00177         clrf    n
0015   018D           00178         clrf    configu
0016   019D           00179         clrf    action
                      00180 
0017   01A0           00181                 clrf    time1
0018   01A1           00182                 clrf    time2
0019   01A2           00183                 clrf    time3
001A   01A3           00184                 clrf    time4
001B   01A4           00185                 clrf    time5
001C   01A5           00186                 clrf    time6
001D   01A6           00187                 clrf    time7
001E   01A7           00188                 clrf    time8
001F   019E           00189                 clrf    tick1   
0020   0181           00190                 clrf    rtcc
                      00191 
                      00192 ;The following routine loops between Starthi and Startlo in a precisely 
                      00193 ;timed sequence that samples track voltage at 22us intervals, decodes the
                      00194 ;incoming packet, and updates the decoder outputs. When a change in 
                      00195 ;voltage is detected, a half-bit is defined and the subroutine 
                      00196 ;Getstat is called to check the value of the half-bit and decode the 
                      00197 ;sequence. Subsequent delays between samplings call the update subroutine 
                      00198 ;to update the outputs and timing registers of the microcontoller. At 22us, 
                      00199 ;the values of the half-bits are determined as follows:
                      00200 ;
                      00201 ;       Delays          Possible Duration
                      00202 ;       1               1us  - 43us
                      00203 ;       2               23us - 65us
                      00204 ;       3               45us - 87us
                      00205 ;       4               67us - up
                      00206 ;
                      00207 ;With these values, one delay will be 43us or less and will reset 
                      00208 ;the packet decode sequence. Two or three delays will be 23us to 87us and 
MPASM  5.20           DCCDECOMANOLO_V5_71.ASM   5-6-2008  18:27:42         PAGE  5


LOC  OBJECT CODE     LINE SOURCE TEXT
  VALUE

                      00209 ;will be recognized as a hi (1) half-bit. This completely encompasses the 
                      00210 ;duration required by the NMRA DCC standards of 52us to 64us. Four or more 
                      00211 ;delays will be 67us or greater and are recognized as a low (0) half-bit.
                      00212 ;Again, this meets the NMRA DCC requirements of 90us to 10000us.
                      00213 
                      00214 ; Durations of
                      00215 ;~18ms in length, such as DC or when the signal is lost, will cause the
                      00216 ;watch dog timer to reset, reseting the decoder. 
                      00217 
                      00218 ;                               timing
                      00219 
0021   202F           00220 Starthi call    Getval          ;3
0022   1D05           00221 Conthi  btfss   PORTA,2         ;44/0/88        Manolo
0023   2828           00222         goto    Startlo         ;45/1
0024   1FA9           00223         btfss   m,7             ;46
0025   0AA9           00224         incf    m,f             ;47        
0026   2132           00225         call    Update          ;48
0027   2822           00226         goto    Conthi          ;86
                      00227 
0028   202F           00228 Startlo call    Getval          ;3
0029   1905           00229 Contlo  btfsc   PORTA,2         ;44/0/88        Manolo
002A   2821           00230         goto    Starthi         ;45/1
002B   1FA9           00231         btfss   m,7             ;46
002C   0AA9           00232         incf    m,f             ;47       
002D   2132           00233         call    Update          ;48
002E   2829           00234         goto    Contlo          ;86
                      00235 
                      00236 ;Getval checks m for a value of 0 (reset), 1 or 2 (hi) or greater (low).
                      00237 ;It then checks state for a value less than or equal to 24 (18h) and then
                      00238 ;adds state to pc register (program counter) to offset execution to a 
                      00239 ;specific subroutine.
                      00240 
002F   0AAA           00241 Getval  incf    n,f             ;5
0030   0829           00242         movf    m,w             ;6
0031   1903           00243         btfsc   STATUS,Zbit     ;7
0032   2879           00244         goto    Resetv          ;8
0033   0064           00245         clrwdt                  ;9
0034   01A9           00246         clrf    m               ;10
0035   100D           00247         bcf     configu,value    ;11
0036   3EFD           00248         addlw   0xFD            ;12
0037   1C03           00249         btfss   STATUS,Carry    ;13
0038   140D           00250         bsf     configu,value    ;14
0039   1803           00251         btfsc   STATUS,Carry    ;15
003A   01AA           00252         clrf    n               ;16
003B   30E7           00253         movlw   0xE7            ;17
003C   072B           00254         addwf   state,w         ;18
003D   1803           00255         btfsc   STATUS,Carry    ;19
003E   01AB           00256         clrf    state           ;20
003F   082B           00257         movf    state,w         ;21
0040   0782           00258         addwf   pc,f            ;22
                      00259                                               ;state
0041   2895           00260         goto    Waitn           ;24             ;0     
0042   28A7           00261         goto    Waitlo                          ;1
MPASM  5.20           DCCDECOMANOLO_V5_71.ASM   5-6-2008  18:27:42         PAGE  6


LOC  OBJECT CODE     LINE SOURCE TEXT
  VALUE

0043   28B0           00262         goto    Testlo                          ;2
                      00263 
0044   28C1           00264         goto    Bitset                          ;3
0045   28C8           00265         goto    Lastv                           ;4
0046   28C1           00266         goto    Bitset                          ;5
0047   28C8           00267         goto    Lastv                           ;6
0048   28C1           00268         goto    Bitset                          ;7
0049   28C8           00269         goto    Lastv                           ;8
004A   28C1           00270         goto    Bitset                          ;9
004B   28C8           00271         goto    Lastv                           ;10
004C   28C1           00272         goto    Bitset                          ;11
004D   28C8           00273         goto    Lastv                           ;12
004E   28C1           00274         goto    Bitset                          ;13
004F   28C8           00275         goto    Lastv                           ;14
0050   28C1           00276         goto    Bitset                          ;15
0051   28C8           00277         goto    Lastv                           ;16
0052   28C1           00278         goto    Bitset                          ;17
0053   28D1           00279         goto    Endx                            ;18
                      00280 
0054   28DD           00281         goto    End1                            ;19
0055   28F3           00282         goto    End2                            ;20
0056   2914           00283         goto    End3                            ;21
0057   2920           00284         goto    End4                            ;22
0058   292C           00285         goto    End5                            ;23
                      00286         
                      00287 ;This is the last state of the packet decode sequence. It first checks for
                      00288 ;a high half-bit. It then XORs the five data bytes to check packet parity. 
                      00289 ;It then checks addcfg register flags to determine instruction address 
                      00290 ;and branches to CVserv or Decode.
                      00291 
0059   01AB           00292         clrf    state           ;24        state = 24
005A   1C0D           00293         btfss   configu,value   ;25
005B   2AC6           00294 ret16   goto    ret14           ;26     68
005C   080C           00295         movf    addcfg,w        ;27
005D   1903           00296         btfsc   STATUS,Zbit     ;28
005E   2988           00297         goto    ret11           ;29
005F   0813           00298         movf    data1,w         ;30
0060   0614           00299         xorwf   data2,w         ;31
0061   0615           00300         xorwf   data3,w         ;32
0062   0616           00301         xorwf   data4,w         ;33
0063   0617           00302         xorwf   data5,w         ;34
0064   1D03           00303         btfss   STATUS,Zbit     ;35
0065   2AC9           00304         goto    ret4            ;36
0066   1A0C           00305         btfsc   addcfg,servOPS
0067   2ACA           00306         goto    CVservOPS       ;       if(SERVOPS_MODE) goto CVservOPS
0068   198C           00307         btfsc   addcfg,servTRK  ;37
0069   2AEC           00308         goto    CVserv          ;38
006A   01AA           00309         clrf    n               ;39     
006B   118D           00310         bcf     configu,servTRK ;40
006C   120D           00311         bcf     configu,servOPS ;40
                      00312                 
                      00313 
006D                  00314 Decode  ;btfsc  addcfg,primary
MPASM  5.20           DCCDECOMANOLO_V5_71.ASM   5-6-2008  18:27:42         PAGE  7


LOC  OBJECT CODE     LINE SOURCE TEXT
  VALUE

                      00315         ;nop
006D   0814           00316         movf    data2,w         ;Dcontrl        action
006E   39E0           00317         andlw   0xE0            ;000
006F   1903           00318         btfsc   STATUS,Zbit     ;reset packet
0070   2B5A           00319         goto    Dcontrl 
0071   1F94           00320         btfss   data2,7         ;accessory instruction?
0072   2877           00321         goto    noacc
0073   0814           00322         movf    data2,w         ;recover byte           
0074   390F           00323         andlw   B'00001111'     ;mask
0075   009D           00324         movwf   action          ;decoder instruction (four bits)
0076   179D           00325         bsf     action,7        ;set new action
0077   0008           00326 noacc   return  
                      00327 
0078   0008           00328 Nextbyt return
                      00329        
                      00330 
0079   01AB           00331 Resetv  clrf    state           ;11
007A   01AA           00332         clrf    n               ;12
007B   2ABC           00333         goto    ret27           ;13
                      00334 
                      00335 ;Counter jumps to alternating output update routines. It is called from the
                      00336 ;Update routine.
                      00337 
007C   0A8E           00338 Counter incf    count,f         ;55
007D   3007           00339         movlw   B'00000111'     ;56
007E   050E           00340         andwf   count,w         ;57
007F   0782           00341         addwf   pc,f            ;58
0080   295C           00342         goto    count1          ;60
0081   298D           00343         goto    count2  
0082   29B8           00344         goto    count3
0083   29E3           00345         goto    count4
0084   2A0E           00346                 goto    count5
0085   2A39           00347         goto    count6
0086   2A64           00348                 goto    count7
0087   2A8F           00349                 goto    count8
                      00350 
                      00351 ;CVpage is for three byte servTRK mode addressing (page addressing). It 
                      00352 ;uses the page register and the offset in data1 to calculate the CV number. 
                      00353 ;The data in data2 is moved to data3 and the calculated CV is stored in
                      00354 ;data2.
                      00355 
0088   0814           00356 CVpage  movf    data2,w                
0089   0095           00357         movwf   data3
008A   3007           00358         movlw   0x07
008B   0513           00359         andwf   data1,w
008C   0782           00360         addwf   pc,f
                      00361 
008D   2B33           00362         goto    CVfind
008E   2B33           00363         goto    CVfind
008F   2B33           00364         goto    CVfind
0090   2B33           00365         goto    CVfind
0091   2B30           00366         goto    CV541s
0092   2B40           00367         goto    CVpgreg
MPASM  5.20           DCCDECOMANOLO_V5_71.ASM   5-6-2008  18:27:42         PAGE  8


LOC  OBJECT CODE     LINE SOURCE TEXT
  VALUE

0093   0008           00368         return
0094   0008           00369         return                                 
                      00370         
                      00371 ;
                      00372 
                      00373 ;Waitn waits for 20 hi half-bits (ten hi bits of the pre-amble) to start
                      00374 ;the decode sequence. Also reads CV514
                      00375 
0095   30EC           00376 Waitn   movlw   0xEC            ;26
0096   072A           00377         addwf   n,w             ;27
0097   1C03           00378         btfss   STATUS,Carry    ;28
0098   2988           00379         goto    ret11           ;29
0099   0AAB           00380         incf    state,f         ;30
009A   0195           00381         clrf    data3           ;31
009B   0196           00382         clrf    data4           ;32
009C   018C           00383         clrf    addcfg          ;33
009D   0198           00384         clrf    endval          ;34
009E   3001           00385                 movlw   0x01            ;35     EE=1    CV514
009F   0089           00386         movwf   EEARD           ;36
00A0   1400           00387         bsf     f0,rd           ;37
00A1   0808           00388         movf    EEDATA,w        ;38
00A2   0091           00389                 movwf   CV514a          ;39
00A3   0000           00390         nop                     ;40
00A4   0000           00391                 nop                     ;41
00A5   0000           00392                 nop                     ;42
00A6   0008           00393                 return     
                      00394         
                      00395 
                      00396 ;Waitlo waits for a low bit to signal the end of the pre-amble. Also reads
                      00397 ;CV513 
                      00398 
00A7   1C0D           00399 Waitlo  btfss   configu,value    ;26
00A8   0AAB           00400         incf    state,f         ;27
00A9   3000           00401         movlw   0x00            ;28     EE=0    CV513
00AA   0089           00402         movwf   EEARD           ;29
00AB   1400           00403         bsf     f0,rd           ;30
00AC   0808           00404         movf    EEDATA,w        ;31
00AD   008F           00405         movwf   CV513a          ;32     lower 6 address bits
00AE   178F           00406         bsf             CV513a,7        ;33     10AAAAAA to match 1st byte
00AF   2ABB           00407         goto    ret6                    ;34
                      00408         
                      00409 
                      00410 ;Testlo must have a low half-bit. Also reads CV521.
                      00411 
00B0   0AAB           00412 Testlo  incf    state,f         ;26
00B1   180D           00413         btfsc   configu,value    ;27
00B2   01AB           00414         clrf    state           ;28
00B3   3008           00415         movlw   0x08            ;29     get CV521 (00000AAA)              
00B4   0089           00416         movwf   EEARD           ;30                  
00B5   1400           00417         bsf     f0,rd           ;31
00B6   0808           00418         movf    EEDATA,w        ;32
00B7   0090           00419         movwf   CV521a          ;33     upper 3 address bits
00B8   0D90           00420         rlf             CV521a,f                ;34
MPASM  5.20           DCCDECOMANOLO_V5_71.ASM   5-6-2008  18:27:42         PAGE  9


LOC  OBJECT CODE     LINE SOURCE TEXT
  VALUE

00B9   0D90           00421         rlf     CV521a,f        ;35
00BA   0D90           00422         rlf     CV521a,f        ;36
00BB   0D90           00423         rlf     CV521a,f        ;37     now 0AAA0000
00BC   0990           00424         comf    CV521a,f                ;38     top address is complemeted
00BD   3070           00425         movlw   B'01110000'     ;39     mask other bits             
00BE   0590           00426         andwf   CV521a,f        ;40
00BF   0000           00427         nop                                     ;41
00C0   0008           00428         return                  ;42
                      00429         
                      00430 ;Bitset reads the value of the just finished half-bit and rotates it
                      00431 ;into the LSB of data5. Eight cycles through Bitset will read a 
                      00432 ;complete byte of data. 
                      00433         
00C1   0AAB           00434 Bitset  incf    state,f         ;26
00C2   1003           00435         bcf     STATUS,Carry    ;27
00C3   180D           00436         btfsc   configu,value    ;28
00C4   1403           00437         bsf     STATUS,Carry    ;29
00C5   0D97           00438         rlf     data5,f         ;30
00C6   291F           00439         goto    ret9            ;31
00C7   298C           00440 ret2    goto    ret0        ;82    
                      00441 
                      00442 ;Lastv checks for the current half-bit to be the same as the previous
                      00443 ;half-bit. 
                      00444 
00C8   0AAB           00445 Lastv   incf    state,f         ;26
00C9   1C0D           00446         btfss   configu,value    ;27
00CA   28CE           00447         goto    lastv1          ;28
00CB   1C17           00448         btfss   data5,0         ;29
00CC   01AB           00449         clrf    state           ;30
00CD   291F           00450                 goto    ret9
00CE   1817           00451 lastv1  btfsc   data5,0         ;30
00CF   01AB           00452         clrf    state           ;31
00D0   2AC8           00453 ret10   goto    ret8            ;32     74
                      00454        
                      00455 
                      00456 ;Endx compares the present half-bit to the previous half-bit (same as
                      00457 ;lastv) and then determines the offset for the intermediate bits.
                      00458 
00D1   1C0D           00459 Endx    btfss   configu,value    ;26
00D2   28D6           00460         goto    endx1           ;27
00D3   1C17           00461         btfss   data5,0         ;28
00D4   09AB           00462         comf    state,f         ;29           
00D5   28D9           00463         goto    endx2           ;30
00D6   1817           00464 endx1   btfsc   data5,0         ;29
00D7   09AB           00465         comf    state,f         ;30
00D8   0000           00466         nop                     ;31
00D9   0A98           00467 endx2   incf    endval,f        ;32
00DA   0818           00468         movf    endval,w        ;33
00DB   07AB           00469         addwf   state,f         ;34
00DC   298A           00470         goto    ret3            ;35
                      00471 
                      00472 ;Intermediate bit after first byte - must be low. End1 also checks for
                      00473 ;broadcast and servTRK mode address.
MPASM  5.20           DCCDECOMANOLO_V5_71.ASM   5-6-2008  18:27:42         PAGE 10


LOC  OBJECT CODE     LINE SOURCE TEXT
  VALUE

                      00474 
00DD   3002           00475 End1    movlw   0x02            ;26
00DE   00AB           00476         movwf   state           ;27
00DF   0817           00477         movf    data5,w         ;28
00E0   0093           00478         movwf   data1           ;29
00E1   180D           00479         btfsc   configu,value    ;30
00E2   01AB           00480         clrf    state           ;31
00E3   0813           00481         movf    data1,w         ;32     get first byte
                      00482 ; RESET PACKET CHECK
00E4   1903           00483         btfsc   STATUS,Zbit     ;33
00E5   148C           00484         bsf     addcfg,reset    ;34     yes so set bit 
                      00485 ; BROADCAST PACKET CHECK
00E6   3ABF           00486         xorlw   B'10111111'     ;35     accessory broadcast low bits?
00E7   1903           00487         btfsc   STATUS,Zbit     ;36
00E8   150C           00488         bsf     addcfg,brdcst   ;37     set broadcast bit
                      00489 ; IDLE PACKET CHECK
00E9   0813           00490         movf    data1,W         ;32     GET 1st byte in W
00EA   3AFF           00491         xorlw   B'11111111'     ;35     IDLE ?
00EB   1903           00492         btfsc   STATUS,Zbit     ;36
00EC   168C           00493         bsf     addcfg,idle     ;37     if B'11111111' set IDLE bit
                      00494 ; OUT OF CYCLE
00ED   0813           00495         movf    data1,w         ;38 
00EE   397F           00496         andlw   B'01111111'     ;39     ;acc address has top bit set
00EF   3E90           00497         addlw   0x90            ;40
00F0   1803           00498         btfsc   STATUS,Carry    ;41
00F1   158C           00499         bsf     addcfg,servTRK  ;42     servTRK so set bit
00F2   0008           00500         return                  ;43
                      00501 
                      00502 ;Intermediate bit after second byte - must be low. End2 also checks for
                      00503 ;primary address (9 bits)and rest of broadcast.
                      00504 
00F3   3002           00505 End2    movlw   0x02            ;26
00F4   00AB           00506         movwf   state           ;27
00F5   0817           00507         movf    data5,w         ;28
00F6   0094           00508         movwf   data2           ;29
00F7   180D           00509         btfsc   configu,value    ;30
00F8   01AB           00510         clrf    state           ;31
                      00511 ; SERVICE-OPS CHECK
                      00512 ; 0 10AAAAAA 0 0AAACCaa 0 aaaaaaaa 0 DDDDDDDD 0 EEEEEEEE 1
00F9   0814           00513         movf    data2,W         ;32     2nd byte
00FA   398C           00514         andlw   B'10001100'     ;33     mask about  0AAA11aa
00FB   3A0C           00515         xorlw   B'00001100'     ;34     mask to get 0xxx11xx
00FC   1903           00516         btfsc   STATUS,Zbit     ;36
00FD   160C           00517         bsf     addcfg,servOPS  ;37
                      00518 ; IDLE CHECK
00FE   1E8C           00519         btfss   addcfg,idle
00FF   2903           00520         goto    End2b
0100   0814           00521         movf    data2,W         ;38     2nd byte
0101   1D03           00522         btfss   STATUS,Zbit     ;40     all zeros?
0102   128C           00523         bcf     addcfg,idle     ;41     IDLE only if we had idle before
                      00524 ; BROADCAST CHECK
0103   0814           00525 End2b   movf    data2,W         ;38     2nd byte
0104   3970           00526         andlw   B'01110000'     ;33     mask except hi address bits
MPASM  5.20           DCCDECOMANOLO_V5_71.ASM   5-6-2008  18:27:42         PAGE 11


LOC  OBJECT CODE     LINE SOURCE TEXT
  VALUE

0105   1D03           00527         btfss   STATUS,Zbit     ;34     all zeros?
0106   110C           00528         bcf     addcfg,brdcst   ;35     not broadcast   
                      00529 ; ADDRESSES CHECK BANK0 513a 512a
0107   140C           00530         bsf     addcfg,primary  ;43   
0108   0814           00531         movf    data2,W         ;       2nd byte             
0109   3970           00532         andlw   B'01110000'     ;       mask except hi addr     
010A   0610           00533         xorwf   CV521a,w        ;36     hi bits match?
010B   1903           00534         btfsc   STATUS,Zbit     ;37
010C   140C           00535         bsf     addcfg,primary  ;38     yes
010D   0813           00536         movf    data1,w         ;39     get first byte
010E   060F           00537         xorwf   CV513a,w        ;40     match?
010F   1903           00538         btfsc   STATUS,Zbit     ;41
0110   0008           00539                 return
0111   100C           00540 End2c   bcf     addcfg,primary  ;42     n
0112   120C           00541         bcf     addcfg,servOPS  ;59     if dont match clear SERVICE-OPS
0113   0008           00542         return                  ;43
                      00543 
                      00544 ;Intermediate bit after third byte - hi signals end of packet.
                      00545 
0114   180D           00546 End3    btfsc   configu,value    ;26
0115   291B           00547         goto    end3hi          ;27
0116   3002           00548         movlw   0x02            ;28
0117   00AB           00549         movwf   state           ;29
0118   0817           00550         movf    data5,w         ;30
0119   0095           00551         movwf   data3           ;31
011A   2AC8           00552         goto    ret8            ;32
                      00553 
011B   3018           00554 end3hi  movlw   0x18            ;29
011C   00AB           00555         movwf   state           ;30
011D   108D           00556         bcf     configu,byte4    ;31
011E   110D           00557         bcf     configu,byte5    ;32
011F   2ABA           00558 ret9    goto    ret7            ;33
                      00559 
                      00560 ;Intermediate bit after fourth byte - hi signals end of packet.
                      00561 
0120   180D           00562 End4    btfsc   configu,value    ;26
0121   2927           00563         goto    end4hi          ;27
0122   3002           00564         movlw   0x02            ;28
0123   00AB           00565         movwf   state           ;29
0124   0817           00566         movf    data5,w         ;30
0125   0096           00567         movwf   data4           ;31
0126   2AC8           00568         goto    ret8            ;32
                      00569 
0127   3018           00570 end4hi  movlw   0x18            ;29
0128   00AB           00571         movwf   state           ;30
0129   148D           00572         bsf     configu,byte4    ;31
012A   110D           00573         bcf     configu,byte5    ;32
012B   2ABA           00574         goto    ret7            ;33
                      00575 
                      00576 ;End bit after fifth byte - must be hi.
                      00577 
012C   0AAB           00578 End5    incf    state,f         ;26
012D   1C0D           00579         btfss   configu,value    ;27
MPASM  5.20           DCCDECOMANOLO_V5_71.ASM   5-6-2008  18:27:42         PAGE 12


LOC  OBJECT CODE     LINE SOURCE TEXT
  VALUE

012E   01AB           00580         clrf    state           ;28
012F   148D           00581         bsf     configu,byte4    ;29
0130   150D           00582         bsf     configu,byte5    ;30
0131   291F           00583         goto    ret9            ;31
                      00584 
                      00585 ;This subroutine is used to update the outputs of the microcontroller. 
                      00586 ;The rtcc is compared with the value 63. As rtcc increments every 16
                      00587 ;microsecs, count will match at about 1 millisec.A match condition (=>)
                      00588 ;will increment tick1 and reset the rtcc. Tick1 is compared with 10 and
                      00589 ;if => then all channel timers, (time1 to time8) are incremented.This
                      00590 ;sets the fundamental time interval at 10 millisec.
                      00591 ;Between tick1 updates, routine switches to 'Counter' which accesses each
                      00592 ;output routine in turn to see if the outputs should be on or off.
                      00593 
0132   303F           00594 Update  movlw   .63             ;50             one millisec approx
0133   0201           00595         subwf   rtcc,w          ;51
0134   1C03           00596         btfss   STATUS,Carry    ;52
0135   287C           00597         goto    Counter         ;53
0136   0A9E           00598         incf    tick1,f         ;54
0137   0181           00599         clrf    rtcc            ;55             reset rtcc
0138   0000           00600         nop                     ;56
0139   300A           00601         movlw   .10             ;57
013A   021E           00602         subwf   tick1,w         ;58             
013B   1C03           00603         btfss   STATUS,Carry    ;59             10ms
013C   2947           00604             goto        strmemo         ;60
013D   019E           00605         clrf    tick1           ;61             
013E   0AA0           00606         incf    time1,f         ;62             increment channel timers           
013F   0AA1           00607         incf    time2,f         ;63             
0140   0AA2           00608         incf    time3,f         ;64             
0141   0AA3           00609         incf    time4,f         ;65
0142   0AA4           00610         incf    time5,f         ;66
0143   0AA5           00611         incf    time6,f         ;67
0144   0AA6           00612         incf    time7,f         ;68
0145   0AA7           00613         incf    time8,f         ;69                     
0146   2AC7           00614         goto    ret12           ;70             
                      00615                                                                 ;TEST each time all the output have been
                             tested we strore memo
                      00616                 ;Prueba esxritura
                      00617                 
0147   082D           00618 strmemo movf    memo, w                 ;62     
0148   022E           00619                 subwf   change,w                ;63     Sub in f does not work
0149   1903           00620                 btfsc   STATUS,Zbit     ;64     
014A   2AC4           00621                 goto    ret17                   ;65
014B   082D           00622                 movf    memo, w                 ;66
014C   00AE           00623                 movwf   change                  ;67 out of loop until next change 
014D   0088           00624                 movwf   EEDATA                  ;68
014E   3021           00625                 movlw   0x21            ;69    EE=21   MEMO
                      00626 
014F   0089           00627                 movwf   EEARD           ;70
0150   1683           00628                 bsf             STATUS,RP0              ;71
                      00629         
Message[302]: Register in operand not in bank 0.  Ensure that bank bits are correct.
0151   1508           00630                 bsf     EECON1,WREN             ;72
MPASM  5.20           DCCDECOMANOLO_V5_71.ASM   5-6-2008  18:27:42         PAGE 13


LOC  OBJECT CODE     LINE SOURCE TEXT
  VALUE

0152   3055           00631             movlw   0x55                        ;73
Message[302]: Register in operand not in bank 0.  Ensure that bank bits are correct.
0153   0089           00632         movwf   EECON2                  ;74
0154   30AA           00633         movlw   0xAA                    ;75
Message[302]: Register in operand not in bank 0.  Ensure that bank bits are correct.
0155   0089           00634         movwf   EECON2                  ;76
Message[302]: Register in operand not in bank 0.  Ensure that bank bits are correct.
0156   1488           00635         bsf     EECON1,WR               ;77
Message[302]: Register in operand not in bank 0.  Ensure that bank bits are correct.
0157   1888           00636 busy    btfsc   EECON1,WR               ;78
0158   2957           00637         goto    busy                    ;79
Message[302]: Register in operand not in bank 0.  Ensure that bank bits are correct.
0159   1108           00638         bcf     EECON1,WREN             ;80
015A   1283           00639         bcf     STATUS,RP0              ;81
                      00640 
015B   298C           00641                 goto    ret0                    ;82  
                      00642           
                      00643                      
                      00644 ;Count1 controls output1 
                      00645 
015C   1F9D           00646 count1  btfss   action,7        ;62     new action
015D   2973           00647         goto    t1a             ;63     no
015E   081D           00648         movf    action,w        ;64
015F   3907           00649         andlw   B'00000111'     ;65     mask
0160   3A00           00650         xorlw   B'00000000'     ;66     is it output 1?
0161   1D03           00651         btfss   STATUS,Zbit     ;67     yes
0162   2978           00652         goto    t1b             ;68
0163   1C11           00653         btfss   CV514a,0        ;69     is this bit enabled?
0164   297A           00654         goto    t1c             ;70     no
0165   1D9D           00655         btfss   action,3        ;71     on or off
0166   296E           00656         goto    off1            ;72
0167   1406           00657         bsf     PORTB,0         ;73     F1a on
0168   019E           00658                 clrf    tick1           ;74
0169   01A0           00659                 clrf    time1           ;75     start timer   
016A   139D           00660         bcf     action,7        ;76     action done
016B   142D           00661                 bsf memo, 0                     ;77             store last output on
016C   0000           00662                 nop;                            ;78
016D   298A           00663                 goto    ret3            ;79
016E   1006           00664 off1    bcf     PORTB,0         ;74     F1a off
016F   139D           00665         bcf     action,7        ;75
0170   102D           00666         bcf memo,0                      ;76             store last output off
0171   0000           00667         nop;                            ;77
0172   2AC9           00668         goto    ret4            ;78
0173   0000           00669 t1a     nop                     ;65
0174   0000           00670         nop                     ;66
0175   0000           00671         nop                     ;67
0176   0000           00672         nop                     ;68
0177   0000           00673         nop                     ;69
0178   0000           00674 t1b     nop                     ;70
0179   0000           00675         nop                     ;71
017A   3002           00676 t1c     movlw   2       ;72     get CV515 time on
017B   0089           00677         movwf   EEARD           ;73
017C   1400           00678         bsf     f0,rd           ;74
MPASM  5.20           DCCDECOMANOLO_V5_71.ASM   5-6-2008  18:27:42         PAGE 14


LOC  OBJECT CODE     LINE SOURCE TEXT
  VALUE

017D   0808           00679         movf    EEDATA,w        ;75
017E   1903           00680         btfsc   STATUS,Zbit     ;76     if zero then always on
017F   2989           00681         goto    ret5            ;77
0180   1806           00682         btfsc   PORTB,0         ;78
0181   10AD           00683         bcf             memo,1          ;79 if time is not zero and the port is active we just want to k
                            eep in memo the last output of the couple swithed on
0182   0220           00684         subwf   time1,w         ;80     compare time
0183   1803           00685         btfsc   STATUS,Carry    ;81
0184   1006           00686         bcf     PORTB,0         ;82     time out so put off
0185   0000           00687         nop     ;83
0186   0008           00688         return  ;84
                      00689 
0187   2988           00690 ret13   goto    ret11                   ;71 29
0188   291F           00691 ret11   goto    ret9                    ;73 31
0189   298A           00692 ret5    goto    ret3                    ;79     37
018A   298B           00693 ret3    goto    ret1                    ;81     39
018B   0000           00694 ret1    nop                     ;83
018C   0008           00695 ret0    return                  ;84
                      00696 
                      00697 
                      00698 ;Count2 controls F1b
                      00699  
018D   1F9D           00700 count2  btfss   action,7        ;62     new action
018E   29A4           00701         goto    t2a             ;63     no
018F   081D           00702         movf    action,w        ;64
0190   3907           00703         andlw   B'00000111'     ;65     mask
0191   3A01           00704         xorlw   B'00000001'     ;66     is it output 1b?
0192   1D03           00705         btfss   STATUS,Zbit     ;67     yes
0193   29A9           00706         goto    t2b             ;68
0194   1C91           00707         btfss   CV514a,1        ;69     is this bit enabled?
0195   29AB           00708         goto    t2c             ;70     no
0196   1D9D           00709         btfss   action,3        ;71     on or off
0197   299F           00710         goto    off2            ;72
0198   1486           00711         bsf     PORTB,1         ;73     F1b on
0199   019E           00712         clrf    tick1           ;74
019A   01A1           00713         clrf    time2           ;75     start timer   
019B   139D           00714         bcf     action,7        ;76     action done
019C   14AD           00715                 bsf memo, 1                     ;77             store last output on
019D   0000           00716                 nop;                            ;78
019E   298A           00717                 goto    ret3            ;79
019F   1086           00718 off2    bcf     PORTB,1         ;74     F1b off
01A0   139D           00719         bcf     action,7        ;75
01A1   10AD           00720         bcf memo,1                      ;76             store last output off
01A2   0000           00721         nop;                            ;77
01A3   2AC9           00722         goto    ret4            ;78
01A4   0000           00723 t2a     nop                     ;65
01A5   0000           00724         nop                     ;66
01A6   0000           00725         nop                     ;67
01A7   0000           00726         nop                     ;68
01A8   0000           00727         nop                     ;69
01A9   0000           00728 t2b     nop                     ;70
01AA   0000           00729         nop                     ;71
01AB   3002           00730 t2c     movlw   2               ;72     get CV515 time on
MPASM  5.20           DCCDECOMANOLO_V5_71.ASM   5-6-2008  18:27:42         PAGE 15


LOC  OBJECT CODE     LINE SOURCE TEXT
  VALUE

01AC   0089           00731         movwf   EEARD           ;73
01AD   1400           00732         bsf     f0,rd           ;74
01AE   0808           00733         movf    EEDATA,w        ;75
01AF   1903           00734         btfsc   STATUS,Zbit     ;76     if zero then always on
01B0   2989           00735         goto    ret5            ;77
01B1   1886           00736         btfsc   PORTB,1         ;78
01B2   102D           00737         bcf             memo,0          ;79 if time is not zero we just ant to keep i n memo the last ou
                            tput of the couple swithed on
01B3   0221           00738         subwf   time2,w         ;80     compare time
01B4   1803           00739         btfsc   STATUS,Carry    ;81
01B5   1086           00740         bcf     PORTB,1         ;82     time out so put off
01B6   0000           00741         nop     ;83
01B7   0008           00742         return ;84
                      00743 
                      00744 ;Count3 controls F2a
                      00745 
01B8   1F9D           00746 count3  btfss   action,7        ;62     new action
01B9   29CF           00747         goto    t3a             ;63     no
01BA   081D           00748         movf    action,w        ;64
01BB   3907           00749         andlw   B'00000111'     ;65     mask
01BC   3A02           00750         xorlw   B'00000010'    ;66      is it output 2a?
01BD   1D03           00751         btfss   STATUS,Zbit     ;67     yes
01BE   29D4           00752         goto    t3b             ;68
01BF   1D11           00753         btfss   CV514a,2        ;69     is this bit enabled?
01C0   29D6           00754         goto    t3c             ;70     no
01C1   1D9D           00755         btfss   action,3        ;71     on or off
01C2   29CA           00756         goto    off3            ;72
                      00757 ;        bsf    PORTA,2         ;73     F2a on
01C3   1506           00758         bsf     PORTB,2         ;73     F2a on
01C4   019E           00759         clrf    tick1           ;74
01C5   01A2           00760         clrf    time3           ;75     start timer   
01C6   139D           00761         bcf     action,7        ;76     action done
01C7   152D           00762                 bsf memo, 2                     ;77             store last output on
01C8   0000           00763                 nop;                            ;78
01C9   298A           00764                 goto    ret3            ;79
                      00765 ;off3   bcf     PORTA,2         ;74     F2a off
01CA   1106           00766 off3    bcf     PORTB,2         ;74     F2a off
01CB   139D           00767         bcf     action,7        ;75
01CC   112D           00768         bcf memo,2                      ;76             store last output off
01CD   0000           00769         nop;                            ;77
01CE   2AC9           00770         goto    ret4            ;78
01CF   0000           00771 t3a     nop                     ;65
01D0   0000           00772         nop                     ;66
01D1   0000           00773         nop                     ;67
01D2   0000           00774         nop                     ;68
01D3   0000           00775         nop                     ;69
01D4   0000           00776 t3b     nop                     ;70
01D5   0000           00777         nop                     ;71
01D6   3003           00778 t3c     movlw   3               ;72     get CV516 time on
01D7   0089           00779         movwf   EEARD           ;73
01D8   1400           00780         bsf     f0,rd           ;74
01D9   0808           00781         movf    EEDATA,w        ;75
01DA   1903           00782         btfsc   STATUS,Zbit     ;76     if zero then always on
MPASM  5.20           DCCDECOMANOLO_V5_71.ASM   5-6-2008  18:27:42         PAGE 16


LOC  OBJECT CODE     LINE SOURCE TEXT
  VALUE

01DB   2989           00783         goto    ret5            ;77
01DC   1906           00784         btfsc   PORTB,2         ;78
01DD   11AD           00785         bcf             memo,3          ;79 if time is not zero we just ant to keep i n memo the last ou
                            tput of the couple swithed on
01DE   0222           00786         subwf   time3,w         ;80     compare time
01DF   1803           00787         btfsc   STATUS,Carry    ;81
01E0   1106           00788         bcf     PORTB,2         ;82     time out so put off
01E1   0000           00789         nop     ;83
01E2   0008           00790         return ;84
                      00791 ;Count4 controls F2b
                      00792 
01E3   1F9D           00793 count4  btfss   action,7        ;62     new action
01E4   29FA           00794         goto    t4a             ;63     no
01E5   081D           00795         movf    action,w        ;64
01E6   3907           00796         andlw   B'00000111'     ;65     mask
01E7   3A03           00797         xorlw   B'00000011'     ;66     is it output F2b?
01E8   1D03           00798         btfss   STATUS,Zbit     ;67     yes
01E9   29FF           00799         goto    t4b             ;68
01EA   1D91           00800         btfss   CV514a,3        ;69     is this bit enabled?
01EB   2A01           00801         goto    t4c             ;70     no
01EC   1D9D           00802         btfss   action,3        ;71     on or off
01ED   29F5           00803         goto    off4            ;72
01EE   1586           00804         bsf     PORTB,3         ;73     F2b on
01EF   019E           00805         clrf    tick1           ;74
01F0   01A3           00806         clrf    time4           ;75     start timer   
01F1   139D           00807         bcf     action,7        ;76     action done
01F2   15AD           00808                 bsf memo, 3                     ;77             store last output on
01F3   0000           00809                 nop;                            ;78
01F4   298A           00810                 goto    ret3            ;79
01F5   1186           00811 off4    bcf     PORTB,3         ;74     F2b off
01F6   139D           00812         bcf     action,7        ;75
01F7   11AD           00813         bcf memo,3                      ;76             store last output off
01F8   0000           00814         nop;                            ;77
01F9   2AC9           00815         goto    ret4            ;78
01FA   0000           00816 t4a     nop                     ;65
01FB   0000           00817         nop                     ;66
01FC   0000           00818         nop                     ;67
01FD   0000           00819         nop                     ;68
01FE   0000           00820         nop                     ;69
01FF   0000           00821 t4b     nop                     ;70
0200   0000           00822         nop                     ;71
0201   3003           00823 t4c     movlw   3               ;72     get CV516 time on
0202   0089           00824         movwf   EEARD           ;73
0203   1400           00825         bsf     f0,rd           ;74
0204   0808           00826         movf    EEDATA,w        ;75
0205   1903           00827         btfsc   STATUS,Zbit     ;76     if zero then always on
0206   2989           00828         goto    ret5            ;77
0207   1986           00829         btfsc   PORTB,3         ;78
0208   112D           00830         bcf             memo,2          ;79 if time is not zero we just ant to keep i n memo the last ou
                            tput of the couple swithed on
0209   0223           00831         subwf   time4,w         ;80     compare time
020A   1803           00832         btfsc   STATUS,Carry    ;81
020B   1186           00833         bcf     PORTB,3         ;82     time out so put off
MPASM  5.20           DCCDECOMANOLO_V5_71.ASM   5-6-2008  18:27:42         PAGE 17


LOC  OBJECT CODE     LINE SOURCE TEXT
  VALUE

020C   0000           00834         nop     ;83
020D   0008           00835         return ;84
                      00836 
                      00837 ;Count5 controls output F3a
                      00838 
020E   1F9D           00839 count5  btfss   action,7        ;62     new action
020F   2A25           00840         goto    t5a             ;63     no
0210   081D           00841         movf    action,w        ;64
0211   3907           00842         andlw   B'00000111'     ;65     mask
0212   3A04           00843         xorlw   B'00000100'     ;66     is it output F3a?
0213   1D03           00844         btfss   STATUS,Zbit     ;67     yes
0214   2A2A           00845         goto    t5b             ;68
0215   1E11           00846         btfss   CV514a,4        ;69     is this bit enabled?
0216   2A2C           00847         goto    t5c             ;70     no
0217   1D9D           00848         btfss   action,3        ;71     on or off
0218   2A20           00849         goto    off5            ;72
0219   1606           00850         bsf     PORTB,4         ;73     F3a on
021A   019E           00851         clrf    tick1           ;74
021B   01A4           00852         clrf    time5           ;75     start timer   
021C   139D           00853         bcf     action,7        ;76     action done
021D   162D           00854                 bsf memo, 4                     ;77             store last output on
021E   0000           00855                 nop;                            ;78
021F   298A           00856                 goto    ret3            ;79
0220   1206           00857 off5    bcf     PORTB,4         ;74     F3a off
0221   139D           00858         bcf     action,7        ;75
0222   122D           00859         bcf memo,4                      ;76             store last output off
0223   0000           00860         nop;                            ;77
0224   2AC9           00861         goto    ret4            ;78
0225   0000           00862 t5a     nop                     ;65
0226   0000           00863         nop                     ;66
0227   0000           00864         nop                     ;67
0228   0000           00865         nop                     ;68
0229   0000           00866         nop                     ;69
022A   0000           00867 t5b     nop                     ;70
022B   0000           00868         nop                     ;71
022C   3004           00869 t5c     movlw   4               ;72     get CV517 time on
022D   0089           00870         movwf   EEARD           ;73
022E   1400           00871         bsf     f0,rd           ;74
022F   0808           00872         movf    EEDATA,w        ;75
0230   1903           00873         btfsc   STATUS,Zbit     ;76     if zero then always on
0231   2989           00874         goto    ret5            ;77
0232   1A06           00875         btfsc   PORTB,4         ;78
0233   12AD           00876         bcf             memo,5          ;79 if time is not zero we just ant to keep i n memo the last ou
                            tput of the couple swithed on
0234   0224           00877         subwf   time5,w         ;80     compare time
0235   1803           00878         btfsc   STATUS,Carry    ;81
0236   1206           00879         bcf     PORTB,4         ;82     time out so put off
0237   0000           00880         nop;83
0238   0008           00881         return;84
                      00882 
                      00883 
                      00884 ;Count6 controls the output F3b
                      00885 
MPASM  5.20           DCCDECOMANOLO_V5_71.ASM   5-6-2008  18:27:42         PAGE 18


LOC  OBJECT CODE     LINE SOURCE TEXT
  VALUE

0239   1F9D           00886 count6  btfss   action,7        ;62     new action
023A   2A50           00887         goto    t6a             ;63     no
023B   081D           00888         movf    action,w        ;64
023C   3907           00889         andlw   B'00000111'     ;65     mask
023D   3A05           00890         xorlw   B'00000101'     ;66     is it output F3b?
023E   1D03           00891         btfss   STATUS,Zbit     ;67     yes
023F   2A55           00892         goto    t6b             ;68
0240   1E91           00893         btfss   CV514a,5        ;69     is this bit enabled?
0241   2A57           00894         goto    t6c             ;70     no
0242   1D9D           00895         btfss   action,3        ;71     on or off
0243   2A4B           00896         goto    off6            ;72
0244   1686           00897         bsf     PORTB,5         ;73     F3b on
0245   019E           00898         clrf    tick1           ;74
0246   01A5           00899         clrf    time6           ;75     start timer   
0247   139D           00900         bcf     action,7        ;76     action done
0248   16AD           00901                 bsf memo, 5                     ;77             store last output on
0249   0000           00902                 nop;                            ;78
024A   298A           00903                 goto    ret3            ;79
024B   1286           00904 off6    bcf     PORTB,5         ;74     F3b off
024C   139D           00905         bcf     action,7        ;75
024D   12AD           00906         bcf memo,5                      ;76             store last output off
024E   0000           00907         nop;                            ;77
024F   2AC9           00908         goto    ret4            ;78
0250   0000           00909 t6a     nop                     ;65
0251   0000           00910         nop                     ;66
0252   0000           00911         nop                     ;67
0253   0000           00912         nop                     ;68
0254   0000           00913         nop                     ;69
0255   0000           00914 t6b     nop                     ;70
0256   0000           00915         nop                     ;71
0257   3004           00916 t6c     movlw   4               ;72     get CV517 time on
0258   0089           00917         movwf   EEARD           ;73
0259   1400           00918         bsf     f0,rd           ;74
025A   0808           00919         movf    EEDATA,w        ;75
025B   1903           00920         btfsc   STATUS,Zbit     ;76     if zero then always on
025C   2989           00921         goto    ret5            ;77
025D   1A86           00922         btfsc   PORTB,5         ;78
025E   122D           00923         bcf             memo,4          ;79 if time is not zero we just ant to keep i n memo the last ou
                            tput of the couple swithed on
025F   0225           00924         subwf   time6,w         ;80     compare time
0260   1803           00925         btfsc   STATUS,Carry    ;81
0261   1286           00926         bcf     PORTB,5         ;82     time out so put off
0262   0000           00927         nop;83
0263   0008           00928         return;84
                      00929 
                      00930 ;Count7 controls output F4a
                      00931 
0264   1F9D           00932 count7  btfss   action,7        ;62     new action
0265   2A7B           00933         goto    t7a             ;63     no
0266   081D           00934         movf    action,w        ;64
0267   3907           00935         andlw   B'00000111'     ;65     mask
0268   3A06           00936         xorlw   B'00000110'     ;66     is it output F4a?
0269   1D03           00937         btfss   STATUS,Zbit     ;67     yes
MPASM  5.20           DCCDECOMANOLO_V5_71.ASM   5-6-2008  18:27:42         PAGE 19


LOC  OBJECT CODE     LINE SOURCE TEXT
  VALUE

026A   2A80           00938         goto    t7b             ;68
026B   1F11           00939         btfss   CV514a,6        ;69     is this bit enabled?
026C   2A82           00940         goto    t7c             ;70     no
026D   1D9D           00941         btfss   action,3        ;71     on or off
026E   2A76           00942         goto    off7            ;72
026F   1706           00943         bsf     PORTB,6         ;73     F4a on
0270   019E           00944                 clrf    tick1           ;74
0271   01A6           00945                 clrf    time7           ;75     start timer   
0272   139D           00946         bcf     action,7        ;76     action done
0273   172D           00947                 bsf memo, 6                     ;77             store last output on
0274   0000           00948                 nop;                            ;78
0275   298A           00949                 goto    ret3            ;79
0276   1306           00950 off7    bcf     PORTB,6         ;74     F4a off
0277   139D           00951         bcf     action,7        ;75
0278   132D           00952         bcf memo,6                      ;76             store last output off
0279   0000           00953         nop;                            ;77
027A   2AC9           00954         goto    ret4            ;78
027B   0000           00955 t7a     nop                     ;65
027C   0000           00956         nop                     ;66
027D   0000           00957         nop                     ;67
027E   0000           00958         nop                     ;68
027F   0000           00959         nop                     ;69
0280   0000           00960 t7b     nop                     ;70
0281   0000           00961         nop                     ;71
0282   3005           00962 t7c     movlw   5               ;72     get CV518 time on
0283   0089           00963         movwf   EEARD           ;73
0284   1400           00964         bsf     f0,rd           ;74
0285   0808           00965         movf    EEDATA,w        ;75
0286   1903           00966         btfsc   STATUS,Zbit     ;76     if zero then always on
0287   2989           00967         goto    ret5            ;77
0288   1B06           00968         btfsc   PORTB,6         ;78
0289   13AD           00969         bcf             memo,7          ;79 if time is not zero we just ant to keep i n memo the last ou
                            tput of the couple swithed on
028A   0226           00970         subwf   time7,w         ;80     compare time
028B   1803           00971         btfsc   STATUS,Carry    ;81
028C   1306           00972         bcf     PORTB,6         ;82     time out so put off
028D   0000           00973         nop;83
028E   0008           00974         return;84
                      00975 
                      00976 ;Count8 controls output F4b
                      00977 
028F   1F9D           00978 count8  btfss   action,7        ;62     new action
0290   2AA6           00979         goto    t8a             ;63     no
0291   081D           00980         movf    action,w        ;64
0292   3907           00981         andlw   B'00000111'     ;65     mask
0293   3A07           00982         xorlw   B'00000111'     ;66     is it output F4b?
0294   1D03           00983         btfss   STATUS,Zbit     ;67     yes
0295   2AAB           00984         goto    t8b             ;68
0296   1F91           00985         btfss   CV514a,7        ;69     is this bit enabled?
0297   2AAD           00986         goto    t8c             ;70     no
0298   1D9D           00987         btfss   action,3        ;71     on or off
0299   2AA1           00988         goto    off8            ;72
029A   1786           00989         bsf     PORTB,7         ;73     F4b on
MPASM  5.20           DCCDECOMANOLO_V5_71.ASM   5-6-2008  18:27:42         PAGE 20


LOC  OBJECT CODE     LINE SOURCE TEXT
  VALUE

029B   019E           00990         clrf    tick1           ;74
029C   01A7           00991         clrf    time8           ;75     start timer   
029D   139D           00992         bcf     action,7        ;76     action done
029E   17AD           00993                 bsf memo, 7                     ;77             store last output on
029F   0000           00994                 nop;                            ;78
02A0   298A           00995                 goto    ret3            ;79
02A1   1386           00996 off8    bcf     PORTB,7         ;74     F4b off
02A2   139D           00997         bcf     action,7        ;75
02A3   13AD           00998         bcf memo,7                      ;76             store last output off
02A4   0000           00999         nop;                            ;77
02A5   2AC9           01000         goto    ret4            ;78
02A6   0000           01001 t8a     nop                     ;65
02A7   0000           01002         nop                     ;66
02A8   0000           01003         nop                     ;67
02A9   0000           01004         nop                     ;68
02AA   0000           01005         nop                     ;69
02AB   0000           01006 t8b     nop                     ;70
02AC   0000           01007         nop                     ;71
02AD   3005           01008 t8c     movlw   5               ;72     get CV518 time on
02AE   0089           01009         movwf   EEARD           ;73
02AF   1400           01010         bsf     f0,rd           ;74
02B0   0808           01011         movf    EEDATA,w        ;75
02B1   1903           01012         btfsc   STATUS,Zbit     ;76     if zero then always on
02B2   2989           01013         goto    ret5            ;77
02B3   1B86           01014         btfsc   PORTB,7         ;78
02B4   132D           01015         bcf             memo,6          ;79 if time is not zero we just ant to keep i n memo the last ou
                            tput of the couple swithed on
02B5   0227           01016         subwf   time8,w         ;80     compare time
02B6   1803           01017         btfsc   STATUS,Carry    ;81
02B7   1386           01018         bcf     PORTB,7         ;82     time out so put off
02B8   0000           01019         nop     ;83
02B9   0008           01020         return ;84
                      01021 
                      01022     
02BA   298A           01023 ret7    goto    ret3                            ;77     35
02BB   2AC9           01024 ret6    goto    ret4            ;78
                      01025 
                      01026 
                      01027 ;Additional goto sequences.
                      01028 
02BC   2ABD           01029 ret27   goto    ret25           ;15 
02BD   2ABF           01030 ret25   goto    ret23           ;17
                      01031 ;ret24   goto    ret22                          ;58
02BE   2AC1           01032 ret22   goto    ret20                   ;62
02BF   2AC0           01033 ret23   goto    ret21           ;19
                      01034                                 ;20 62          NO ENTIENDO
02C0   2AC2           01035 ret21   goto    ret19           ;21 63
02C1   2AC3           01036 ret20   goto    ret18           ;22 64
02C2   2AC4           01037 ret19   goto    ret17           ;23 65
02C3   285B           01038 ret18   goto    ret16           ;24 66
02C4   2AC5           01039 ret17   goto    ret15           ;25 67
02C5   2987           01040 ret15   goto    ret13           ;27 69
02C6   2AC7           01041 ret14   goto    ret12           ;28 70
MPASM  5.20           DCCDECOMANOLO_V5_71.ASM   5-6-2008  18:27:42         PAGE 21


LOC  OBJECT CODE     LINE SOURCE TEXT
  VALUE

02C7   28D0           01042 ret12   goto    ret10           ;30 72
02C8   2ABB           01043 ret8    goto    ret6            ;34 76
02C9   28C7           01044 ret4    goto    ret2                    ;80
                      01045 
                      01046 
                      01047 ; ********************************************************************************
                      01048 ; ********************************************************************************
                      01049 ; ********************************************************************************
                      01050 ; ********************************************************************************
                      01051 
                      01052 ;CVservOPS checks/WRites for servOPS mode instructions with the decoder in 
                      01053 ;servOPS mode. If the CV number in data2 is 06h (CV519), 07h (CV520)or 
                      01054 ;1Ch (CV541), then the WRite does not take place.
                      01055 
02CA                  01056 CVservOPS
                      01057         ;        btfss   configu,byte5
                      01058         ;        return
02CA   1E0C           01059         btfss   addcfg,servOPS  ;
02CB   0008           01060         return                  ;
02CC   01AA           01061         clrf    n
02CD   2317           01062         call    Twonrow         ; check two identical packets
02CE   3800           01063         iorlw   0x00            ; check two identical packets
02CF   1903           01064         btfsc   STATUS,Zbit     ; check two identical packets
02D0   0008           01065         return                  ; check two identical packets
02D1   0814           01066         movf    data2,W
02D2   3903           01067         andlw   B'00000011'     ; at least CV513 !
02D3   3A02           01068         xorlw   B'00000010'     ; at least CV513 !
02D4   1D03           01069         btfss   STATUS,Zbit     ; at least CV513 !
02D5   0008           01070         return                  ; nothing done
02D6   0815           01071         movf    data3,W         ;addresses start at 0
02D7   3A06           01072         xorlw   0x06            ; CV519    CV520   CV541
02D8   1903           01073         btfsc   STATUS,Zbit     ;00000110 00000111 00011100
02D9   0008           01074         return  ; got 519       ;00000110 00000110 00000110 XOR 0x06=00000110  
02DA   3A01           01075         xorlw   0x01            ;00000000 00000001 00011010
02DB   1903           01076         btfsc   STATUS,Zbit     ;         00000001 00000001 XOR 0x01=00000010
02DC   0008           01077         return  ; got 520       ;         00000000 00011011 
02DD   3A1B           01078         xorlw   0x1B            ;                  00011011 XOR 0x1B=00011011
02DE   1903           01079         btfsc   STATUS,Zbit     ;                  00000000
02DF   0008           01080         return  ; got 541       ;
02E0   0815           01081         movf    data3,W         ;addresses start at 0   
02E1   3C1F           01082         sublw   0x1F            ;only CVs 513(0x00) to 542(0x1D)
02E2   1C03           01083         btfss   STATUS,Carry
02E3   0008           01084         return
                      01085 ; all ok, now WRite EEARD as data3  EEDATA as data4
02E4   0815           01086         movfw   data3           ;
02E5   0089           01087         movwf   EEARD           ;
02E6   0816           01088         movfw   data4           ; 
02E7   0088           01089         movwf   EEDATA          ;
02E8   2380           01090         call    EEWRit2         ;
02E9   120C           01091         bcf     addcfg,servOPS  ;
02EA   2369           01092         call    Ackn            ;
02EB   0008           01093         return                  ; WRITTEN OPS !!!!
                      01094 
MPASM  5.20           DCCDECOMANOLO_V5_71.ASM   5-6-2008  18:27:42         PAGE 22


LOC  OBJECT CODE     LINE SOURCE TEXT
  VALUE

                      01095 ;CVserv checks for servTRK mode instructions with the decoder in servTRK
                      01096 ;mode. It then checks values of data1, data2, data3 and data4 with previous
                      01097 ;values to ensure a duplicate packet has been sent. It then checks for
                      01098 ;three or four byte packet to determine paged or direct CV access. 
                      01099 
02EC   1D0D           01100 CVserv  btfss   configu,byte5    ;40
02ED   1D8D           01101         btfss   configu,servTRK  ;41
02EE   0008           01102         return                  ;42
02EF   01AA           01103         clrf    n
02F0   0000           01104         nop
02F1   2317           01105         call    Twonrow
02F2   3800           01106         iorlw   0x00
02F3   1903           01107         btfsc   STATUS,Zbit
02F4   0008           01108         return
02F5   1C8D           01109         btfss   configu,byte4
02F6   2888           01110         goto    CVpage
02F7   0813           01111         movf    data1,w
02F8   3A76           01112         xorlw   0x76    ; [gi] DIR Mode cmd: 0111CCAA where AA=10 for CV >512
02F9   1903           01113         btfsc   STATUS,Zbit
02FA   2B4B           01114         goto    Ver1dir ; [gi] data2 contains offset in EEDATA
02FB   3A08           01115         xorlw   0x08
02FC   1D03           01116         btfss   STATUS,Zbit
02FD   0008           01117         return
02FE   2B00           01118         goto    WR1dir  ; [gi] data2 contains offset in EEDATA
                      01119         
                      01120 ;WR1 WRites the data in data3 into the CV listed in data2. If the CV
                      01121 ;number in data2 is 06h (CV519), 07h (CV520)or 1Ch (CV541), then the WRite
                      01122 ;does not take place.
                      01123 
02FF   0394           01124 WR1     decf    data2,f                 ; [gi] Jump Target for PageMode (data2=CV#)
0300   0815           01125 WR1dir  movf    data3,w                 ; [gi] data2 now contains offset in EEDATA. 
0301   0088           01126         movwf   EEDATA      
0302   0814           01127         movf    data2,w                                  ;addresses start at 0       
0303   3A06           01128         xorlw   0x06                    ;  CV519   CV520        CV521     CV541
0304   1903           01129         btfsc   STATUS,Zbit             ;00000110 00000111 00001000     00011100
0305   0008           01130         return                          ;00000110 00000110 00000110     00000110
0306   3A01           01131         xorlw   0x01                    ;00000000 00000001 00001111     00011010
0307   1903           01132         btfsc   STATUS,Zbit             ;         00000001 00000001     00000001
0308   0008           01133         return                          ;         00000000 00001110     00011011
0309   3A1B           01134         xorlw   0x1B                    ;                                       00011011
030A   1903           01135         btfsc   STATUS,Zbit             ;                                       00000000
030B   2B10           01136         goto    WRcon1
030C   3009           01137 WRcont  movlw   09h                     ;only CVs 513(1) to 521(9)
030D   0214           01138         subwf   data2,w
030E   1803           01139         btfsc   STATUS,Carry
030F   0008           01140         return
0310   0814           01141 WRcon1  movf    data2,w
0311   0089           01142         movwf   EEARD
0312   0064           01143         clrwdt
0313   1683           01144         bsf     STATUS,RP0
Message[302]: Register in operand not in bank 0.  Ensure that bank bits are correct.
0314   1508           01145         bsf     EECON1,WREN
0315   2376           01146         call    EEWRite
MPASM  5.20           DCCDECOMANOLO_V5_71.ASM   5-6-2008  18:27:42         PAGE 23


LOC  OBJECT CODE     LINE SOURCE TEXT
  VALUE

0316   2B69           01147         goto    Ackn
                      01148 
                      01149 ;Two in a row checks that the current packet is the second identical packet
                      01150 ;before performing a servTRK mode instruction or Advanced programming
                      01151 ;function.
                      01152 
0317   0813           01153 Twonrow movf    data1,w        
0318   0619           01154         xorwf   lastd1,w
0319   1D03           01155         btfss   STATUS,Zbit
031A   2B27           01156         goto    Lastpak
031B   0814           01157         movf    data2,w
031C   061A           01158         xorwf   lastd2,w
031D   1D03           01159         btfss   STATUS,Zbit
031E   2B27           01160         goto    Lastpak
031F   0815           01161         movf    data3,w
0320   061B           01162         xorwf   lastd3,w
0321   1D03           01163         btfss   STATUS,Zbit
0322   2B27           01164         goto    Lastpak
0323   0816           01165         movf    data4,w
0324   061C           01166         xorwf   lastd4,w
0325   1903           01167         btfsc   STATUS,Zbit
0326   34FF           01168         retlw   0xFF
                      01169 
                      01170 ;Lastpak saves the packet byte values to check for a repeated packet,
                      01171 ;necessary to execute a servTRK mode instruction.
                      01172 
0327   0813           01173 Lastpak movf    data1,w
0328   0099           01174         movwf   lastd1
0329   0814           01175         movf    data2,w
032A   009A           01176         movwf   lastd2
032B   0815           01177         movf    data3,w
032C   009B           01178         movwf   lastd3
032D   0816           01179         movf    data4,w
032E   009C           01180         movwf   lastd4
032F   3400           01181         retlw   0x00                 
                      01182 
                      01183 ;CV541s sets data2 to 1Ch (28).    
                      01184 
0330   301C           01185 CV541s  movlw   0x1C
0331   0094           01186         movwf   data2
0332   2B3D           01187         goto    CVcont
                      01188 
                      01189 ;CVfind determines the CV using the page register and the offset in the
                      01190 ;instruction. If the page is less than 128 then no action is taken as it
                      01191 ;is not an accessory CV. 
                      01192 
0333   0328           01193 CVfind  decf    pagereg,w
0334   0094           01194         movwf   data2
0335   1003           01195         bcf     STATUS,Carry
0336   0D94           01196         rlf     data2,f
0337   1C03           01197         btfss   STATUS,Carry            ;page must be 80h or more
0338   0008           01198         return
0339   0D94           01199         rlf     data2,f
MPASM  5.20           DCCDECOMANOLO_V5_71.ASM   5-6-2008  18:27:42         PAGE 24


LOC  OBJECT CODE     LINE SOURCE TEXT
  VALUE

                      01200         
033A   3003           01201         movlw   0x03
033B   0513           01202         andwf   data1,w
033C   0794           01203         addwf   data2,f
033D   1D93           01204 CVcont  btfss   data1,3
033E   2B4A           01205         goto    Ver1
033F   2AFF           01206         goto    WR1
                      01207 
                      01208 ;CVpgreg verifies or WRites the page register with data3 (data2).
                      01209 
0340   1D93           01210 CVpgreg btfss   data1,3
0341   2B45           01211         goto    Pagever
0342   0815           01212         movf    data3,w
0343   00A8           01213         movwf   pagereg
0344   0008           01214         return
                      01215 
0345   0828           01216 Pagever movf    pagereg,w                        
0346   0615           01217         xorwf   data3,w                            
0347   1D03           01218         btfss   STATUS,Zbit
0348   0008           01219         return
0349   2B69           01220         goto    Ackn
                      01221         
                      01222 ;CVverfy XORs the EE value at data2 with the value in data3.
                      01223 ;only CV 513 to 521 and 541 will verify. 
                      01224 
034A   0394           01225 Ver1    decf    data2,f         ; [gi] Jump Target for PageMode (data2=CV#)
                      01226                                 ; [gi] data2 now contains offset in EEDATA
                      01227 
034B   301C           01228 Ver1dir movlw   1Ch             ;is it CV541
034C   0614           01229         xorwf   data2,w
034D   1903           01230         btfsc   STATUS,Zbit
034E   2B53           01231         goto    ver2
034F   3009           01232         movlw   09h             ;only CVs 513(1) to 521(9)
0350   0214           01233         subwf   data2,w
0351   1803           01234         btfsc   STATUS,Carry
0352   0008           01235         return
0353   0814           01236 ver2    movf    data2,w         ;CVs address directly        
0354   0089           01237         movwf   EEARD
0355   2389           01238         call    EEread
0356   0615           01239         xorwf   data3,w
0357   1D03           01240         btfss   STATUS,Zbit
0358   0008           01241         return
0359   2B69           01242         goto    Ackn
                      01243 
035A   1D0D           01244 Dcontrl btfss   configu,byte5
035B   188D           01245         btfsc   configu,byte4
035C   0008           01246         return
035D   0814           01247         movf    data2,w
035E   1903           01248         btfsc   STATUS,Zbit
035F   2B64           01249         goto    Dreset
0360   3A0E           01250         xorlw   0x0E
0361   1903           01251         btfsc   STATUS,Zbit
0362   2B69           01252         goto    Ackn
MPASM  5.20           DCCDECOMANOLO_V5_71.ASM   5-6-2008  18:27:42         PAGE 25


LOC  OBJECT CODE     LINE SOURCE TEXT
  VALUE

0363   0008           01253         return
                      01254 
0364   019D           01255 Dreset  clrf    action          ;clear action
0365   1C8C           01256         btfss   addcfg,reset
0366   0008           01257         return
0367   158D           01258         bsf     configu,servTRK
0368   2878           01259         goto    Nextbyt
                      01260 
                      01261 
                      01262 
                      01263 ;Ackn sets ack output for 250ms (1024us X 250). 1024us is counted by
                      01264 ;bit 6 of rtcc register.Ack is used to flash the ack LED
                      01265 
0369   0064           01266 Ackn    clrwdt
                      01267  ;              bsf     PORTB,6         ;set ack line high
036A   1585           01268         bsf     PORTA, 3 ;set ack line high
036B   0181           01269         clrf    rtcc
036C   30FA           01270         movlw   .250          
036D   00AC           01271         movwf   temp
036E   1F01           01272 aloop   btfss   rtcc,6  ;6
036F   2B6E           01273         goto    aloop
0370   1301           01274         bcf     rtcc,6  ;6
0371   0064           01275         clrwdt                          ;since the WDG reset the device each 18ms, we have to resert it 
                            to alow a 250ms count (It is no possible to use the preescaler since it is assigned to rtcc
0372   0BAC           01276                 decfsz  temp,f
0373   2B6E           01277         goto    aloop
                      01278  ;       bcf    PORTB,6         ;set ack line low
0374   1185           01279         bcf     PORTA,3         ;set ack line low
                      01280  
0375   0008           01281       return
                      01282 
                      01283         
                      01284 
                      01285 ;Generic EE WRite subroutine that WRites EEDATA into EEARD. If the processor
                      01286 ;is busy with a previous WRite operation, the subroutine returns without
                      01287 ;WRiting. Inputs are EEARD and eeread.
                      01288 
0376   3055           01289 EEWRite movlw   0x55
Message[302]: Register in operand not in bank 0.  Ensure that bank bits are correct.
0377   0089           01290         movwf   EECON2
0378   30AA           01291         movlw   0xAA
Message[302]: Register in operand not in bank 0.  Ensure that bank bits are correct.
0379   0089           01292         movwf   EECON2
Message[302]: Register in operand not in bank 0.  Ensure that bank bits are correct.
037A   1488           01293         bsf     EECON1,WR
Message[302]: Register in operand not in bank 0.  Ensure that bank bits are correct.
037B   1888           01294 eeWRcon btfsc   EECON1,WR
037C   2B7B           01295         goto    eeWRcon
Message[302]: Register in operand not in bank 0.  Ensure that bank bits are correct.
037D   1108           01296         bcf     EECON1,WREN
037E   1283           01297         bcf     STATUS,RP0
037F   0008           01298         return
                      01299 
MPASM  5.20           DCCDECOMANOLO_V5_71.ASM   5-6-2008  18:27:42         PAGE 26


LOC  OBJECT CODE     LINE SOURCE TEXT
  VALUE

0380   1683           01300 EEWRit2 bsf     STATUS,RP0      ;67     bank1
Message[302]: Register in operand not in bank 0.  Ensure that bank bits are correct.
0381   1508           01301         bsf     EECON1,WREN     ;68     enable WRite
0382   3055           01302         movlw   0x55            ;69
Message[302]: Register in operand not in bank 0.  Ensure that bank bits are correct.
0383   0089           01303         movwf   EECON2          ;70     WRite 55h
0384   30AA           01304         movlw   0xAA            ;71
Message[302]: Register in operand not in bank 0.  Ensure that bank bits are correct.
0385   0089           01305         movwf   EECON2          ;72     WRite AAh
Message[302]: Register in operand not in bank 0.  Ensure that bank bits are correct.
0386   1488           01306         bsf     EECON1,WR       ;73     set WE bit enable WRite
0387   1283           01307         bcf     STATUS,RP0      ;74     bank0
0388   0008           01308         return                  ;
                      01309 
                      01310 ;EEread uses the file selct register to read the data stored in the EE
                      01311 ;memory location pointed to by EEARD.
                      01312 
0389   1400           01313 EEread  bsf     f0,rd
038A   0808           01314         movf    EEDATA,w
038B   0008           01315 asmend  return
                      01316 
2100                  01317         ORG     0x2100  ;The absolue address 2100h is
                      01318                           ;mapped to the 0000 location of
                      01319                           ;EE data memory in PIC16Fxxx.
                      01320                           ;You can create a data or
                      01321                           ;character table starting from
                      01322                           ;any address in EE data memory
                      01323 ;        DATA    0x00   ;Cv513    
2100   0002           01324         DATA    0x02    ;Cv513  en memoria 0                    
2101   00FF           01325         DATA    0xFF    ;Cv514  en memoria 1                            
2102   000A           01326         DATA    0x0A    ;Cv515  en memoria 2
2103   0000           01327         DATA    0x00    ;Cv516  en memoria 3
2104   0000           01328         DATA    0x00    ;Cv517  en memoria 4
2105   0000           01329         DATA    0x00    ;Cv518  en memoria 5
2106   0000           01330         DATA    0x00    ;               en memoria 6
2107   0000           01331         DATA    0x00    ;               en memoria 7
2108   0000           01332         DATA    0x00    ;               en memoria 8
2109   0000           01333         DATA    0x00    ;               en memoria 9
210A   0000           01334         DATA    0x00    ;               en memoria A
210B   0000           01335         DATA    0x00    ;               en memoria B
210C   0000           01336         DATA    0x00    ;               en memoria C
210D   0000           01337         DATA    0x00    ;               en memoria D
210E   0000           01338         DATA    0x00    ;               en memoria E
210F   0000           01339         DATA    0x00    ;               en memoria F
2110   0000           01340         DATA    0x00    ;               en memoria 10
2111   0000           01341         DATA    0x00    ;               en memoria 11
2112   0000           01342         DATA    0x00    ;               en memoria 12
2113   0000           01343         DATA    0x00    ;               en memoria 13
2114   0000           01344         DATA    0x00    ;               en memoria 14
2115   0000           01345         DATA    0x00    ;               en memoria 15
2116   0000           01346         DATA    0x00    ;               en memoria 16
2117   0000           01347         DATA    0x00    ;               en memoria 17
2118   0000           01348         DATA    0x00    ;               en memoria 18
MPASM  5.20           DCCDECOMANOLO_V5_71.ASM   5-6-2008  18:27:42         PAGE 27


LOC  OBJECT CODE     LINE SOURCE TEXT
  VALUE

2119   0000           01349         DATA    0x00    ;               en memoria 19
211A   0000           01350         DATA    0x00    ;               en memoria 1A
211B   0000           01351         DATA    0x00    ;               en memoria 1B
211C   0080           01352         DATA    0x80    ;               en memoria 1C
211D   0000           01353         DATA    0x00    ;               en memoria 1D
211E   0000           01354         DATA    0x00    ;               en memoria 1E
211F   0000           01355         DATA    0x00    ;               en memoria 1F
2120   0000           01356         DATA    0x00    ;               en memoria 20   MANOLO
2121   0001           01357         DATA    0x01    ;               en memoria 21   MANOLO memo
                      01358       
                      01359   END
MPASM  5.20           DCCDECOMANOLO_V5_71.ASM   5-6-2008  18:27:42         PAGE 28


SYMBOL TABLE
  LABEL                             VALUE 

Ackn                              00000369
Bitset                            000000C1
CV513a                            0000000F
CV514a                            00000011
CV521a                            00000010
CV541a                            00000012
CV541s                            00000330
CVcont                            0000033D
CVfind                            00000333
CVpage                            00000088
CVpgreg                           00000340
CVserv                            000002EC
CVservOPS                         000002CA
Carry                             00000000
Conthi                            00000022
Contlo                            00000029
Counter                           0000007C
Dcontrl                           0000035A
Decode                            0000006D
Dreset                            00000364
EEARD                             00000009
EECON1                            00000088
EECON2                            00000089
EEDATA                            00000008
EEWRit2                           00000380
EEWRite                           00000376
EEread                            00000389
End1                              000000DD
End2                              000000F3
End2b                             00000103
End2c                             00000111
End3                              00000114
End4                              00000120
End5                              0000012C
Endx                              000000D1
F1                                00000005
F2                                00000005
F3                                00000006
F4                                00000006
GIE                               00000007
Getval                            0000002F
Init                              00000000
Lastpak                           00000327
Lastv                             000000C8
Nextbyt                           00000078
PORTA                             00000005
PORTB                             00000006
Pagever                           00000345
RP0                               00000005
Resetv                            00000079
STATUS                            00000003
Starthi                           00000021
Startlo                           00000028
MPASM  5.20           DCCDECOMANOLO_V5_71.ASM   5-6-2008  18:27:42         PAGE 29


SYMBOL TABLE
  LABEL                             VALUE 

Testlo                            000000B0
Twonrow                           00000317
Update                            00000132
Ver1                              0000034A
Ver1dir                           0000034B
WR                                00000001
WR1                               000002FF
WR1dir                            00000300
WREN                              00000002
WRcon1                            00000310
WRcont                            0000030C
Waitlo                            000000A7
Waitn                             00000095
Zbit                              00000002
__16F84A                          00000001
__DEBUG                           1
action                            0000001D
addcfg                            0000000C
aloop                             0000036E
asmend                            0000038B
brdcst                            00000002
busy                              00000157
byte4                             00000001
byte5                             00000002
change                            0000002E
configu                           0000000D
count                             0000000E
count1                            0000015C
count2                            0000018D
count3                            000001B8
count4                            000001E3
count5                            0000020E
count6                            00000239
count7                            00000264
count8                            0000028F
data1                             00000013
data2                             00000014
data3                             00000015
data4                             00000016
data5                             00000017
ddra                              00000085
ddrb                              00000086
eeWRcon                           0000037B
end3hi                            0000011B
end4hi                            00000127
endval                            00000018
endx1                             000000D6
endx2                             000000D9
f                                 00000001
f0                                00000000
fsr                               00000004
idle                              00000005
intcon                            0000000B
MPASM  5.20           DCCDECOMANOLO_V5_71.ASM   5-6-2008  18:27:42         PAGE 30


SYMBOL TABLE
  LABEL                             VALUE 

lastd1                            00000019
lastd2                            0000001A
lastd3                            0000001B
lastd4                            0000001C
lastv1                            000000CE
m                                 00000029
memo                              0000002D
n                                 0000002A
noacc                             00000077
off1                              0000016E
off2                              0000019F
off3                              000001CA
off4                              000001F5
off5                              00000220
off6                              0000024B
off7                              00000276
off8                              000002A1
optreg                            00000081
pagereg                           00000028
pc                                00000002
pclath                            0000000A
primary                           00000000
rd                                00000000
reset                             00000001
ret0                              0000018C
ret1                              0000018B
ret10                             000000D0
ret11                             00000188
ret12                             000002C7
ret13                             00000187
ret14                             000002C6
ret15                             000002C5
ret16                             0000005B
ret17                             000002C4
ret18                             000002C3
ret19                             000002C2
ret2                              000000C7
ret20                             000002C1
ret21                             000002C0
ret22                             000002BE
ret23                             000002BF
ret25                             000002BD
ret27                             000002BC
ret3                              0000018A
ret4                              000002C9
ret5                              00000189
ret6                              000002BB
ret7                              000002BA
ret8                              000002C8
ret9                              0000011F
rp1                               00000006
rtcc                              00000001
servOPS                           00000004
MPASM  5.20           DCCDECOMANOLO_V5_71.ASM   5-6-2008  18:27:42         PAGE 31


SYMBOL TABLE
  LABEL                             VALUE 

servTRK                           00000003
state                             0000002B
strmemo                           00000147
t1a                               00000173
t1b                               00000178
t1c                               0000017A
t2a                               000001A4
t2b                               000001A9
t2c                               000001AB
t3a                               000001CF
t3b                               000001D4
t3c                               000001D6
t4a                               000001FA
t4b                               000001FF
t4c                               00000201
t5a                               00000225
t5b                               0000022A
t5c                               0000022C
t6a                               00000250
t6b                               00000255
t6c                               00000257
t7a                               0000027B
t7b                               00000280
t7c                               00000282
t8a                               000002A6
t8b                               000002AB
t8c                               000002AD
temp                              0000002C
tick1                             0000001E
time1                             00000020
time2                             00000021
time3                             00000022
time4                             00000023
time5                             00000024
time6                             00000025
time7                             00000026
time8                             00000027
value                             00000000
ver2                              00000353
w                                 00000000


MEMORY USAGE MAP ('X' = Used,  '-' = Unused)

0000 : XXXXXXXXXXXXXXXX XXXXXXXXXXXXXXXX XXXXXXXXXXXXXXXX XXXXXXXXXXXXXXXX
0040 : XXXXXXXXXXXXXXXX XXXXXXXXXXXXXXXX XXXXXXXXXXXXXXXX XXXXXXXXXXXXXXXX
MPASM  5.20           DCCDECOMANOLO_V5_71.ASM   5-6-2008  18:27:42         PAGE 32


MEMORY USAGE MAP ('X' = Used,  '-' = Unused)


0080 : XXXXXXXXXXXXXXXX XXXXXXXXXXXXXXXX XXXXXXXXXXXXXXXX XXXXXXXXXXXXXXXX
00C0 : XXXXXXXXXXXXXXXX XXXXXXXXXXXXXXXX XXXXXXXXXXXXXXXX XXXXXXXXXXXXXXXX
0100 : XXXXXXXXXXXXXXXX XXXXXXXXXXXXXXXX XXXXXXXXXXXXXXXX XXXXXXXXXXXXXXXX
0140 : XXXXXXXXXXXXXXXX XXXXXXXXXXXXXXXX XXXXXXXXXXXXXXXX XXXXXXXXXXXXXXXX
0180 : XXXXXXXXXXXXXXXX XXXXXXXXXXXXXXXX XXXXXXXXXXXXXXXX XXXXXXXXXXXXXXXX
01C0 : XXXXXXXXXXXXXXXX XXXXXXXXXXXXXXXX XXXXXXXXXXXXXXXX XXXXXXXXXXXXXXXX
0200 : XXXXXXXXXXXXXXXX XXXXXXXXXXXXXXXX XXXXXXXXXXXXXXXX XXXXXXXXXXXXXXXX
0240 : XXXXXXXXXXXXXXXX XXXXXXXXXXXXXXXX XXXXXXXXXXXXXXXX XXXXXXXXXXXXXXXX
0280 : XXXXXXXXXXXXXXXX XXXXXXXXXXXXXXXX XXXXXXXXXXXXXXXX XXXXXXXXXXXXXXXX
02C0 : XXXXXXXXXXXXXXXX XXXXXXXXXXXXXXXX XXXXXXXXXXXXXXXX XXXXXXXXXXXXXXXX
0300 : XXXXXXXXXXXXXXXX XXXXXXXXXXXXXXXX XXXXXXXXXXXXXXXX XXXXXXXXXXXXXXXX
0340 : XXXXXXXXXXXXXXXX XXXXXXXXXXXXXXXX XXXXXXXXXXXXXXXX XXXXXXXXXXXXXXXX
0380 : XXXXXXXXXXXX---- ---------------- ---------------- ----------------
2000 : -------X-------- ---------------- ---------------- ----------------
2100 : XXXXXXXXXXXXXXXX XXXXXXXXXXXXXXXX XX-------------- ----------------

All other memory blocks unused.

Program Memory Words Used:   908
Program Memory Words Free:   116


Errors   :     0
Warnings :     0 reported,     0 suppressed
Messages :    19 reported,     0 suppressed

