:020000040000FA
:10000000831617308500003086008430810083120B
:1000100088308400031E1D28213089000014080840
:10002000AD008600AE00A001A101A201A301A401C0
:10003000A501A601A7019E0181018B01AB01A901C8
:10004000AA018D019D0185013220051D2B28A91FC4
:10005000A90A35212528322005192428A91FA90A13
:1000600035212C28AA0A290803197C286400A90133
:100070000D10FD3E031C0D140318AA01E7302B07D9
:100080000318AB012B0882079828AA28B328C42894
:10009000CB28C428CB28C428CB28C428CB28C428E4
:1000A000CB28C428CB28C428CB28C428D428E028AF
:1000B000F628172923292F29AB010D1CC92A0C0862
:1000C00003198B2913081406150616061706031DB7
:1000D000CC2A0C1ACD2A8C19EF2AAA018D110D12E7
:1000E0001408E03903195D2B941F7A2814080F397E
:1000F0009D009D1708000800AB01AA01BF2A8E0AC7
:1001000007300E0582075F299029BB29E629112AAD
:100110003C2A672A922A14089500073013058207A3
:10012000362B362B362B362B332B432B080008006F
:10013000EC302A07031C8B29AB0A950196018C0130
:1001400098010130890000140808910000000000A7
:10015000000008000D1CAB0A0030890000140808DC
:100160008F008F17BE2AAB0A0D18AB01083089002B
:10017000001408089000900D900D900D900D9009BE
:100180007030900500000800AB0A03100D1803142E
:10019000970D22298F29AB0A0D1CD128171CAB0102
:1001A00022291718AB01CB2A0D1CD928171CAB0923
:1001B000DC281718AB090000980A1808AB078D292E
:1001C0000230AB00170893000D18AB011308031998
:1001D0008C14BF3A03190C151308FF3A03198C1637
:1001E00013087F39903E03188C1508000230AB00CD
:1001F000170894000D18AB0114088C390C3A031938
:100200000C168C1E06291408031D8C121408703954
:10021000031D0C110C1414087039100603190C146A
:1002200013080F06031908000C100C1208000D1813
:100230001E290230AB0017089500CB2A1830AB00FE
:100240008D100D11BD2A0D182A290230AB00170898
:100250009600CB2A1830AB008D140D11BD2AAB0AC5
:100260000D1CAB018D140D1522293F300102031C1A
:100270007F289E0A810100000A301E02031C4A29C1
:100280009E01A00AA10AA20AA30AA40AA50AA60A14
:10029000A70ACA2A2D082E020319C72A2D08AE0064
:1002A0008800213089008316081555308900AA304E
:1002B0008900881488185A29081183128F299D1FD4
:1002C00076291D080739003A031D7B29111C7D2959
:1002D0009D1D712906149E01A0019D132D1400007F
:1002E0008D2906109D132D100000CC2A000000005F
:1002F000000000000000000000000230890000142F
:10030000080803198C290618AD10200203180610DE
:10031000000008008B2922298D298E290000080061
:100320009D1FA7291D080739013A031DAC29911CFF
:10033000AE299D1DA22986149E01A1019D13AD1415
:1003400000008D2986109D13AD100000CC2A0000FE
:1003500000000000000000000000000002308900E2
:100360000014080803198C2986182D10210203187F
:100370008610000008009D1FD2291D080739023A87
:10038000031DD729111DD9299D1DCD2906159E01B3
:10039000A2019D132D1500008D2906119D132D110D
:1003A0000000CC2A00000000000000000000000057
:1003B0000000033089000014080803198C2906196D
:1003C000AD11220203180611000008009D1FFD292F
:1003D0001D080739033A031D022A911D042A9D1D99
:1003E000F82986159E01A3019D13AD1500008D29E6
:1003F00086119D13AD110000CC2A00000000000002
:10040000000000000000000003308900001408080C
:1004100003198C2986192D11230203188611000057
:1004200008009D1F282A1D080739043A031D2D2A9C
:10043000111E2F2A9D1D232A06169E01A4019D131D
:100440002D1600008D2906129D132D120000CC2AB6
:100450000000000000000000000000000000043068
:1004600089000014080803198C29061AAD12240209
:1004700003180612000008009D1F532A1D080739A3
:10048000053A031D582A911E5A2A9D1D4E2A86168A
:100490009E01A5019D13AD1600008D2986129D13A6
:1004A000AD120000CC2A0000000000000000000097
:1004B00000000000043089000014080803198C298A
:1004C000861A2D12250203188612000008009D1FAF
:1004D0007E2A1D080739063A031D832A111F852A23
:1004E0009D1D792A06179E01A6019D132D17000058
:1004F0008D2906139D132D130000CC2A0000000047
:100500000000000000000000000005308900001419
:10051000080803198C29061BAD13260203180613BD
:10052000000008009D1FA92A1D080739073A031D6E
:10053000AE2A911FB02A9D1DA42A86179E01A701ED
:100540009D13AD1700008D2986139D13AD13000078
:10055000CC2A0000000000000000000000000000A5
:10056000053089000014080803198C29861B2D13F7
:10057000270203188613000008008D29CC2AC02A00
:10058000C22AC42AC32AC52AC62AC72A5E28C82A5C
:100590008A29CA2AD328BE2ACA280C1E0800AA0102
:1005A0001A2300380319080014080339023A031DFE
:1005B00008001508063A03190800013A0319080053
:1005C0001B3A0319080015081F3C031C08001508F6
:1005D00089001608880083230C126C2308000D1D67
:1005E0008D1D0800AA0100001A2300380319080015
:1005F0008D1C8B281308763A03194E2B083A031DDD
:100600000800032B9403150888001408063A031900
:100610000800013A031908001B3A0319132B09308B
:1006200014020318080014088900640083160815D2
:1006300079236C2B13081906031D2A2B14081A069C
:10064000031D2A2B15081B06031D2A2B16081C0642
:100650000319FF341308990014089A0015089B0029
:1006600016089C0000341C309400402B2803940092
:100670000310940D031C0800940D03301305940718
:10068000931D4D2B022B931D482B1508A800080025
:1006900028081506031D08006C2B94031C30140653
:1006A0000319562B09301402031808001408890096
:1006B0008C231506031D08006C2B0D1D8D180800DA
:1006C00014080319672B0E3A03196C2B08009D01BF
:1006D0008C1C08008D157B28640085158101FA307B
:1006E000AC00011F712B01136400AC0B712B851141
:1006F000080055308900AA308900881488187E2B9C
:100700000811831208008316081555308900AA3095
:0E0710008900881483120800001408080800ED
:02400E00F63F7B
:104200000000FF000A000A000A000A000000000087
:10421000000000000000000000000000000000009E
:10422000000000000000000000000000000000008E
:1042300000000000000000008000000000000000FE
:04424000000000007A
:00000001FF
