MPASM  5.20           DCCDECOMANOLO_V6_02.ASM   11-30-2009  21:50:23         PAGE  1


LOC  OBJECT CODE     LINE SOURCE TEXT
  VALUE

                      00001 ;Dbacc4:  Accessory decoder based on original loco decoder program by D Probst
                      00002 ;       Modifications by M. Bolton (2DEC98) and G.Ising (16OCT00)
                      00003 ;               MERG-DCC http://home.freeuk.net/merg/resources/dcc.htm 
                      00004 ;       Modified by Stefano Curtarolo (1NOV01)
                      00005 ;               Accessory decoder configuration variable access istruction
                      00006 ;               http://www.tttrains.com/nmradcc/rp921.html#accessory_packets
                      00007 ;               was added. NCE and SYS1 systems uses that protocol in accessory
                      00008 ;               OPS mode (prog-7-enter). 
                      00009 ;               For other DCC projects of Stefano Curtarolo pleas look @ MIT
                      00010 ;               web:  http://nietzsche.mems.duke.edu/auro/trains/tech/DCC/
                      00011 ;       Program is intended to be used with the accessory decoder design        
                      00012 ;       by M Bolton. The decoder is opto isolated so the ack function is a LED 
                      00013 ;       on the decoder board itself. No power booster is required but the signals
                      00014 ;       can be taken from the track if desired. 
                      00015 ;       A separate 20v AC power supply is needed.
                      00016 ;       Decoder includes circuitry to drive solenoid
                      00017 ;       point motors using a capacitor discharge technique. 
                      00018 ;
                      00019 ;       Tested with one set of four switches, with all addresses.
                      00020 ;       Seems OK so far.
                      00021 ;
                      00022 ;       Schematic, PCB layout and source listing (+ HEX file) available. Contact
                      00023 ;       Mike Bolton at bolton@fs1.with.man.ac.uk.
                      00024 ;
                      00025 ;       Details of a matching accessory encoder are also available.
                      00026 ;
                      00027 ;
                      00028 ;This is code for a PIC16F84 (or 16C84). This
                      00029 ;program will read three, four, and five byte packets and supports paged
                      00030 ;and direct CV servTRK mode access of CV data. 
                      00031 ;
                      00032 ;The decoder follows the NMRA standard for an Accessory Decoder. It controls
                      00033 ;four pairs of outputs with on times set by the CVs in increments of 
                      00034 ;10 millisecs. Range is 10 ms to 2.54 sec.or continuous.
                      00035 ;
                      00036 ;Supports 9 bit addressing.(3 byte packets) at present.
                      00037 
                      00038 ;The processor is ured to operate at 8MHz. 
                      00039 ;When programming,the fuses should be set with HS clock, WDT on.
                      00040 ;
                      00041 
                      00042 ;The following NMRA defined CV's and ranges are supported...
                      00043 
                      00044 ;CV513  Lower 6 address bits    00h - 3Fh  
                      00045 ;CV514  Auxiliary activation    00h - FFh  Bits 0 to 7.Each bit sets an output.
                      00046 ;                                          1 is active, 0 is inactive   
                      00047 ;CV515  F1 function 'on' time   00h - FFh  Time in 10ms steps. 0 is continuous.
                      00048 ;CV516  F2  
                      00049 ;CV517  F3                                        
                      00050 ;CV518  F4
                      00051 ;CV519  Version Number          00h -FFh   Cannot be changed (same as CV8)
                      00052 ;CV520  Manufacturers ID        00h -FFh   Cannot be changed (same as CV9)
                      00053 ;                
MPASM  5.20           DCCDECOMANOLO_V6_02.ASM   11-30-2009  21:50:23         PAGE  2


LOC  OBJECT CODE     LINE SOURCE TEXT
  VALUE

                      00054 ;CV521  Upper 3 bits of         00h -07h
                      00055 ;       address     
                      00056 ;CV541  Configuration           Bit 7 = 1  Cannot be changed (same as CV29)
                      00057 
                      00058 ;       No other CVs are supported.
                      00059 
Warning[215]: Processor superseded by command line.  Verify processor symbol.
                      00060         processor       16F84
2007   3FF6           00061         __CONFIG        h'3FF6' ; PUTimer on, WDT on, HS clock  
                      00062 
                      00063 ;Variable definition - PIC16F84 control registers.
                      00064 
  00000000            00065 f0      equ     00
  00000001            00066 rtcc    equ     01
  00000081            00067 optreg  equ             81      ;page 1
  00000002            00068 pc      equ     02
  00000003            00069 STATUS  equ     03
  00000000            00070 Carry   equ     0
  00000002            00071 Zbit    equ     2
  00000005            00072 RP0     equ     5
  00000006            00073 rp1     equ     6
  00000004            00074 fsr     equ     04
  00000005            00075 PORTA   equ     05
  00000005            00076 F1              equ             05
  00000005            00077 F2              equ             05
  00000085            00078 ddra    equ             85      ;page 1
  00000006            00079 PORTB   equ     06
  00000006            00080 F3              equ             06
  00000006            00081 F4              equ             06
  00000086            00082 ddrb    equ             86      ;page 1
  00000008            00083 EEDATA  equ     08
  00000009            00084 EEARD   equ     09
  00000008            00085 EECON1  equ     08 ;88
  00000000            00086 rd      equ     0
  00000001            00087 WR      equ     1
  00000002            00088 WREN    equ     2
  00000009            00089 EECON2  equ     09; 89
  0000000A            00090 pclath  equ     0A
  0000000B            00091 intcon  equ     0B
                      00092 ;GIE            equ             7
  00000001            00093 f       equ     1
  00000000            00094 w       equ     0
                      00095 
                      00096 ;Varible definition - User RAM.
                      00097 
  0000000C            00098 addcfg  equ     0C      ;address configuration
  00000000            00099 primary equ     0       ;accessory address match
  00000001            00100 reset   equ     1       ;reset packet
  00000002            00101 brdcst  equ             2       ;accessory broadcast
  00000003            00102 servTRK equ     3
  00000004            00103 servOPS equ     4
  00000005            00104 idle    equ             5       
  0000000D            00105 configu equ     0D
MPASM  5.20           DCCDECOMANOLO_V6_02.ASM   11-30-2009  21:50:23         PAGE  3


LOC  OBJECT CODE     LINE SOURCE TEXT
  VALUE

  00000000            00106 value   equ     0
  00000001            00107 byte4   equ     1       ;not used yet
  00000002            00108 byte5   equ     2       ;not used yet
                      00109 
                      00110 ;registers
                      00111 
  0000000E            00112 count   equ     0E      ;counts which output
  0000000F            00113 CV513a  equ     0F      ;holds CV513 low address bits
  00000010            00114 CV521a  equ     10      ;holds CV521 high address bits
  00000011            00115 CV514a  equ             11      ;which outputs to activate
  00000012            00116 CV541a  equ     12      ;configu CV
  00000013            00117 data1   equ     13      ;first packet byte
  00000014            00118 data2   equ     14      ;second packet byte
  00000015            00119 data3   equ     15
  00000016            00120 data4   equ     16
  00000017            00121 data5   equ     17
  00000018            00122 endval  equ     18
  00000019            00123 lastd1  equ     19
  0000001A            00124 lastd2  equ     1A
  0000001B            00125 lastd3  equ     1B
  0000001C            00126 lastd4  equ     1C
  0000001D            00127 action  equ     1D      ;4 bits of accessory command
  0000001E            00128 tick1   equ     1E      ;counts 10 millisec intervals
  00000020            00129 time1   equ     20      ;on time for output 1 etc.
  00000021            00130 time2   equ             21
  00000022            00131 time3   equ             22
  00000023            00132 time4   equ             23
  00000024            00133 time5   equ             24
  00000025            00134 time6   equ             25
  00000026            00135 time7   equ             26
  00000027            00136 time8   equ             27
                      00137 
  00000028            00138 pagereg equ     28
  00000029            00139 m       equ     29      ;as in Dean Probst's decode
  0000002A            00140 n       equ     2A
  0000002B            00141 state   equ     2B
  0000002C            00142 temp    equ     2C
  0000002D            00143 memo    equ             2D 
  0000002E            00144 change  equ             2E 
                      00145 
                      00146 
                      00147 
                      00148 ;Init sets as all outputs, pin b7 as input and the rest of PORTB as
                      00149 ;outputs and sets the rtcc counter to divide by 32 (16us at 8MHz clock).
                      00150 ;FSR is set to 88h for indirect access to EECON register from page 00.
                      00151 
0000   1683           00152 Init bsf        STATUS,RP0      ;set to page 1
                      00153 
0001   3017           00154         movlw   B'00010111'     ;port a data in and ack out A3
Message[302]: Register in operand not in bank 0.  Ensure that bank bits are correct.
0002   0085           00155         movwf   ddra
0003   3000           00156         movlw   B'00000000'     ;port b 7outputs
Message[302]: Register in operand not in bank 0.  Ensure that bank bits are correct.
MPASM  5.20           DCCDECOMANOLO_V6_02.ASM   11-30-2009  21:50:23         PAGE  4


LOC  OBJECT CODE     LINE SOURCE TEXT
  VALUE

0004   0086           00157         movwf   ddrb
0005   3084           00158         movlw   B'10000100'     ;set option reg RTCC /32
Message[302]: Register in operand not in bank 0.  Ensure that bank bits are correct.
0006   0081           00159         movwf   optreg
0007   1283           00160         bcf     STATUS,RP0
                      00161 
0008   3088           00162                 movlw   0x88                    ;fSR is set to 88h for indirect access to EECON register
                             from page 00
0009   0084           00163         movwf   fsr
                      00164                 
000A   1E03           00165         btfss   STATUS, 4               ;if we come from a wdt timeout does not need to charge MEMO and 
                            rest timers (useful when the deco is turned on but still no signal in the entry
000B   281D           00166                 goto    NOTINIT                 
                      00167 
000C   3021           00168 INIT    movlw   0x21            ;     EE=21   MEMO
000D   0089           00169         movwf   EEARD           ;
000E   1400           00170                 bsf     f0,rd
000F   0808           00171                 movf    EEDATA,w   
0010   00AD           00172                 movwf   memo                    ;Status of port B is stored in MEMO
0011   0086           00173                 movwf   PORTB
0012   00AE           00174                 movwf   change
                      00175 
0013   01A0           00176                 clrf    time1
0014   01A1           00177                 clrf    time2
0015   01A2           00178                 clrf    time3
0016   01A3           00179                 clrf    time4
0017   01A4           00180                 clrf    time5
0018   01A5           00181                 clrf    time6
0019   01A6           00182                 clrf    time7
001A   01A7           00183                 clrf    time8
001B   019E           00184                 clrf    tick1   
001C   0181           00185                 clrf    rtcc
                      00186 
001D   018B           00187 NOTINIT clrf    intcon
001E   01AB           00188         clrf    state
001F   01A9           00189         clrf    m
0020   01AA           00190         clrf    n
0021   018D           00191         clrf    configu
0022   019D           00192         clrf    action
0023   0185           00193                 clrf    PORTA
                      00194 
                      00195 
                      00196 ;The following routine loops between Starthi and Startlo in a precisely 
                      00197 ;timed sequence that samples track voltage at 22us intervals, decodes the
                      00198 ;incoming packet, and updates the decoder outputs. When a change in 
                      00199 ;voltage is detected, a half-bit is defined and the subroutine 
                      00200 ;Getstat is called to check the value of the half-bit and decode the 
                      00201 ;sequence. Subsequent delays between samplings call the update subroutine 
                      00202 ;to update the outputs and timing registers of the microcontoller. At 22us, 
                      00203 ;the values of the half-bits are determined as follows:
                      00204 ;
                      00205 ;       Delays          Possible Duration
                      00206 ;       1               1us  - 43us
MPASM  5.20           DCCDECOMANOLO_V6_02.ASM   11-30-2009  21:50:23         PAGE  5


LOC  OBJECT CODE     LINE SOURCE TEXT
  VALUE

                      00207 ;       2               23us - 65us
                      00208 ;       3               45us - 87us
                      00209 ;       4               67us - up
                      00210 ;
                      00211 ;With these values, one delay will be 43us or less and will reset 
                      00212 ;the packet decode sequence. Two or three delays will be 23us to 87us and 
                      00213 ;will be recognized as a hi (1) half-bit. This completely encompasses the 
                      00214 ;duration required by the NMRA DCC standards of 52us to 64us. Four or more 
                      00215 ;delays will be 67us or greater and are recognized as a low (0) half-bit.
                      00216 ;Again, this meets the NMRA DCC requirements of 90us to 10000us.
                      00217 
                      00218 ; Durations of
                      00219 ;~18ms in length, such as DC or when the signal is lost, will cause the
                      00220 ;watch dog timer to reset, reseting the decoder. 
                      00221 
                      00222 ;                               timing
                      00223 
0024   2032           00224 Starthi call    Getval          ;3
0025   1D05           00225 Conthi  btfss   PORTA,2         ;44/0/88        Manolo
0026   282B           00226         goto    Startlo         ;45/1
0027   1FA9           00227         btfss   m,7             ;46
0028   0AA9           00228         incf    m,f             ;47        
0029   2135           00229         call    Update          ;48
002A   2825           00230         goto    Conthi          ;86
                      00231 
002B   2032           00232 Startlo call    Getval          ;3
002C   1905           00233 Contlo  btfsc   PORTA,2         ;44/0/88        Manolo
002D   2824           00234         goto    Starthi         ;45/1
002E   1FA9           00235         btfss   m,7             ;46
002F   0AA9           00236         incf    m,f             ;47       
0030   2135           00237         call    Update          ;48
0031   282C           00238         goto    Contlo          ;86
                      00239 
                      00240 ;Getval checks m for a value of 0 (reset), 1 or 2 (hi) or greater (low).
                      00241 ;It then checks state for a value less than or equal to 24 (18h) and then
                      00242 ;adds state to pc register (program counter) to offset execution to a 
                      00243 ;specific subroutine.
                      00244 
0032   0AAA           00245 Getval  incf    n,f             ;5
0033   0829           00246         movf    m,w             ;6
0034   1903           00247         btfsc   STATUS,Zbit     ;7
0035   287C           00248         goto    Resetv          ;8
0036   0064           00249         clrwdt                  ;9
0037   01A9           00250         clrf    m               ;10
0038   100D           00251         bcf     configu,value    ;11
0039   3EFD           00252         addlw   0xFD            ;12
003A   1C03           00253         btfss   STATUS,Carry    ;13
003B   140D           00254         bsf     configu,value    ;14
003C   1803           00255         btfsc   STATUS,Carry    ;15
003D   01AA           00256         clrf    n               ;16
003E   30E7           00257         movlw   0xE7            ;17
003F   072B           00258         addwf   state,w         ;18
0040   1803           00259         btfsc   STATUS,Carry    ;19
MPASM  5.20           DCCDECOMANOLO_V6_02.ASM   11-30-2009  21:50:23         PAGE  6


LOC  OBJECT CODE     LINE SOURCE TEXT
  VALUE

0041   01AB           00260         clrf    state           ;20
0042   082B           00261         movf    state,w         ;21
0043   0782           00262         addwf   pc,f            ;22
                      00263                                               ;state
0044   2898           00264         goto    Waitn           ;24             ;0     
0045   28AA           00265         goto    Waitlo                          ;1
0046   28B3           00266         goto    Testlo                          ;2
                      00267 
0047   28C4           00268         goto    Bitset                          ;3
0048   28CB           00269         goto    Lastv                           ;4
0049   28C4           00270         goto    Bitset                          ;5
004A   28CB           00271         goto    Lastv                           ;6
004B   28C4           00272         goto    Bitset                          ;7
004C   28CB           00273         goto    Lastv                           ;8
004D   28C4           00274         goto    Bitset                          ;9
004E   28CB           00275         goto    Lastv                           ;10
004F   28C4           00276         goto    Bitset                          ;11
0050   28CB           00277         goto    Lastv                           ;12
0051   28C4           00278         goto    Bitset                          ;13
0052   28CB           00279         goto    Lastv                           ;14
0053   28C4           00280         goto    Bitset                          ;15
0054   28CB           00281         goto    Lastv                           ;16
0055   28C4           00282         goto    Bitset                          ;17
0056   28D4           00283         goto    Endx                            ;18
                      00284 
0057   28E0           00285         goto    End1                            ;19
0058   28F6           00286         goto    End2                            ;20
0059   2917           00287         goto    End3                            ;21
005A   2923           00288         goto    End4                            ;22
005B   292F           00289         goto    End5                            ;23
                      00290         
                      00291 ;This is the last state of the packet decode sequence. It first checks for
                      00292 ;a high half-bit. It then XORs the five data bytes to check packet parity. 
                      00293 ;It then checks addcfg register flags to determine instruction address 
                      00294 ;and branches to CVserv or Decode.
                      00295 
005C   01AB           00296         clrf    state           ;24        state = 24
005D   1C0D           00297         btfss   configu,value   ;25
005E   2AC9           00298 ret16   goto    ret14           ;26     68
005F   080C           00299         movf    addcfg,w        ;27
0060   1903           00300         btfsc   STATUS,Zbit     ;28
0061   298B           00301         goto    ret11           ;29
0062   0813           00302         movf    data1,w         ;30
0063   0614           00303         xorwf   data2,w         ;31
0064   0615           00304         xorwf   data3,w         ;32
0065   0616           00305         xorwf   data4,w         ;33
0066   0617           00306         xorwf   data5,w         ;34
0067   1D03           00307         btfss   STATUS,Zbit     ;35
0068   2ACC           00308         goto    ret4            ;36
0069   1A0C           00309         btfsc   addcfg,servOPS
006A   2ACD           00310         goto    CVservOPS       ;       if(SERVOPS_MODE) goto CVservOPS
006B   198C           00311         btfsc   addcfg,servTRK  ;37
006C   2AEF           00312         goto    CVserv          ;38
MPASM  5.20           DCCDECOMANOLO_V6_02.ASM   11-30-2009  21:50:23         PAGE  7


LOC  OBJECT CODE     LINE SOURCE TEXT
  VALUE

006D   01AA           00313         clrf    n               ;39     
006E   118D           00314         bcf     configu,servTRK ;40
006F   120D           00315         bcf     configu,servOPS ;40
                      00316                 
                      00317 
0070                  00318 Decode  ;btfsc  addcfg,primary
                      00319         ;nop
0070   0814           00320         movf    data2,w         ;Dcontrl        action
0071   39E0           00321         andlw   0xE0            ;000
0072   1903           00322         btfsc   STATUS,Zbit     ;reset packet
0073   2B5D           00323         goto    Dcontrl 
0074   1F94           00324         btfss   data2,7         ;accessory instruction?
0075   287A           00325         goto    noacc
0076   0814           00326         movf    data2,w         ;recover byte           
0077   390F           00327         andlw   B'00001111'     ;mask
0078   009D           00328         movwf   action          ;decoder instruction (four bits)
0079   179D           00329         bsf     action,7        ;set new action
007A   0008           00330 noacc   return  
                      00331 
007B   0008           00332 Nextbyt return
                      00333        
                      00334 
007C   01AB           00335 Resetv  clrf    state           ;11
007D   01AA           00336         clrf    n               ;12
007E   2ABF           00337         goto    ret27           ;13
                      00338 
                      00339 ;Counter jumps to alternating output update routines. It is called from the
                      00340 ;Update routine.
                      00341 
007F   0A8E           00342 Counter incf    count,f         ;55
0080   3007           00343         movlw   B'00000111'     ;56
0081   050E           00344         andwf   count,w         ;57
0082   0782           00345         addwf   pc,f            ;58
0083   295F           00346         goto    count1          ;60
0084   2990           00347         goto    count2  
0085   29BB           00348         goto    count3
0086   29E6           00349         goto    count4
0087   2A11           00350                 goto    count5
0088   2A3C           00351         goto    count6
0089   2A67           00352                 goto    count7
008A   2A92           00353                 goto    count8
                      00354 
                      00355 ;CVpage is for three byte servTRK mode addressing (page addressing). It 
                      00356 ;uses the page register and the offset in data1 to calculate the CV number. 
                      00357 ;The data in data2 is moved to data3 and the calculated CV is stored in
                      00358 ;data2.
                      00359 
008B   0814           00360 CVpage  movf    data2,w                
008C   0095           00361         movwf   data3
008D   3007           00362         movlw   0x07
008E   0513           00363         andwf   data1,w
008F   0782           00364         addwf   pc,f
                      00365 
MPASM  5.20           DCCDECOMANOLO_V6_02.ASM   11-30-2009  21:50:23         PAGE  8


LOC  OBJECT CODE     LINE SOURCE TEXT
  VALUE

0090   2B36           00366         goto    CVfind
0091   2B36           00367         goto    CVfind
0092   2B36           00368         goto    CVfind
0093   2B36           00369         goto    CVfind
0094   2B33           00370         goto    CV541s
0095   2B43           00371         goto    CVpgreg
0096   0008           00372         return
0097   0008           00373         return                                 
                      00374         
                      00375 ;
                      00376 
                      00377 ;Waitn waits for 20 hi half-bits (ten hi bits of the pre-amble) to start
                      00378 ;the decode sequence. Also reads CV514
                      00379 
0098   30EC           00380 Waitn   movlw   0xEC            ;26
0099   072A           00381         addwf   n,w             ;27
009A   1C03           00382         btfss   STATUS,Carry    ;28
009B   298B           00383         goto    ret11           ;29
009C   0AAB           00384         incf    state,f         ;30
009D   0195           00385         clrf    data3           ;31
009E   0196           00386         clrf    data4           ;32
009F   018C           00387         clrf    addcfg          ;33
00A0   0198           00388         clrf    endval          ;34
00A1   3001           00389                 movlw   0x01            ;35     EE=1    CV514
00A2   0089           00390         movwf   EEARD           ;36
00A3   1400           00391         bsf     f0,rd           ;37
00A4   0808           00392         movf    EEDATA,w        ;38
00A5   0091           00393                 movwf   CV514a          ;39
00A6   0000           00394         nop                     ;40
00A7   0000           00395                 nop                     ;41
00A8   0000           00396                 nop                     ;42
00A9   0008           00397                 return     
                      00398         
                      00399 
                      00400 ;Waitlo waits for a low bit to signal the end of the pre-amble. Also reads
                      00401 ;CV513 
                      00402 
00AA   1C0D           00403 Waitlo  btfss   configu,value    ;26
00AB   0AAB           00404         incf    state,f         ;27
00AC   3000           00405         movlw   0x00            ;28     EE=0    CV513
00AD   0089           00406         movwf   EEARD           ;29
00AE   1400           00407         bsf     f0,rd           ;30
00AF   0808           00408         movf    EEDATA,w        ;31
00B0   008F           00409         movwf   CV513a          ;32     lower 6 address bits
00B1   178F           00410         bsf             CV513a,7        ;33     10AAAAAA to match 1st byte
00B2   2ABE           00411         goto    ret6                    ;34
                      00412         
                      00413 
                      00414 ;Testlo must have a low half-bit. Also reads CV521.
                      00415 
00B3   0AAB           00416 Testlo  incf    state,f         ;26
00B4   180D           00417         btfsc   configu,value    ;27
00B5   01AB           00418         clrf    state           ;28
MPASM  5.20           DCCDECOMANOLO_V6_02.ASM   11-30-2009  21:50:23         PAGE  9


LOC  OBJECT CODE     LINE SOURCE TEXT
  VALUE

00B6   3008           00419         movlw   0x08            ;29     get CV521 (00000AAA)              
00B7   0089           00420         movwf   EEARD           ;30                  
00B8   1400           00421         bsf     f0,rd           ;31
00B9   0808           00422         movf    EEDATA,w        ;32
00BA   0090           00423         movwf   CV521a          ;33     upper 3 address bits
00BB   0D90           00424         rlf             CV521a,f                ;34
00BC   0D90           00425         rlf     CV521a,f        ;35
00BD   0D90           00426         rlf     CV521a,f        ;36
00BE   0D90           00427         rlf     CV521a,f        ;37     now 0AAA0000
00BF   0990           00428         comf    CV521a,f                ;38     top address is complemeted
00C0   3070           00429         movlw   B'01110000'     ;39     mask other bits             
00C1   0590           00430         andwf   CV521a,f        ;40
00C2   0000           00431         nop                                     ;41
00C3   0008           00432         return                  ;42
                      00433         
                      00434 ;Bitset reads the value of the just finished half-bit and rotates it
                      00435 ;into the LSB of data5. Eight cycles through Bitset will read a 
                      00436 ;complete byte of data. 
                      00437         
00C4   0AAB           00438 Bitset  incf    state,f         ;26
00C5   1003           00439         bcf     STATUS,Carry    ;27
00C6   180D           00440         btfsc   configu,value    ;28
00C7   1403           00441         bsf     STATUS,Carry    ;29
00C8   0D97           00442         rlf     data5,f         ;30
00C9   2922           00443         goto    ret9            ;31
00CA   298F           00444 ret2    goto    ret0        ;82    
                      00445 
                      00446 ;Lastv checks for the current half-bit to be the same as the previous
                      00447 ;half-bit. 
                      00448 
00CB   0AAB           00449 Lastv   incf    state,f         ;26
00CC   1C0D           00450         btfss   configu,value    ;27
00CD   28D1           00451         goto    lastv1          ;28
00CE   1C17           00452         btfss   data5,0         ;29
00CF   01AB           00453         clrf    state           ;30
00D0   2922           00454                 goto    ret9
00D1   1817           00455 lastv1  btfsc   data5,0         ;30
00D2   01AB           00456         clrf    state           ;31
00D3   2ACB           00457 ret10   goto    ret8            ;32     74
                      00458        
                      00459 
                      00460 ;Endx compares the present half-bit to the previous half-bit (same as
                      00461 ;lastv) and then determines the offset for the intermediate bits.
                      00462 
00D4   1C0D           00463 Endx    btfss   configu,value    ;26
00D5   28D9           00464         goto    endx1           ;27
00D6   1C17           00465         btfss   data5,0         ;28
00D7   09AB           00466         comf    state,f         ;29           
00D8   28DC           00467         goto    endx2           ;30
00D9   1817           00468 endx1   btfsc   data5,0         ;29
00DA   09AB           00469         comf    state,f         ;30
00DB   0000           00470         nop                     ;31
00DC   0A98           00471 endx2   incf    endval,f        ;32
MPASM  5.20           DCCDECOMANOLO_V6_02.ASM   11-30-2009  21:50:23         PAGE 10


LOC  OBJECT CODE     LINE SOURCE TEXT
  VALUE

00DD   0818           00472         movf    endval,w        ;33
00DE   07AB           00473         addwf   state,f         ;34
00DF   298D           00474         goto    ret3            ;35
                      00475 
                      00476 ;Intermediate bit after first byte - must be low. End1 also checks for
                      00477 ;broadcast and servTRK mode address.
                      00478 
00E0   3002           00479 End1    movlw   0x02            ;26
00E1   00AB           00480         movwf   state           ;27
00E2   0817           00481         movf    data5,w         ;28
00E3   0093           00482         movwf   data1           ;29
00E4   180D           00483         btfsc   configu,value    ;30
00E5   01AB           00484         clrf    state           ;31
00E6   0813           00485         movf    data1,w         ;32     get first byte
                      00486 ; RESET PACKET CHECK
00E7   1903           00487         btfsc   STATUS,Zbit     ;33
00E8   148C           00488         bsf     addcfg,reset    ;34     yes so set bit 
                      00489 ; BROADCAST PACKET CHECK
00E9   3ABF           00490         xorlw   B'10111111'     ;35     accessory broadcast low bits?
00EA   1903           00491         btfsc   STATUS,Zbit     ;36
00EB   150C           00492         bsf     addcfg,brdcst   ;37     set broadcast bit
                      00493 ; IDLE PACKET CHECK
00EC   0813           00494         movf    data1,W         ;32     GET 1st byte in W
00ED   3AFF           00495         xorlw   B'11111111'     ;35     IDLE ?
00EE   1903           00496         btfsc   STATUS,Zbit     ;36
00EF   168C           00497         bsf     addcfg,idle     ;37     if B'11111111' set IDLE bit
                      00498 ; OUT OF CYCLE
00F0   0813           00499         movf    data1,w         ;38 
00F1   397F           00500         andlw   B'01111111'     ;39     ;acc address has top bit set
00F2   3E90           00501         addlw   0x90            ;40
00F3   1803           00502         btfsc   STATUS,Carry    ;41
00F4   158C           00503         bsf     addcfg,servTRK  ;42     servTRK so set bit
00F5   0008           00504         return                  ;43
                      00505 
                      00506 ;Intermediate bit after second byte - must be low. End2 also checks for
                      00507 ;primary address (9 bits)and rest of broadcast.
                      00508 
00F6   3002           00509 End2    movlw   0x02            ;26
00F7   00AB           00510         movwf   state           ;27
00F8   0817           00511         movf    data5,w         ;28
00F9   0094           00512         movwf   data2           ;29
00FA   180D           00513         btfsc   configu,value    ;30
00FB   01AB           00514         clrf    state           ;31
                      00515 ; SERVICE-OPS CHECK
                      00516 ; 0 10AAAAAA 0 0AAACCaa 0 aaaaaaaa 0 DDDDDDDD 0 EEEEEEEE 1
00FC   0814           00517         movf    data2,W         ;32     2nd byte
00FD   398C           00518         andlw   B'10001100'     ;33     mask about  0AAA11aa
00FE   3A0C           00519         xorlw   B'00001100'     ;34     mask to get 0xxx11xx
00FF   1903           00520         btfsc   STATUS,Zbit     ;36
0100   160C           00521         bsf     addcfg,servOPS  ;37
                      00522 ; IDLE CHECK
0101   1E8C           00523         btfss   addcfg,idle
0102   2906           00524         goto    End2b
MPASM  5.20           DCCDECOMANOLO_V6_02.ASM   11-30-2009  21:50:23         PAGE 11


LOC  OBJECT CODE     LINE SOURCE TEXT
  VALUE

0103   0814           00525         movf    data2,W         ;38     2nd byte
0104   1D03           00526         btfss   STATUS,Zbit     ;40     all zeros?
0105   128C           00527         bcf     addcfg,idle     ;41     IDLE only if we had idle before
                      00528 ; BROADCAST CHECK
0106   0814           00529 End2b   movf    data2,W         ;38     2nd byte
0107   3970           00530         andlw   B'01110000'     ;33     mask except hi address bits
0108   1D03           00531         btfss   STATUS,Zbit     ;34     all zeros?
0109   110C           00532         bcf     addcfg,brdcst   ;35     not broadcast   
                      00533 ; ADDRESSES CHECK BANK0 513a 512a
010A   140C           00534         bsf     addcfg,primary  ;43   
010B   0814           00535         movf    data2,W         ;       2nd byte             
010C   3970           00536         andlw   B'01110000'     ;       mask except hi addr     
010D   0610           00537         xorwf   CV521a,w        ;36     hi bits match?
010E   1903           00538         btfsc   STATUS,Zbit     ;37
010F   140C           00539         bsf     addcfg,primary  ;38     yes
0110   0813           00540         movf    data1,w         ;39     get first byte
0111   060F           00541         xorwf   CV513a,w        ;40     match?
0112   1903           00542         btfsc   STATUS,Zbit     ;41
0113   0008           00543                 return
0114   100C           00544 End2c   bcf     addcfg,primary  ;42     n
0115   120C           00545         bcf     addcfg,servOPS  ;59     if dont match clear SERVICE-OPS
0116   0008           00546         return                  ;43
                      00547 
                      00548 ;Intermediate bit after third byte - hi signals end of packet.
                      00549 
0117   180D           00550 End3    btfsc   configu,value    ;26
0118   291E           00551         goto    end3hi          ;27
0119   3002           00552         movlw   0x02            ;28
011A   00AB           00553         movwf   state           ;29
011B   0817           00554         movf    data5,w         ;30
011C   0095           00555         movwf   data3           ;31
011D   2ACB           00556         goto    ret8            ;32
                      00557 
011E   3018           00558 end3hi  movlw   0x18            ;29
011F   00AB           00559         movwf   state           ;30
0120   108D           00560         bcf     configu,byte4    ;31
0121   110D           00561         bcf     configu,byte5    ;32
0122   2ABD           00562 ret9    goto    ret7            ;33
                      00563 
                      00564 ;Intermediate bit after fourth byte - hi signals end of packet.
                      00565 
0123   180D           00566 End4    btfsc   configu,value    ;26
0124   292A           00567         goto    end4hi          ;27
0125   3002           00568         movlw   0x02            ;28
0126   00AB           00569         movwf   state           ;29
0127   0817           00570         movf    data5,w         ;30
0128   0096           00571         movwf   data4           ;31
0129   2ACB           00572         goto    ret8            ;32
                      00573 
012A   3018           00574 end4hi  movlw   0x18            ;29
012B   00AB           00575         movwf   state           ;30
012C   148D           00576         bsf     configu,byte4    ;31
012D   110D           00577         bcf     configu,byte5    ;32
MPASM  5.20           DCCDECOMANOLO_V6_02.ASM   11-30-2009  21:50:23         PAGE 12


LOC  OBJECT CODE     LINE SOURCE TEXT
  VALUE

012E   2ABD           00578         goto    ret7            ;33
                      00579 
                      00580 ;End bit after fifth byte - must be hi.
                      00581 
012F   0AAB           00582 End5    incf    state,f         ;26
0130   1C0D           00583         btfss   configu,value    ;27
0131   01AB           00584         clrf    state           ;28
0132   148D           00585         bsf     configu,byte4    ;29
0133   150D           00586         bsf     configu,byte5    ;30
0134   2922           00587         goto    ret9            ;31
                      00588 
                      00589 ;This subroutine is used to update the outputs of the microcontroller. 
                      00590 ;The rtcc is compared with the value 63. As rtcc increments every 16
                      00591 ;microsecs, count will match at about 1 millisec.A match condition (=>)
                      00592 ;will increment tick1 and reset the rtcc. Tick1 is compared with 10 and
                      00593 ;if => then all channel timers, (time1 to time8) are incremented.This
                      00594 ;sets the fundamental time interval at 10 millisec.
                      00595 ;Between tick1 updates, routine switches to 'Counter' which accesses each
                      00596 ;output routine in turn to see if the outputs should be on or off.
                      00597 
0135   303F           00598 Update  movlw   .63             ;50             one millisec approx
0136   0201           00599         subwf   rtcc,w          ;51
0137   1C03           00600         btfss   STATUS,Carry    ;52
0138   287F           00601         goto    Counter         ;53
0139   0A9E           00602         incf    tick1,f         ;54
013A   0181           00603         clrf    rtcc            ;55             reset rtcc
013B   0000           00604         nop                     ;56
013C   300A           00605         movlw   .10             ;57
013D   021E           00606         subwf   tick1,w         ;58             
013E   1C03           00607         btfss   STATUS,Carry    ;59             10ms
013F   294A           00608             goto        strmemo         ;60
0140   019E           00609         clrf    tick1           ;61             
0141   0AA0           00610         incf    time1,f         ;62             increment channel timers           
0142   0AA1           00611         incf    time2,f         ;63             
0143   0AA2           00612         incf    time3,f         ;64             
0144   0AA3           00613         incf    time4,f         ;65
0145   0AA4           00614         incf    time5,f         ;66
0146   0AA5           00615         incf    time6,f         ;67
0147   0AA6           00616         incf    time7,f         ;68
0148   0AA7           00617         incf    time8,f         ;69                     
0149   2ACA           00618         goto    ret12           ;70             
                      00619                                                                 
                      00620                         
014A   082D           00621 strmemo movf    memo, w                 ;62     
014B   022E           00622                 subwf   change,w                ;63     Sub in f does not work
014C   1903           00623                 btfsc   STATUS,Zbit     ;64     
014D   2AC7           00624                 goto    ret17                   ;65
014E   082D           00625                 movf    memo, w                 ;66
014F   00AE           00626                 movwf   change                  ;67 out of loop until next change 
0150   0088           00627                 movwf   EEDATA                  ;68
0151   3021           00628                 movlw   0x21            ;69    EE=21   MEMO
                      00629 
0152   0089           00630                 movwf   EEARD           ;70
MPASM  5.20           DCCDECOMANOLO_V6_02.ASM   11-30-2009  21:50:23         PAGE 13


LOC  OBJECT CODE     LINE SOURCE TEXT
  VALUE

0153   1683           00631                 bsf             STATUS,RP0              ;71
                      00632         
0154   1508           00633                 bsf     EECON1,WREN             ;72
0155   3055           00634             movlw   0x55                        ;73
0156   0089           00635         movwf   EECON2                  ;74
0157   30AA           00636         movlw   0xAA                    ;75
0158   0089           00637         movwf   EECON2                  ;76
0159   1488           00638         bsf     EECON1,WR               ;77
015A   1888           00639 busy    btfsc   EECON1,WR               ;78
015B   295A           00640         goto    busy                    ;79
015C   1108           00641         bcf     EECON1,WREN             ;80
015D   1283           00642         bcf     STATUS,RP0              ;81
015E   298F           00643                 goto    ret0                    ;82  
                      00644           
                      00645                      
                      00646 ;Count1 controls output1 
                      00647 
015F   1F9D           00648 count1  btfss   action,7        ;62     new action
0160   2976           00649         goto    t1a             ;63     no
0161   081D           00650         movf    action,w        ;64
0162   3907           00651         andlw   B'00000111'     ;65     mask
0163   3A00           00652         xorlw   B'00000000'     ;66     is it output 1?
0164   1D03           00653         btfss   STATUS,Zbit     ;67     yes
0165   297B           00654         goto    t1b             ;68
0166   1C11           00655         btfss   CV514a,0        ;69     is this bit enabled?
0167   297D           00656         goto    t1c             ;70     no
0168   1D9D           00657         btfss   action,3        ;71     on or off
0169   2971           00658         goto    off1            ;72
016A   1406           00659         bsf     PORTB,0         ;73     F1a on
016B   019E           00660                 clrf    tick1           ;74
016C   01A0           00661                 clrf    time1           ;75     start timer   
016D   139D           00662         bcf     action,7        ;76     action done
016E   142D           00663                 bsf memo, 0                     ;77             store last output on
016F   0000           00664                 nop;                            ;78
0170   298D           00665                 goto    ret3            ;79
0171   1006           00666 off1    bcf     PORTB,0         ;74     F1a off
0172   139D           00667         bcf     action,7        ;75
0173   102D           00668         bcf memo,0                      ;76             store last output off
0174   0000           00669         nop;                            ;77
0175   2ACC           00670         goto    ret4            ;78
0176   0000           00671 t1a     nop                     ;65
0177   0000           00672         nop                     ;66
0178   0000           00673         nop                     ;67
0179   0000           00674         nop                     ;68
017A   0000           00675         nop                     ;69
017B   0000           00676 t1b     nop                     ;70
017C   0000           00677         nop                     ;71
017D   3002           00678 t1c     movlw   2       ;72     get CV515 time on
017E   0089           00679         movwf   EEARD           ;73
017F   1400           00680         bsf     f0,rd           ;74
0180   0808           00681         movf    EEDATA,w        ;75
0181   1903           00682         btfsc   STATUS,Zbit     ;76     if zero then always on
0182   298C           00683         goto    ret5            ;77
MPASM  5.20           DCCDECOMANOLO_V6_02.ASM   11-30-2009  21:50:23         PAGE 14


LOC  OBJECT CODE     LINE SOURCE TEXT
  VALUE

0183   1806           00684         btfsc   PORTB,0         ;78
0184   10AD           00685         bcf             memo,1          ;79 if time is not zero and the port is active we just want to k
                            eep in memo the last output of the couple swithed on
0185   0220           00686         subwf   time1,w         ;80     compare time
0186   1803           00687         btfsc   STATUS,Carry    ;81
0187   1006           00688         bcf     PORTB,0         ;82     time out so put off
0188   0000           00689         nop     ;83
0189   0008           00690         return  ;84
                      00691 
018A   298B           00692 ret13   goto    ret11                   ;71 29
018B   2922           00693 ret11   goto    ret9                    ;73 31
018C   298D           00694 ret5    goto    ret3                    ;79     37
018D   298E           00695 ret3    goto    ret1                    ;81     39
018E   0000           00696 ret1    nop                     ;83
018F   0008           00697 ret0    return                  ;84
                      00698 
                      00699 
                      00700 ;Count2 controls F1b
                      00701  
0190   1F9D           00702 count2  btfss   action,7        ;62     new action
0191   29A7           00703         goto    t2a             ;63     no
0192   081D           00704         movf    action,w        ;64
0193   3907           00705         andlw   B'00000111'     ;65     mask
0194   3A01           00706         xorlw   B'00000001'     ;66     is it output 1b?
0195   1D03           00707         btfss   STATUS,Zbit     ;67     yes
0196   29AC           00708         goto    t2b             ;68
0197   1C91           00709         btfss   CV514a,1        ;69     is this bit enabled?
0198   29AE           00710         goto    t2c             ;70     no
0199   1D9D           00711         btfss   action,3        ;71     on or off
019A   29A2           00712         goto    off2            ;72
019B   1486           00713         bsf     PORTB,1         ;73     F1b on
019C   019E           00714         clrf    tick1           ;74
019D   01A1           00715         clrf    time2           ;75     start timer   
019E   139D           00716         bcf     action,7        ;76     action done
019F   14AD           00717                 bsf memo, 1                     ;77             store last output on
01A0   0000           00718                 nop;                            ;78
01A1   298D           00719                 goto    ret3            ;79
01A2   1086           00720 off2    bcf     PORTB,1         ;74     F1b off
01A3   139D           00721         bcf     action,7        ;75
01A4   10AD           00722         bcf memo,1                      ;76             store last output off
01A5   0000           00723         nop;                            ;77
01A6   2ACC           00724         goto    ret4            ;78
01A7   0000           00725 t2a     nop                     ;65
01A8   0000           00726         nop                     ;66
01A9   0000           00727         nop                     ;67
01AA   0000           00728         nop                     ;68
01AB   0000           00729         nop                     ;69
01AC   0000           00730 t2b     nop                     ;70
01AD   0000           00731         nop                     ;71
01AE   3002           00732 t2c     movlw   2               ;72     get CV515 time on
01AF   0089           00733         movwf   EEARD           ;73
01B0   1400           00734         bsf     f0,rd           ;74
01B1   0808           00735         movf    EEDATA,w        ;75
MPASM  5.20           DCCDECOMANOLO_V6_02.ASM   11-30-2009  21:50:23         PAGE 15


LOC  OBJECT CODE     LINE SOURCE TEXT
  VALUE

01B2   1903           00736         btfsc   STATUS,Zbit     ;76     if zero then always on
01B3   298C           00737         goto    ret5            ;77
01B4   1886           00738         btfsc   PORTB,1         ;78
01B5   102D           00739         bcf             memo,0          ;79 if time is not zero we just ant to keep i n memo the last ou
                            tput of the couple swithed on
01B6   0221           00740         subwf   time2,w         ;80     compare time
01B7   1803           00741         btfsc   STATUS,Carry    ;81
01B8   1086           00742         bcf     PORTB,1         ;82     time out so put off
01B9   0000           00743         nop     ;83
01BA   0008           00744         return ;84
                      00745 
                      00746 ;Count3 controls F2a
                      00747 
01BB   1F9D           00748 count3  btfss   action,7        ;62     new action
01BC   29D2           00749         goto    t3a             ;63     no
01BD   081D           00750         movf    action,w        ;64
01BE   3907           00751         andlw   B'00000111'     ;65     mask
01BF   3A02           00752         xorlw   B'00000010'    ;66      is it output 2a?
01C0   1D03           00753         btfss   STATUS,Zbit     ;67     yes
01C1   29D7           00754         goto    t3b             ;68
01C2   1D11           00755         btfss   CV514a,2        ;69     is this bit enabled?
01C3   29D9           00756         goto    t3c             ;70     no
01C4   1D9D           00757         btfss   action,3        ;71     on or off
01C5   29CD           00758         goto    off3            ;72
                      00759 ;        bsf    PORTA,2         ;73     F2a on
01C6   1506           00760         bsf     PORTB,2         ;73     F2a on
01C7   019E           00761         clrf    tick1           ;74
01C8   01A2           00762         clrf    time3           ;75     start timer   
01C9   139D           00763         bcf     action,7        ;76     action done
01CA   152D           00764                 bsf memo, 2                     ;77             store last output on
01CB   0000           00765                 nop;                            ;78
01CC   298D           00766                 goto    ret3            ;79
                      00767 ;off3   bcf     PORTA,2         ;74     F2a off
01CD   1106           00768 off3    bcf     PORTB,2         ;74     F2a off
01CE   139D           00769         bcf     action,7        ;75
01CF   112D           00770         bcf memo,2                      ;76             store last output off
01D0   0000           00771         nop;                            ;77
01D1   2ACC           00772         goto    ret4            ;78
01D2   0000           00773 t3a     nop                     ;65
01D3   0000           00774         nop                     ;66
01D4   0000           00775         nop                     ;67
01D5   0000           00776         nop                     ;68
01D6   0000           00777         nop                     ;69
01D7   0000           00778 t3b     nop                     ;70
01D8   0000           00779         nop                     ;71
01D9   3003           00780 t3c     movlw   3               ;72     get CV516 time on
01DA   0089           00781         movwf   EEARD           ;73
01DB   1400           00782         bsf     f0,rd           ;74
01DC   0808           00783         movf    EEDATA,w        ;75
01DD   1903           00784         btfsc   STATUS,Zbit     ;76     if zero then always on
01DE   298C           00785         goto    ret5            ;77
01DF   1906           00786         btfsc   PORTB,2         ;78
01E0   11AD           00787         bcf             memo,3          ;79 if time is not zero we just ant to keep i n memo the last ou
MPASM  5.20           DCCDECOMANOLO_V6_02.ASM   11-30-2009  21:50:23         PAGE 16


LOC  OBJECT CODE     LINE SOURCE TEXT
  VALUE

                            tput of the couple swithed on
01E1   0222           00788         subwf   time3,w         ;80     compare time
01E2   1803           00789         btfsc   STATUS,Carry    ;81
01E3   1106           00790         bcf     PORTB,2         ;82     time out so put off
01E4   0000           00791         nop     ;83
01E5   0008           00792         return ;84
                      00793 ;Count4 controls F2b
                      00794 
01E6   1F9D           00795 count4  btfss   action,7        ;62     new action
01E7   29FD           00796         goto    t4a             ;63     no
01E8   081D           00797         movf    action,w        ;64
01E9   3907           00798         andlw   B'00000111'     ;65     mask
01EA   3A03           00799         xorlw   B'00000011'     ;66     is it output F2b?
01EB   1D03           00800         btfss   STATUS,Zbit     ;67     yes
01EC   2A02           00801         goto    t4b             ;68
01ED   1D91           00802         btfss   CV514a,3        ;69     is this bit enabled?
01EE   2A04           00803         goto    t4c             ;70     no
01EF   1D9D           00804         btfss   action,3        ;71     on or off
01F0   29F8           00805         goto    off4            ;72
01F1   1586           00806         bsf     PORTB,3         ;73     F2b on
01F2   019E           00807         clrf    tick1           ;74
01F3   01A3           00808         clrf    time4           ;75     start timer   
01F4   139D           00809         bcf     action,7        ;76     action done
01F5   15AD           00810                 bsf memo, 3                     ;77             store last output on
01F6   0000           00811                 nop;                            ;78
01F7   298D           00812                 goto    ret3            ;79
01F8   1186           00813 off4    bcf     PORTB,3         ;74     F2b off
01F9   139D           00814         bcf     action,7        ;75
01FA   11AD           00815         bcf memo,3                      ;76             store last output off
01FB   0000           00816         nop;                            ;77
01FC   2ACC           00817         goto    ret4            ;78
01FD   0000           00818 t4a     nop                     ;65
01FE   0000           00819         nop                     ;66
01FF   0000           00820         nop                     ;67
0200   0000           00821         nop                     ;68
0201   0000           00822         nop                     ;69
0202   0000           00823 t4b     nop                     ;70
0203   0000           00824         nop                     ;71
0204   3003           00825 t4c     movlw   3               ;72     get CV516 time on
0205   0089           00826         movwf   EEARD           ;73
0206   1400           00827         bsf     f0,rd           ;74
0207   0808           00828         movf    EEDATA,w        ;75
0208   1903           00829         btfsc   STATUS,Zbit     ;76     if zero then always on
0209   298C           00830         goto    ret5            ;77
020A   1986           00831         btfsc   PORTB,3         ;78
020B   112D           00832         bcf             memo,2          ;79 if time is not zero we just ant to keep i n memo the last ou
                            tput of the couple swithed on
020C   0223           00833         subwf   time4,w         ;80     compare time
020D   1803           00834         btfsc   STATUS,Carry    ;81
020E   1186           00835         bcf     PORTB,3         ;82     time out so put off
020F   0000           00836         nop     ;83
0210   0008           00837         return ;84
                      00838 
MPASM  5.20           DCCDECOMANOLO_V6_02.ASM   11-30-2009  21:50:23         PAGE 17


LOC  OBJECT CODE     LINE SOURCE TEXT
  VALUE

                      00839 ;Count5 controls output F3a
                      00840 
0211   1F9D           00841 count5  btfss   action,7        ;62     new action
0212   2A28           00842         goto    t5a             ;63     no
0213   081D           00843         movf    action,w        ;64
0214   3907           00844         andlw   B'00000111'     ;65     mask
0215   3A04           00845         xorlw   B'00000100'     ;66     is it output F3a?
0216   1D03           00846         btfss   STATUS,Zbit     ;67     yes
0217   2A2D           00847         goto    t5b             ;68
0218   1E11           00848         btfss   CV514a,4        ;69     is this bit enabled?
0219   2A2F           00849         goto    t5c             ;70     no
021A   1D9D           00850         btfss   action,3        ;71     on or off
021B   2A23           00851         goto    off5            ;72
021C   1606           00852         bsf     PORTB,4         ;73     F3a on
021D   019E           00853         clrf    tick1           ;74
021E   01A4           00854         clrf    time5           ;75     start timer   
021F   139D           00855         bcf     action,7        ;76     action done
0220   162D           00856                 bsf memo, 4                     ;77             store last output on
0221   0000           00857                 nop;                            ;78
0222   298D           00858                 goto    ret3            ;79
0223   1206           00859 off5    bcf     PORTB,4         ;74     F3a off
0224   139D           00860         bcf     action,7        ;75
0225   122D           00861         bcf memo,4                      ;76             store last output off
0226   0000           00862         nop;                            ;77
0227   2ACC           00863         goto    ret4            ;78
0228   0000           00864 t5a     nop                     ;65
0229   0000           00865         nop                     ;66
022A   0000           00866         nop                     ;67
022B   0000           00867         nop                     ;68
022C   0000           00868         nop                     ;69
022D   0000           00869 t5b     nop                     ;70
022E   0000           00870         nop                     ;71
022F   3004           00871 t5c     movlw   4               ;72     get CV517 time on
0230   0089           00872         movwf   EEARD           ;73
0231   1400           00873         bsf     f0,rd           ;74
0232   0808           00874         movf    EEDATA,w        ;75
0233   1903           00875         btfsc   STATUS,Zbit     ;76     if zero then always on
0234   298C           00876         goto    ret5            ;77
0235   1A06           00877         btfsc   PORTB,4         ;78
0236   12AD           00878         bcf             memo,5          ;79 if time is not zero we just ant to keep i n memo the last ou
                            tput of the couple swithed on
0237   0224           00879         subwf   time5,w         ;80     compare time
0238   1803           00880         btfsc   STATUS,Carry    ;81
0239   1206           00881         bcf     PORTB,4         ;82     time out so put off
023A   0000           00882         nop;83
023B   0008           00883         return;84
                      00884 
                      00885 
                      00886 ;Count6 controls the output F3b
                      00887 
023C   1F9D           00888 count6  btfss   action,7        ;62     new action
023D   2A53           00889         goto    t6a             ;63     no
023E   081D           00890         movf    action,w        ;64
MPASM  5.20           DCCDECOMANOLO_V6_02.ASM   11-30-2009  21:50:23         PAGE 18


LOC  OBJECT CODE     LINE SOURCE TEXT
  VALUE

023F   3907           00891         andlw   B'00000111'     ;65     mask
0240   3A05           00892         xorlw   B'00000101'     ;66     is it output F3b?
0241   1D03           00893         btfss   STATUS,Zbit     ;67     yes
0242   2A58           00894         goto    t6b             ;68
0243   1E91           00895         btfss   CV514a,5        ;69     is this bit enabled?
0244   2A5A           00896         goto    t6c             ;70     no
0245   1D9D           00897         btfss   action,3        ;71     on or off
0246   2A4E           00898         goto    off6            ;72
0247   1686           00899         bsf     PORTB,5         ;73     F3b on
0248   019E           00900         clrf    tick1           ;74
0249   01A5           00901         clrf    time6           ;75     start timer   
024A   139D           00902         bcf     action,7        ;76     action done
024B   16AD           00903                 bsf memo, 5                     ;77             store last output on
024C   0000           00904                 nop;                            ;78
024D   298D           00905                 goto    ret3            ;79
024E   1286           00906 off6    bcf     PORTB,5         ;74     F3b off
024F   139D           00907         bcf     action,7        ;75
0250   12AD           00908         bcf memo,5                      ;76             store last output off
0251   0000           00909         nop;                            ;77
0252   2ACC           00910         goto    ret4            ;78
0253   0000           00911 t6a     nop                     ;65
0254   0000           00912         nop                     ;66
0255   0000           00913         nop                     ;67
0256   0000           00914         nop                     ;68
0257   0000           00915         nop                     ;69
0258   0000           00916 t6b     nop                     ;70
0259   0000           00917         nop                     ;71
025A   3004           00918 t6c     movlw   4               ;72     get CV517 time on
025B   0089           00919         movwf   EEARD           ;73
025C   1400           00920         bsf     f0,rd           ;74
025D   0808           00921         movf    EEDATA,w        ;75
025E   1903           00922         btfsc   STATUS,Zbit     ;76     if zero then always on
025F   298C           00923         goto    ret5            ;77
0260   1A86           00924         btfsc   PORTB,5         ;78
0261   122D           00925         bcf             memo,4          ;79 if time is not zero we just ant to keep i n memo the last ou
                            tput of the couple swithed on
0262   0225           00926         subwf   time6,w         ;80     compare time
0263   1803           00927         btfsc   STATUS,Carry    ;81
0264   1286           00928         bcf     PORTB,5         ;82     time out so put off
0265   0000           00929         nop;83
0266   0008           00930         return;84
                      00931 
                      00932 ;Count7 controls output F4a
                      00933 
0267   1F9D           00934 count7  btfss   action,7        ;62     new action
0268   2A7E           00935         goto    t7a             ;63     no
0269   081D           00936         movf    action,w        ;64
026A   3907           00937         andlw   B'00000111'     ;65     mask
026B   3A06           00938         xorlw   B'00000110'     ;66     is it output F4a?
026C   1D03           00939         btfss   STATUS,Zbit     ;67     yes
026D   2A83           00940         goto    t7b             ;68
026E   1F11           00941         btfss   CV514a,6        ;69     is this bit enabled?
026F   2A85           00942         goto    t7c             ;70     no
MPASM  5.20           DCCDECOMANOLO_V6_02.ASM   11-30-2009  21:50:23         PAGE 19


LOC  OBJECT CODE     LINE SOURCE TEXT
  VALUE

0270   1D9D           00943         btfss   action,3        ;71     on or off
0271   2A79           00944         goto    off7            ;72
0272   1706           00945         bsf     PORTB,6         ;73     F4a on
0273   019E           00946                 clrf    tick1           ;74
0274   01A6           00947                 clrf    time7           ;75     start timer   
0275   139D           00948         bcf     action,7        ;76     action done
0276   172D           00949                 bsf memo, 6                     ;77             store last output on
0277   0000           00950                 nop;                            ;78
0278   298D           00951                 goto    ret3            ;79
0279   1306           00952 off7    bcf     PORTB,6         ;74     F4a off
027A   139D           00953         bcf     action,7        ;75
027B   132D           00954         bcf memo,6                      ;76             store last output off
027C   0000           00955         nop;                            ;77
027D   2ACC           00956         goto    ret4            ;78
027E   0000           00957 t7a     nop                     ;65
027F   0000           00958         nop                     ;66
0280   0000           00959         nop                     ;67
0281   0000           00960         nop                     ;68
0282   0000           00961         nop                     ;69
0283   0000           00962 t7b     nop                     ;70
0284   0000           00963         nop                     ;71
0285   3005           00964 t7c     movlw   5               ;72     get CV518 time on
0286   0089           00965         movwf   EEARD           ;73
0287   1400           00966         bsf     f0,rd           ;74
0288   0808           00967         movf    EEDATA,w        ;75
0289   1903           00968         btfsc   STATUS,Zbit     ;76     if zero then always on
028A   298C           00969         goto    ret5            ;77
028B   1B06           00970         btfsc   PORTB,6         ;78
028C   13AD           00971         bcf             memo,7          ;79 if time is not zero we just ant to keep i n memo the last ou
                            tput of the couple swithed on
028D   0226           00972         subwf   time7,w         ;80     compare time
028E   1803           00973         btfsc   STATUS,Carry    ;81
028F   1306           00974         bcf     PORTB,6         ;82     time out so put off
0290   0000           00975         nop;83
0291   0008           00976         return;84
                      00977 
                      00978 ;Count8 controls output F4b
                      00979 
0292   1F9D           00980 count8  btfss   action,7        ;62     new action
0293   2AA9           00981         goto    t8a             ;63     no
0294   081D           00982         movf    action,w        ;64
0295   3907           00983         andlw   B'00000111'     ;65     mask
0296   3A07           00984         xorlw   B'00000111'     ;66     is it output F4b?
0297   1D03           00985         btfss   STATUS,Zbit     ;67     yes
0298   2AAE           00986         goto    t8b             ;68
0299   1F91           00987         btfss   CV514a,7        ;69     is this bit enabled?
029A   2AB0           00988         goto    t8c             ;70     no
029B   1D9D           00989         btfss   action,3        ;71     on or off
029C   2AA4           00990         goto    off8            ;72
029D   1786           00991         bsf     PORTB,7         ;73     F4b on
029E   019E           00992         clrf    tick1           ;74
029F   01A7           00993         clrf    time8           ;75     start timer   
02A0   139D           00994         bcf     action,7        ;76     action done
MPASM  5.20           DCCDECOMANOLO_V6_02.ASM   11-30-2009  21:50:23         PAGE 20


LOC  OBJECT CODE     LINE SOURCE TEXT
  VALUE

02A1   17AD           00995                 bsf memo, 7                     ;77             store last output on
02A2   0000           00996                 nop;                            ;78
02A3   298D           00997                 goto    ret3            ;79
02A4   1386           00998 off8    bcf     PORTB,7         ;74     F4b off
02A5   139D           00999         bcf     action,7        ;75
02A6   13AD           01000         bcf memo,7                      ;76             store last output off
02A7   0000           01001         nop;                            ;77
02A8   2ACC           01002         goto    ret4            ;78
02A9   0000           01003 t8a     nop                     ;65
02AA   0000           01004         nop                     ;66
02AB   0000           01005         nop                     ;67
02AC   0000           01006         nop                     ;68
02AD   0000           01007         nop                     ;69
02AE   0000           01008 t8b     nop                     ;70
02AF   0000           01009         nop                     ;71
02B0   3005           01010 t8c     movlw   5               ;72     get CV518 time on
02B1   0089           01011         movwf   EEARD           ;73
02B2   1400           01012         bsf     f0,rd           ;74
02B3   0808           01013         movf    EEDATA,w        ;75
02B4   1903           01014         btfsc   STATUS,Zbit     ;76     if zero then always on
02B5   298C           01015         goto    ret5            ;77
02B6   1B86           01016         btfsc   PORTB,7         ;78
02B7   132D           01017         bcf             memo,6          ;79 if time is not zero we just ant to keep i n memo the last ou
                            tput of the couple swithed on
02B8   0227           01018         subwf   time8,w         ;80     compare time
02B9   1803           01019         btfsc   STATUS,Carry    ;81
02BA   1386           01020         bcf     PORTB,7         ;82     time out so put off
02BB   0000           01021         nop     ;83
02BC   0008           01022         return ;84
                      01023 
                      01024     
02BD   298D           01025 ret7    goto    ret3                            ;77     35
02BE   2ACC           01026 ret6    goto    ret4            ;78
                      01027 
                      01028 
                      01029 ;Additional goto sequences.
                      01030 
02BF   2AC0           01031 ret27   goto    ret25           ;15 
02C0   2AC2           01032 ret25   goto    ret23           ;17
                      01033 ;ret24   goto    ret22                          ;58
02C1   2AC4           01034 ret22   goto    ret20                   ;62
02C2   2AC3           01035 ret23   goto    ret21           ;19
                      01036                                 ;20 62          NO ENTIENDO
02C3   2AC5           01037 ret21   goto    ret19           ;21 63
02C4   2AC6           01038 ret20   goto    ret18           ;22 64
02C5   2AC7           01039 ret19   goto    ret17           ;23 65
02C6   285E           01040 ret18   goto    ret16           ;24 66
02C7   2AC8           01041 ret17   goto    ret15           ;25 67
02C8   298A           01042 ret15   goto    ret13           ;27 69
02C9   2ACA           01043 ret14   goto    ret12           ;28 70
02CA   28D3           01044 ret12   goto    ret10           ;30 72
02CB   2ABE           01045 ret8    goto    ret6            ;34 76
02CC   28CA           01046 ret4    goto    ret2                    ;80
MPASM  5.20           DCCDECOMANOLO_V6_02.ASM   11-30-2009  21:50:23         PAGE 21


LOC  OBJECT CODE     LINE SOURCE TEXT
  VALUE

                      01047 
                      01048 
                      01049 ; ********************************************************************************
                      01050 ; ********************************************************************************
                      01051 ; ********************************************************************************
                      01052 ; ********************************************************************************
                      01053 
                      01054 ;CVservOPS checks/WRites for servOPS mode instructions with the decoder in 
                      01055 ;servOPS mode. If the CV number in data2 is 06h (CV519), 07h (CV520)or 
                      01056 ;1Ch (CV541), then the WRite does not take place.
                      01057 
02CD                  01058 CVservOPS
                      01059         ;        btfss   configu,byte5
                      01060         ;        return
02CD   1E0C           01061         btfss   addcfg,servOPS  ;
02CE   0008           01062         return                  ;
02CF   01AA           01063         clrf    n
02D0   231A           01064         call    Twonrow         ; check two identical packets
02D1   3800           01065         iorlw   0x00            ; check two identical packets
02D2   1903           01066         btfsc   STATUS,Zbit     ; check two identical packets
02D3   0008           01067         return                  ; check two identical packets
02D4   0814           01068         movf    data2,W
02D5   3903           01069         andlw   B'00000011'     ; at least CV513 !
02D6   3A02           01070         xorlw   B'00000010'     ; at least CV513 !
02D7   1D03           01071         btfss   STATUS,Zbit     ; at least CV513 !
02D8   0008           01072         return                  ; nothing done
02D9   0815           01073         movf    data3,W         ;addresses start at 0
02DA   3A06           01074         xorlw   0x06            ; CV519    CV520   CV541
02DB   1903           01075         btfsc   STATUS,Zbit     ;00000110 00000111 00011100
02DC   0008           01076         return  ; got 519       ;00000110 00000110 00000110 XOR 0x06=00000110  
02DD   3A01           01077         xorlw   0x01            ;00000000 00000001 00011010
02DE   1903           01078         btfsc   STATUS,Zbit     ;         00000001 00000001 XOR 0x01=00000010
02DF   0008           01079         return  ; got 520       ;         00000000 00011011 
02E0   3A1B           01080         xorlw   0x1B            ;                  00011011 XOR 0x1B=00011011
02E1   1903           01081         btfsc   STATUS,Zbit     ;                  00000000
02E2   0008           01082         return  ; got 541       ;
02E3   0815           01083         movf    data3,W         ;addresses start at 0   
02E4   3C1F           01084         sublw   0x1F            ;only CVs 513(0x00) to 542(0x1D)
02E5   1C03           01085         btfss   STATUS,Carry
02E6   0008           01086         return
                      01087 ; all ok, now WRite EEARD as data3  EEDATA as data4
02E7   0815           01088         movfw   data3           ;
02E8   0089           01089         movwf   EEARD           ;
02E9   0816           01090         movfw   data4           ; 
02EA   0088           01091         movwf   EEDATA          ;
02EB   2383           01092         call    EEWRit2         ;
02EC   120C           01093         bcf     addcfg,servOPS  ;
02ED   236C           01094         call    Ackn            ;
02EE   0008           01095         return                  ; WRITTEN OPS !!!!
                      01096 
                      01097 ;CVserv checks for servTRK mode instructions with the decoder in servTRK
                      01098 ;mode. It then checks values of data1, data2, data3 and data4 with previous
                      01099 ;values to ensure a duplicate packet has been sent. It then checks for
MPASM  5.20           DCCDECOMANOLO_V6_02.ASM   11-30-2009  21:50:23         PAGE 22


LOC  OBJECT CODE     LINE SOURCE TEXT
  VALUE

                      01100 ;three or four byte packet to determine paged or direct CV access. 
                      01101 
02EF   1D0D           01102 CVserv  btfss   configu,byte5    ;40
02F0   1D8D           01103         btfss   configu,servTRK  ;41
02F1   0008           01104         return                  ;42
02F2   01AA           01105         clrf    n
02F3   0000           01106         nop
02F4   231A           01107         call    Twonrow
02F5   3800           01108         iorlw   0x00
02F6   1903           01109         btfsc   STATUS,Zbit
02F7   0008           01110         return
02F8   1C8D           01111         btfss   configu,byte4
02F9   288B           01112         goto    CVpage
02FA   0813           01113         movf    data1,w
02FB   3A76           01114         xorlw   0x76    ; [gi] DIR Mode cmd: 0111CCAA where AA=10 for CV >512
02FC   1903           01115         btfsc   STATUS,Zbit
02FD   2B4E           01116         goto    Ver1dir ; [gi] data2 contains offset in EEDATA
02FE   3A08           01117         xorlw   0x08
02FF   1D03           01118         btfss   STATUS,Zbit
0300   0008           01119         return
0301   2B03           01120         goto    WR1dir  ; [gi] data2 contains offset in EEDATA
                      01121         
                      01122 ;WR1 WRites the data in data3 into the CV listed in data2. If the CV
                      01123 ;number in data2 is 06h (CV519), 07h (CV520)or 1Ch (CV541), then the WRite
                      01124 ;does not take place.
                      01125 
0302   0394           01126 WR1     decf    data2,f                 ; [gi] Jump Target for PageMode (data2=CV#)
0303   0815           01127 WR1dir  movf    data3,w                 ; [gi] data2 now contains offset in EEDATA. 
0304   0088           01128         movwf   EEDATA      
0305   0814           01129         movf    data2,w                                  ;addresses start at 0       
0306   3A06           01130         xorlw   0x06                    ;  CV519   CV520        CV521     CV541
0307   1903           01131         btfsc   STATUS,Zbit             ;00000110 00000111 00001000     00011100
0308   0008           01132         return                          ;00000110 00000110 00000110     00000110
0309   3A01           01133         xorlw   0x01                    ;00000000 00000001 00001111     00011010
030A   1903           01134         btfsc   STATUS,Zbit             ;         00000001 00000001     00000001
030B   0008           01135         return                          ;         00000000 00001110     00011011
030C   3A1B           01136         xorlw   0x1B                    ;                                       00011011
030D   1903           01137         btfsc   STATUS,Zbit             ;                                       00000000
030E   2B13           01138         goto    WRcon1
030F   3009           01139 WRcont  movlw   09h                     ;only CVs 513(1) to 521(9)
0310   0214           01140         subwf   data2,w
0311   1803           01141         btfsc   STATUS,Carry
0312   0008           01142         return
0313   0814           01143 WRcon1  movf    data2,w
0314   0089           01144         movwf   EEARD
0315   0064           01145         clrwdt
0316   1683           01146         bsf     STATUS,RP0
0317   1508           01147         bsf     EECON1,WREN
0318   2379           01148         call    EEWRite
0319   2B6C           01149         goto    Ackn
                      01150 
                      01151 ;Two in a row checks that the current packet is the second identical packet
                      01152 ;before performing a servTRK mode instruction or Advanced programming
MPASM  5.20           DCCDECOMANOLO_V6_02.ASM   11-30-2009  21:50:23         PAGE 23


LOC  OBJECT CODE     LINE SOURCE TEXT
  VALUE

                      01153 ;function.
                      01154 
031A   0813           01155 Twonrow movf    data1,w        
031B   0619           01156         xorwf   lastd1,w
031C   1D03           01157         btfss   STATUS,Zbit
031D   2B2A           01158         goto    Lastpak
031E   0814           01159         movf    data2,w
031F   061A           01160         xorwf   lastd2,w
0320   1D03           01161         btfss   STATUS,Zbit
0321   2B2A           01162         goto    Lastpak
0322   0815           01163         movf    data3,w
0323   061B           01164         xorwf   lastd3,w
0324   1D03           01165         btfss   STATUS,Zbit
0325   2B2A           01166         goto    Lastpak
0326   0816           01167         movf    data4,w
0327   061C           01168         xorwf   lastd4,w
0328   1903           01169         btfsc   STATUS,Zbit
0329   34FF           01170         retlw   0xFF
                      01171 
                      01172 ;Lastpak saves the packet byte values to check for a repeated packet,
                      01173 ;necessary to execute a servTRK mode instruction.
                      01174 
032A   0813           01175 Lastpak movf    data1,w
032B   0099           01176         movwf   lastd1
032C   0814           01177         movf    data2,w
032D   009A           01178         movwf   lastd2
032E   0815           01179         movf    data3,w
032F   009B           01180         movwf   lastd3
0330   0816           01181         movf    data4,w
0331   009C           01182         movwf   lastd4
0332   3400           01183         retlw   0x00                 
                      01184 
                      01185 ;CV541s sets data2 to 1Ch (28).    
                      01186 
0333   301C           01187 CV541s  movlw   0x1C
0334   0094           01188         movwf   data2
0335   2B40           01189         goto    CVcont
                      01190 
                      01191 ;CVfind determines the CV using the page register and the offset in the
                      01192 ;instruction. If the page is less than 128 then no action is taken as it
                      01193 ;is not an accessory CV. 
                      01194 
0336   0328           01195 CVfind  decf    pagereg,w
0337   0094           01196         movwf   data2
0338   1003           01197         bcf     STATUS,Carry
0339   0D94           01198         rlf     data2,f
033A   1C03           01199         btfss   STATUS,Carry            ;page must be 80h or more
033B   0008           01200         return
033C   0D94           01201         rlf     data2,f
                      01202         
033D   3003           01203         movlw   0x03
033E   0513           01204         andwf   data1,w
033F   0794           01205         addwf   data2,f
MPASM  5.20           DCCDECOMANOLO_V6_02.ASM   11-30-2009  21:50:23         PAGE 24


LOC  OBJECT CODE     LINE SOURCE TEXT
  VALUE

0340   1D93           01206 CVcont  btfss   data1,3
0341   2B4D           01207         goto    Ver1
0342   2B02           01208         goto    WR1
                      01209 
                      01210 ;CVpgreg verifies or WRites the page register with data3 (data2).
                      01211 
0343   1D93           01212 CVpgreg btfss   data1,3
0344   2B48           01213         goto    Pagever
0345   0815           01214         movf    data3,w
0346   00A8           01215         movwf   pagereg
0347   0008           01216         return
                      01217 
0348   0828           01218 Pagever movf    pagereg,w                        
0349   0615           01219         xorwf   data3,w                            
034A   1D03           01220         btfss   STATUS,Zbit
034B   0008           01221         return
034C   2B6C           01222         goto    Ackn
                      01223         
                      01224 ;CVverfy XORs the EE value at data2 with the value in data3.
                      01225 ;only CV 513 to 521 and 541 will verify. 
                      01226 
034D   0394           01227 Ver1    decf    data2,f         ; [gi] Jump Target for PageMode (data2=CV#)
                      01228                                 ; [gi] data2 now contains offset in EEDATA
                      01229 
034E   301C           01230 Ver1dir movlw   1Ch             ;is it CV541
034F   0614           01231         xorwf   data2,w
0350   1903           01232         btfsc   STATUS,Zbit
0351   2B56           01233         goto    ver2
0352   3009           01234         movlw   09h             ;only CVs 513(1) to 521(9)
0353   0214           01235         subwf   data2,w
0354   1803           01236         btfsc   STATUS,Carry
0355   0008           01237         return
0356   0814           01238 ver2    movf    data2,w         ;CVs address directly        
0357   0089           01239         movwf   EEARD
0358   238C           01240         call    EEread
0359   0615           01241         xorwf   data3,w
035A   1D03           01242         btfss   STATUS,Zbit
035B   0008           01243         return
035C   2B6C           01244         goto    Ackn
                      01245 
035D   1D0D           01246 Dcontrl btfss   configu,byte5
035E   188D           01247         btfsc   configu,byte4
035F   0008           01248         return
0360   0814           01249         movf    data2,w
0361   1903           01250         btfsc   STATUS,Zbit
0362   2B67           01251         goto    Dreset
0363   3A0E           01252         xorlw   0x0E
0364   1903           01253         btfsc   STATUS,Zbit
0365   2B6C           01254         goto    Ackn
0366   0008           01255         return
                      01256 
0367   019D           01257 Dreset  clrf    action          ;clear action
0368   1C8C           01258         btfss   addcfg,reset
MPASM  5.20           DCCDECOMANOLO_V6_02.ASM   11-30-2009  21:50:23         PAGE 25


LOC  OBJECT CODE     LINE SOURCE TEXT
  VALUE

0369   0008           01259         return
036A   158D           01260         bsf     configu,servTRK
036B   287B           01261         goto    Nextbyt
                      01262 
                      01263 
                      01264 
                      01265 ;Ackn sets ack output for 250ms (1024us X 250). 1024us is counted by
                      01266 ;bit 6 of rtcc register.Ack is used to flash the ack LED
                      01267 
036C   0064           01268 Ackn    clrwdt
                      01269  ;              bsf     PORTB,6         ;set ack line high
036D   1585           01270         bsf     PORTA, 3 ;set ack line high
036E   0181           01271         clrf    rtcc
036F   30FA           01272         movlw   .250          
0370   00AC           01273         movwf   temp
0371   1F01           01274 aloop   btfss   rtcc,6  ;6
0372   2B71           01275         goto    aloop
0373   1301           01276         bcf     rtcc,6  ;6
0374   0064           01277         clrwdt                          ;since the WDG reset the device each 18ms, we have to resert it 
                            to alow a 250ms count (It is no possible to use the preescaler since it is assigned to rtcc
0375   0BAC           01278                 decfsz  temp,f
0376   2B71           01279         goto    aloop
                      01280  ;       bcf    PORTB,6         ;set ack line low
0377   1185           01281         bcf     PORTA,3         ;set ack line low
                      01282  
0378   0008           01283       return
                      01284 
                      01285         
                      01286 
                      01287 ;Generic EE WRite subroutine that WRites EEDATA into EEARD. If the processor
                      01288 ;is busy with a previous WRite operation, the subroutine returns without
                      01289 ;WRiting. Inputs are EEARD and eeread.
                      01290 
0379   3055           01291 EEWRite movlw   0x55
037A   0089           01292         movwf   EECON2
037B   30AA           01293         movlw   0xAA
037C   0089           01294         movwf   EECON2
037D   1488           01295         bsf     EECON1,WR
037E   1888           01296 eeWRcon btfsc   EECON1,WR
037F   2B7E           01297         goto    eeWRcon
0380   1108           01298         bcf     EECON1,WREN
0381   1283           01299         bcf     STATUS,RP0
0382   0008           01300         return
                      01301 
0383   1683           01302 EEWRit2 bsf     STATUS,RP0      ;67     bank1
0384   1508           01303         bsf     EECON1,WREN     ;68     enable WRite
0385   3055           01304         movlw   0x55            ;69
0386   0089           01305         movwf   EECON2          ;70     WRite 55h
0387   30AA           01306         movlw   0xAA            ;71
0388   0089           01307         movwf   EECON2          ;72     WRite AAh
0389   1488           01308         bsf     EECON1,WR       ;73     set WE bit enable WRite
038A   1283           01309         bcf     STATUS,RP0      ;74     bank0
038B   0008           01310         return                  ;
MPASM  5.20           DCCDECOMANOLO_V6_02.ASM   11-30-2009  21:50:23         PAGE 26


LOC  OBJECT CODE     LINE SOURCE TEXT
  VALUE

                      01311 
                      01312 ;EEread uses the file selct register to read the data stored in the EE
                      01313 ;memory location pointed to by EEARD.
                      01314 
038C   1400           01315 EEread  bsf     f0,rd
038D   0808           01316         movf    EEDATA,w
038E   0008           01317 asmend  return
                      01318 
2100                  01319         ORG     0x2100  ;The absolue address 2100h is
                      01320                           ;mapped to the 0000 location of
                      01321                           ;EE data memory in PIC16Fxxx.
                      01322                           ;You can create a data or
                      01323                           ;character table starting from
                      01324                           ;any address in EE data memory
2100   0000           01325         DATA    0x00    ;Cv513  en memoria 0                    
2101   00FF           01326         DATA    0xFF    ;Cv514  en memoria 1                            
2102   000A           01327         DATA    0x0A    ;Cv515  en memoria 2
2103   000A           01328         DATA    0x0A    ;Cv516  en memoria 3
2104   000A           01329         DATA    0x0A    ;Cv517  en memoria 4
2105   000A           01330         DATA    0x0A    ;Cv518  en memoria 5
2106   0000           01331         DATA    0x00    ;               en memoria 6
2107   0000           01332         DATA    0x00    ;               en memoria 7
2108   0000           01333         DATA    0x00    ;               en memoria 8
2109   0000           01334         DATA    0x00    ;               en memoria 9
210A   0000           01335         DATA    0x00    ;               en memoria A
210B   0000           01336         DATA    0x00    ;               en memoria B
210C   0000           01337         DATA    0x00    ;               en memoria C
210D   0000           01338         DATA    0x00    ;               en memoria D
210E   0000           01339         DATA    0x00    ;               en memoria E
210F   0000           01340         DATA    0x00    ;               en memoria F
2110   0000           01341         DATA    0x00    ;               en memoria 10
2111   0000           01342         DATA    0x00    ;               en memoria 11
2112   0000           01343         DATA    0x00    ;               en memoria 12
2113   0000           01344         DATA    0x00    ;               en memoria 13
2114   0000           01345         DATA    0x00    ;               en memoria 14
2115   0000           01346         DATA    0x00    ;               en memoria 15
2116   0000           01347         DATA    0x00    ;               en memoria 16
2117   0000           01348         DATA    0x00    ;               en memoria 17
2118   0000           01349         DATA    0x00    ;               en memoria 18
2119   0000           01350         DATA    0x00    ;               en memoria 19
211A   0000           01351         DATA    0x00    ;               en memoria 1A
211B   0000           01352         DATA    0x00    ;               en memoria 1B
211C   0080           01353         DATA    0x80    ;               en memoria 1C
211D   0000           01354         DATA    0x00    ;               en memoria 1D
211E   0000           01355         DATA    0x00    ;               en memoria 1E
211F   0000           01356         DATA    0x00    ;               en memoria 1F
2120   0000           01357         DATA    0x00    ;               en memoria 20   MANOLO
2121   0000           01358         DATA    0x00    ;               en memoria 21   MANOLO memo
                      01359       
                      01360   END
MPASM  5.20           DCCDECOMANOLO_V6_02.ASM   11-30-2009  21:50:23         PAGE 27


SYMBOL TABLE
  LABEL                             VALUE 

Ackn                              0000036C
Bitset                            000000C4
CV513a                            0000000F
CV514a                            00000011
CV521a                            00000010
CV541a                            00000012
CV541s                            00000333
CVcont                            00000340
CVfind                            00000336
CVpage                            0000008B
CVpgreg                           00000343
CVserv                            000002EF
CVservOPS                         000002CD
Carry                             00000000
Conthi                            00000025
Contlo                            0000002C
Counter                           0000007F
Dcontrl                           0000035D
Decode                            00000070
Dreset                            00000367
EEARD                             00000009
EECON1                            00000008
EECON2                            00000009
EEDATA                            00000008
EEWRit2                           00000383
EEWRite                           00000379
EEread                            0000038C
End1                              000000E0
End2                              000000F6
End2b                             00000106
End2c                             00000114
End3                              00000117
End4                              00000123
End5                              0000012F
Endx                              000000D4
F1                                00000005
F2                                00000005
F3                                00000006
F4                                00000006
Getval                            00000032
INIT                              0000000C
Init                              00000000
Lastpak                           0000032A
Lastv                             000000CB
NOTINIT                           0000001D
Nextbyt                           0000007B
PORTA                             00000005
PORTB                             00000006
Pagever                           00000348
RP0                               00000005
Resetv                            0000007C
STATUS                            00000003
Starthi                           00000024
MPASM  5.20           DCCDECOMANOLO_V6_02.ASM   11-30-2009  21:50:23         PAGE 28


SYMBOL TABLE
  LABEL                             VALUE 

Startlo                           0000002B
Testlo                            000000B3
Twonrow                           0000031A
Update                            00000135
Ver1                              0000034D
Ver1dir                           0000034E
WR                                00000001
WR1                               00000302
WR1dir                            00000303
WREN                              00000002
WRcon1                            00000313
WRcont                            0000030F
Waitlo                            000000AA
Waitn                             00000098
Zbit                              00000002
__12F675                          00000001
__DEBUG                           1
action                            0000001D
addcfg                            0000000C
aloop                             00000371
asmend                            0000038E
brdcst                            00000002
busy                              0000015A
byte4                             00000001
byte5                             00000002
change                            0000002E
configu                           0000000D
count                             0000000E
count1                            0000015F
count2                            00000190
count3                            000001BB
count4                            000001E6
count5                            00000211
count6                            0000023C
count7                            00000267
count8                            00000292
data1                             00000013
data2                             00000014
data3                             00000015
data4                             00000016
data5                             00000017
ddra                              00000085
ddrb                              00000086
eeWRcon                           0000037E
end3hi                            0000011E
end4hi                            0000012A
endval                            00000018
endx1                             000000D9
endx2                             000000DC
f                                 00000001
f0                                00000000
fsr                               00000004
idle                              00000005
MPASM  5.20           DCCDECOMANOLO_V6_02.ASM   11-30-2009  21:50:23         PAGE 29


SYMBOL TABLE
  LABEL                             VALUE 

intcon                            0000000B
lastd1                            00000019
lastd2                            0000001A
lastd3                            0000001B
lastd4                            0000001C
lastv1                            000000D1
m                                 00000029
memo                              0000002D
n                                 0000002A
noacc                             0000007A
off1                              00000171
off2                              000001A2
off3                              000001CD
off4                              000001F8
off5                              00000223
off6                              0000024E
off7                              00000279
off8                              000002A4
optreg                            00000081
pagereg                           00000028
pc                                00000002
pclath                            0000000A
primary                           00000000
rd                                00000000
reset                             00000001
ret0                              0000018F
ret1                              0000018E
ret10                             000000D3
ret11                             0000018B
ret12                             000002CA
ret13                             0000018A
ret14                             000002C9
ret15                             000002C8
ret16                             0000005E
ret17                             000002C7
ret18                             000002C6
ret19                             000002C5
ret2                              000000CA
ret20                             000002C4
ret21                             000002C3
ret22                             000002C1
ret23                             000002C2
ret25                             000002C0
ret27                             000002BF
ret3                              0000018D
ret4                              000002CC
ret5                              0000018C
ret6                              000002BE
ret7                              000002BD
ret8                              000002CB
ret9                              00000122
rp1                               00000006
rtcc                              00000001
MPASM  5.20           DCCDECOMANOLO_V6_02.ASM   11-30-2009  21:50:23         PAGE 30


SYMBOL TABLE
  LABEL                             VALUE 

servOPS                           00000004
servTRK                           00000003
state                             0000002B
strmemo                           0000014A
t1a                               00000176
t1b                               0000017B
t1c                               0000017D
t2a                               000001A7
t2b                               000001AC
t2c                               000001AE
t3a                               000001D2
t3b                               000001D7
t3c                               000001D9
t4a                               000001FD
t4b                               00000202
t4c                               00000204
t5a                               00000228
t5b                               0000022D
t5c                               0000022F
t6a                               00000253
t6b                               00000258
t6c                               0000025A
t7a                               0000027E
t7b                               00000283
t7c                               00000285
t8a                               000002A9
t8b                               000002AE
t8c                               000002B0
temp                              0000002C
tick1                             0000001E
time1                             00000020
time2                             00000021
time3                             00000022
time4                             00000023
time5                             00000024
time6                             00000025
time7                             00000026
time8                             00000027
value                             00000000
ver2                              00000356
w                                 00000000
MPASM  5.20           DCCDECOMANOLO_V6_02.ASM   11-30-2009  21:50:23         PAGE 31


MEMORY USAGE MAP ('X' = Used,  '-' = Unused)


0000 : XXXXXXXXXXXXXXXX XXXXXXXXXXXXXXXX XXXXXXXXXXXXXXXX XXXXXXXXXXXXXXXX
0040 : XXXXXXXXXXXXXXXX XXXXXXXXXXXXXXXX XXXXXXXXXXXXXXXX XXXXXXXXXXXXXXXX
0080 : XXXXXXXXXXXXXXXX XXXXXXXXXXXXXXXX XXXXXXXXXXXXXXXX XXXXXXXXXXXXXXXX
00C0 : XXXXXXXXXXXXXXXX XXXXXXXXXXXXXXXX XXXXXXXXXXXXXXXX XXXXXXXXXXXXXXXX
0100 : XXXXXXXXXXXXXXXX XXXXXXXXXXXXXXXX XXXXXXXXXXXXXXXX XXXXXXXXXXXXXXXX
0140 : XXXXXXXXXXXXXXXX XXXXXXXXXXXXXXXX XXXXXXXXXXXXXXXX XXXXXXXXXXXXXXXX
0180 : XXXXXXXXXXXXXXXX XXXXXXXXXXXXXXXX XXXXXXXXXXXXXXXX XXXXXXXXXXXXXXXX
01C0 : XXXXXXXXXXXXXXXX XXXXXXXXXXXXXXXX XXXXXXXXXXXXXXXX XXXXXXXXXXXXXXXX
0200 : XXXXXXXXXXXXXXXX XXXXXXXXXXXXXXXX XXXXXXXXXXXXXXXX XXXXXXXXXXXXXXXX
0240 : XXXXXXXXXXXXXXXX XXXXXXXXXXXXXXXX XXXXXXXXXXXXXXXX XXXXXXXXXXXXXXXX
0280 : XXXXXXXXXXXXXXXX XXXXXXXXXXXXXXXX XXXXXXXXXXXXXXXX XXXXXXXXXXXXXXXX
02C0 : XXXXXXXXXXXXXXXX XXXXXXXXXXXXXXXX XXXXXXXXXXXXXXXX XXXXXXXXXXXXXXXX
0300 : XXXXXXXXXXXXXXXX XXXXXXXXXXXXXXXX XXXXXXXXXXXXXXXX XXXXXXXXXXXXXXXX
0340 : XXXXXXXXXXXXXXXX XXXXXXXXXXXXXXXX XXXXXXXXXXXXXXXX XXXXXXXXXXXXXXXX
0380 : XXXXXXXXXXXXXXX- ---------------- ---------------- ----------------
2000 : -------X-------- ---------------- ---------------- ----------------
2100 : XXXXXXXXXXXXXXXX XXXXXXXXXXXXXXXX XX-------------- ----------------

All other memory blocks unused.

Program Memory Words Used:   911
Program Memory Words Free:   113


Errors   :     0
Warnings :     1 reported,     0 suppressed
Messages :     3 reported,     0 suppressed

