:020000040000FA
:10000000831617308500003086008430810083120B
:1000100088308400031E1D28213089000014080840
:10002000AD008600AE00A001A101A201A301A401C0
:10003000A501A601A7019E0181018B01AB01A901C8
:10004000AA018D019D013120051D2A28A91FA90A99
:1000500034212428312005192328A91FA90A342175
:100060002B28AA0A290803197B286400A9010D106E
:10007000FD3E031C0D140318AA01E7302B070318DB
:10008000AB012B0882079728A928B228C328CA28C1
:10009000C328CA28C328CA28C328CA28C328CA28EC
:1000A000C328CA28C328CA28C328D328DF28F5288C
:1000B000162922292E29AB010D1CCD2A0C08031963
:1000C0008F2913081406150616061706031DD02AD5
:1000D0000C1AD12A8C19F32AAA018D110D121408B9
:1000E000E0390319612B941F792814080F399D00FA
:1000F0009D1708000800AB01AA01C32A8E0A073029
:100100000E05820763299429BF29EA29152A402A66
:100110006B2A962A140895000730130582073A2B9C
:100120003A2B3A2B3A2B372B472B08000800EC30A0
:100130002A07031C8F29AB0A950196018C019801AF
:100140000130890000140808910000000000000040
:1001500008000D1CAB0A00308900001408088F004D
:100160008F17C22AAB0A0D18AB01083089000014A2
:1001700008089000900D900D900D900D9009703032
:10018000900500000800AB0A03100D180314970D2A
:1001900021299329AB0A0D1CD028171CAB0121295A
:1001A0001718AB01CF2A0D1CD828171CAB09DB2868
:1001B0001718AB090000980A1808AB0791290230FC
:1001C000AB00170893000D18AB01130803198C142A
:1001D000BF3A03190C151308FF3A03198C161308BC
:1001E0007F39903E03188C1508000230AB001708C9
:1001F00094000D18AB0114088C390C3A03190C1635
:100200008C1E05291408031D8C1214087039031D57
:100210000C110C1414087039100603190C1413086F
:100220000F06031908000C100C1208000D181D29E8
:100230000230AB0017089500CF2A1830AB008D10A4
:100240000D11C12A0D1829290230AB00170896009C
:10025000CF2A1830AB008D140D11C12AAB0A0D1C2A
:10026000AB018D140D1521293F300102031C7E289E
:100270009E0A810100000A301E02031C49299E01CA
:10028000A00AA10AA20AA30AA40AA50AA60AA70A02
:10029000CE2A2D082E020319CB2A2D08AE00880085
:1002A000213089008316081555308900AA3089004D
:1002B00088148818592908118312851D6129851110
:1002C0009229851593299D1F7A291D080739003A1F
:1002D000031D7F29111C81299D1D752906149E016E
:1002E000A0019D132D140000912906109D132D10BF
:1002F0000000D02A00000000000000000000000004
:10030000000002308900001408080319902906181B
:10031000AD10200203180610000008008F292129C3
:1003200091299229000008009D1FAB291D0807395B
:10033000013A031DB029911CB2299D1DA6298614DE
:100340009E01A1019D13AD140000912986109D13FB
:10035000AD100000D02A00000000000000000000E6
:1003600000000000023089000014080803199029D9
:1003700086182D10210203188610000008009D1F0A
:10038000D6291D080739023A031DDB29111DDD2975
:100390009D1DD12906159E01A2019D132D1500005A
:1003A000912906119D132D110000D02A0000000094
:1003B000000000000000000000000330890000146D
:1003C0000808031990290619AD1122020318061115
:1003D000000008009D1F012A1D080739033A031D6C
:1003E000062A911D082A9D1DFC2986159E01A30140
:1003F0009D13AD150000912986119D13AD110000CC
:10040000D02A0000000000000000000000000000F2
:1004100003308900001408080319902986192D114A
:10042000230203188611000008009D1F2C2A1D08B6
:100430000739043A031D312A111E332A9D1D272A2C
:1004400006169E01A4019D132D1600009129061287
:100450009D132D120000D02A0000000000000000B3
:10046000000000000000043089000014080803198F
:100470009029061AAD122402031806120000080083
:100480009D1F572A1D080739053A031D5C2A911E36
:100490005E2A9D1D522A86169E01A5019D13AD164A
:1004A0000000912986129D13AD120000D02A000091
:1004B000000000000000000000000000043089007F
:1004C0000014080803199029861A2D122502031812
:1004D0008612000008009D1F822A1D080739063A6F
:1004E000031D872A111F892A9D1D7D2A06179E013B
:1004F000A6019D132D170000912906139D132D139E
:100500000000D02A000000000000000000000000F1
:100510000000053089000014080803199029061B03
:10052000AD13260203180613000008009D1FAD2A14
:100530001D080739073A031DB22A911FB42A9D1DD1
:10054000A82A86179E01A7019D13AD1700009129C7
:1005500086139D13AD130000D02A00000000000098
:1005600000000000000000000530890000140808A9
:1005700003199029861B2D132702031886130000E8
:1005800008009129D02AC42AC62AC82AC72AC92AFB
:10059000CA2ACB2A5D28CC2A8E29CE2AD228C22A62
:1005A000C9280C1E0800AA011E23003803190800E0
:1005B00014080339023A031D08001508063A031906
:1005C0000800013A031908001B3A0319080015082E
:1005D0001F3C031C080015088900160888008723A3
:1005E0000C12702308000D1D8D1D0800AA010000CB
:1005F0001E230038031908008D1C8A281308763A38
:100600000319522B083A031D0800072B9403150801
:1006100088001408063A03190800013A0319080073
:100620001B3A0319172B0930140203180800140889
:1006300089006400831608157D23702B13081906A2
:10064000031D2E2B14081A06031D2E2B15081B063E
:10065000031D2E2B16081C060319FF3413089900DE
:1006600014089A0015089B0016089C0000341C30E2
:100670009400442B280394000310940D031C0800DD
:10068000940D033013059407931D512B062B931DD6
:100690004C2B1508A800080028081506031D0800A3
:1006A000702B94031C30140603195A2B09301402C2
:1006B000031808001408890090231506031D08007C
:1006C000702B0D1D8D180800140803196B2B0E3AA2
:1006D0000319702B08009D018C1C08008D157A28C9
:1006E000640085158101FA30AC00011F752B0113E0
:1006F0006400AC0B752B8511080055308900AA30B9
:10070000890088148818822B081183120800831628
:10071000081555308900AA30890088148312080012
:06072000001408080800A7
:02400E00F63F7B
:104200000200FF000A0000000000000000000000A3
:10421000000000000000000000000000000000009E
:10422000000000000000000000000000000000008E
:1042300000000000000000008000000000000000FE
:044240000000010079
:00000001FF
